:070DE40075C820E4F58A2226
:100CDD00EDC3940F40027D0FEFB40106ED25E0F555
:0C0CED00D822AF05EF25E04401F5D82225
:100B580075A18BE4F5ACF591F5DEF580F5D375D28A
:100B680020F5B1F5ADF592F588F5D575D42A75B9A6
:100B7800C4F5AEF593F59075D60A75C102F5AFF5D3
:100B880098F5EE75C901F5A3F594F5A0F5EF75D1C3
:080B98001FF595F5B0F5FF22F1
:100CBB00759D07EF4480F59C439C4000E59CF42018
:100CCB00E4FAE59F540FFEAD9E7C00E42DFFEC3E55
:020CDB00FE22F7
:100C9300AC06EC901012F0A3EFF09010107401F07A
:100CA300A37464F0901010E04480F0901011E0F40D
:080CB30020E4F8E054EFF02208
:0A005900EF1F70011E144E70F72215
:10000300190715061E1C1A181614100808070706E8
:1000130006031F0938407080A8C0000000F0021CCE
:100023000348047405A006CC06CC06CC0005090DD4
:100033001115191D1F0002030405060708090666AA
:10004300070A070A00A4066607AE085108F50999CE
:0600530009EB0A8F0B33DC
:100BA000EE25E02433F582E43400F583E0FCA3E095
:100BB000FDEF25E02433F582E43400F58322F0A331
:100BC000F0A3F0A3F02290003EE0943390003DE0CB
:100BD000940322E4900042F0A3F022EEF0A3EFF0A1
:050BE0007F0A7E0022E7
:1008FA00900023743CF0A3F090001B7402F0E49083
:10090A000030F0A3F0900048F090004B120BBE901C
:10091A000050120BBEA3120BBEA3F0A3F0A3743CAB
:10092A00F090001CE025E0241DF582E43400F583F4
:10093A00E493FF74019390005BCFF0A3EFF0900073
:10094A00607420F0E4A3F0900016120BBE90003DF4
:10095A00F0A3F0900045F0120BD4A3F0900047F0FA
:0D096A00900046F090003FF0A3F0A3F022B3
:10006E0090005DE07002A3E0704B90005FE0FFB483
:10007E000223C390004EE0949990004DE0940990B5
:10008E00005F500280257401F090005D7404F0A3AF
:10009E0074B0F08020EFB4011CC390004EE0943396
:1000AE0090004DE0940B500890005F7403F08005B3
:1000BE00E490005FF090001CE025E02447F582E418
:1000CE003400F583E493FE740193FF90004A7401AB
:1000DE00F0C390004EE09F90004DE09E4024E490CF
:1000EE00005FF090004AF090004EE094D690004DE4
:1000FE00E0940F400D900030E04440F090005674B4
:10010E000AF090005FE0C394034006A37414F080DD
:10011E0011900001E090006070057420F08003746F
:10012E0008F0900053E07007900030E054F7F09024
:10013E000054E07007900030E054EFF0900055E06E
:10014E007007900030E054DFF0900056E07007909A
:10015E000030E054BFF0900061E004F0E0D3941F53
:10016E004002E4F090001AE064017029900060E013
:10017E00FFA3E0C39F501E90004AE0B40117900009
:10018E003FE0B40110900045E0700A900030E0703E
:0C019E00047F0180027F00900048EFF019
:0101AA002232
:100D4B00E4900040F0900048E0B4010A43808090AA
:0A0D5B0000407401F02253807F2253
:0F0DAB00900048E0B401044380802253807F22EF
:100867004380027F0E120CBB90003DEEF0A3EFF029
:10087700A37401F0A3E0B40118120BD3D3120BC673
:100887005060900030E04402F0900047740AF08016
:1008970051C3120BC6401E900043E004F07006904F
:1008A7000042E004F0E490003FF0900045E0700F54
:1008B700743CF0800A120BD3900030E054FEF0C372
:1008C700900043E09468900042E094104014741044
:1008D700F0A37468F09000417401F0900030E04498
:1008E70001F0900047E07007900030E054FDF053AE
:0308F70080FD225F
:100C2800438002E4900070F07F0D120CBB900070BE
:100C3800E0120BB2120BDB120C936380029000706F
:100C4800E004F0E0C3940540DF5380FD120BE5900B
:0E0C58000039E0FFA3E090004BCFF0A3EFF0D7
:010C6600226B
:10097700438002E490006EF07F0B120CBB90006E78
:10098700E0120BB2120BDB120C9363800290006E25
:10099700E004F0E0C3940540DF900035E0FEA3E0FB
:1009A700FF900034E02FFF900033E03EFE900038C8
:1009B700E02FFF900037E03EFE90003AE02FFF90D7
:1009C7000039E03EFE90003CE02FFF90003BE03E08
:1009D700FE7C007D0512066390004DEEF0A3EFF05C
:0309E7005380FD3D
:0109EA0022EA
:100BE500E4FFAE07EEC394055032120BA0E0FAA362
:100BF500E0FBD39DEA9C402190006CEAF0A3EBF06A
:100C0500120BA0ECF0A3EDF090006CE0FCA3E0FD6E
:100C1500EE120BB2ECF0A3EDF00E80C80FEF6405F9
:020C250070C09D
:010C270022AA
:100C6700A3F07460901011F09010107481F022FEC0
:100C7700FDFCE0F8A3E0F9A3E0FAA3E0FB22900073
:0C0C870066E0FCA3E0FDA3E0FEA3E02279
:0A0DD20075B42075B20C43B2812203
:0C0DBA00EFB4010443AA022253AAFD2258
:0C0DC600EFB4010443AA012253AAFE224C
:100D1500AD07AC06ECF5C5AF058FC475C24075C30C
:0B0D250081E5C2F420E4FA53C2EF2283
:100CF900AC06EC901012F0A3EFF07440120C6B905C
:0C0D09001011E0F420E4F8E054EFF022B8
:100D3000EF25E0FFEE33901012F0EF120C679010E9
:0A0D400011E0F420E4F8E054EFF0B5
:010D4A002286
:06072400900062120718AC
:10072A00E47F02900062120C761206B890006612FC
:10073A000718120C85C3940AFFEE94000207BCE462
:10074A00FF900066120C76D31207074077E47FFF0A
:10075A007EFFFDFC900066E0F8A3A3A3E0D3120796
:10076A000740067EFF7FFF800A900066A3A3E0FE93
:10077A00A3E0FF90006AEEF0A3EFF090006AE0FCBD
:10078A00A3E0FDEC901012F0ED120C67901011E04E
:10079A00F420E4F8E054EFF0120C85FFC006C0071D
:1007AA00A3E0FEA3E0FBAA06D007D006C3EF9BFF97
:1007BA00EE9AFEED9400FDEC9400FC9000661207A0
:0407CA0018020749C1
:0107CE002208
:03006B00020D97EC
:100D9700C0E0C083C082900027E06401F0D082D019
:040DA70083D0E032E3
:0300630002006632
:02006600003266
:1009EB0090002AE4F0A3743CF090002D2290001BA1
:1009FB00E025E02417F582E43400F583E493FF74DB
:100A0B000193900025CFF0A3EFF0227402F0900039
:100A1B001DE0FFF422E004F0E0C3940222E4F09026
:100A2B00001DE022F090001AE0640122C2B3C2A0C4
:100A3B00C2B4C2B2C28322E4F090001DE022900047
:0F0A4B002AE4F0A3743CF022D2B3D2A0D2B4229A
:1002C500E490006EF0A3F0208B3A90001E120A20F5
:1002D500403B120A1630E035EF4401120A2FF0E4D4
:1002E50090002AF0A3F0A3F090001AE0601F120816
:1002F500FA1209F890005D7404F0A374B0F0A374C9
:1003050002F0800990001E120A2854FEF0209A245B
:1003150090001F120A204025120A1630E11FEF44F3
:1003250002120A2F7017A3E094025003E004F012A2
:1003350009F8800990001F120A2854FDF02086272D
:10034500900020120A204028120A1630E222EF44BB
:1003550004F090001AE0B4011790001CE0C3940863
:10036500500EE004F08009900020120A4254FBF080
:10037500208423900021120A204024120A1630E31B
:100385001EEF4408F090001AE0B4011390001CE041
:10039500600D14F08009900021120A4254F7F020F4
:1003A5008524900022120A204028120A1630E422E1
:1003B500EF4410120A2F701AA3E0D394004003E013
:1003C50014F01209F822E4900022F090001DE05488
:0203D500EFF047
:0103D7002203
:1003D800900023E06003020493743CF0900045E031
:1003E800600214F0900047E0600214F0900053E0BF
:1003F800600214F0900054E0600214F0900055E0A0
:10040800600214F0900056E0600214F0900019E0C9
:10041800600214F0900029E06003E014F090005AA4
:10042800E0600214F090005BE07002A3E0600E90C0
:10043800005CE024FFF090005BE034FFF090005D8A
:10044800E07002A3E0600E90005EE024FFF09000F0
:100458005DE034FFF0900058E004F070069000571B
:10046800E004F0900025E07002A3E0600E90002602
:10047800E024FFF0900025E034FFF0900024E070C5
:1004880005743CF0800B9000248003900023E01456
:10049800F0900029E0900025E07002A3E06006904B
:1004A800001AE0700FE4900030F090001AF090000D
:0504B80025F0A3F02275
:1001AB0090002CE0FFC390002BE09F90002AE0947E
:1001BB0000401E120A30701FA3E0FF7004D2928021
:1001CB0016EFB40104D296800EEFB4020AD29780D8
:1001DB000690002D740AF090002AE07002A3E060F4
:1001EB00030202A7900031E06013120A499000311C
:1001FB00E030E00690002D740DF002027990003093
:10020B00E0FF607730E0091209EB7401F00202792C
:10021B00EF30E1091209EB7402F0020279EF30E2E0
:10022B00081209EB7403F08045EF30E3081209EB79
:10023B007404F08039EF30E4081209EB7405F08098
:10024B002DEF30E5081209EB7406F08021EF30E654
:10025B00081209EB7407F08015EF90002A30E708BD
:10026B001209EE7408F080061209EE7409F0900082
:10027B002AE0C313A3E013A3F0802F120A499000C6
:10028B001AE0B4010A90001CE090002DF08006905B
:10029B00002D740FF0E490002CF0800E90002BE0FA
:1002AB0024FFF090002AE034FFF0120DDC90002DBB
:0A02BB00E0FF120593E4FF020DEBD3
:080DDC00120A37C2B0C2B122B5
:10059300EFB4100040030206629005A3F828287305
:1005A3000205D30205D90205DD0205EA0205F302BD
:1005B30005F702060102060702060F0206170206E6
:1005C3002302063202063702064302064F020632B0
:1005D300120A53020655C2B3802CD2B3D2A0C2B4BE
:1005E300D2B2D28302065E120A53D2B2C283806BA6
:1005F300C2B38022D2B3C2A0D2B4D2B2801EC2B3DD
:10060300C2A0800CD2B3D2A0D2B4801AD2B3D2A0EB
:10061300D2B48026D2B3D2A0D2B4C2B2C2838027CE
:10062300C2B3C2A0C2B4C2B2C283C2B0C2B12212A8
:100633000A378027D2B3C2A0C2B4D2B2D283800712
:10064300120A53C2B2D283D2B0D2B122D2B3C2A061
:10065300C2B4D2B2D283D2B0C2B122C2B0D2B1221A
:060DEB0090006EEFF02203
:100ABC00438002E4FF120CBB900012EEF0A3EFF0A7
:100ACC00A3E07002A3E06010900015E024FFF0900A
:100ADC000014E034FFF08007E4900012F0A3F0C3A0
:100AEC00900013E09466900012E09406900031E0C0
:0E0AFC0040054401F0800354FEF05380FD22BB
:1004BD004380027F0F120CBB90000EE0FD04F0EDA7
:1004CD0025E02402F582E43400F583EEF0A3EFF08D
:1004DD0090000EE0C394054049E4F0900004E0FE66
:1004ED00A3E0FF900003E02FFF900002E03EFE909E
:1004FD000007E02FFF900006E03EFE900009E02F80
:10050D00FF900008E03EFE90000BE02FFF90000AE8
:10051D00E03EFE7C007D0512066390000CEEF0A31C
:10052D00EFF090000CE0FEA3E0FFC3945EEE940AA2
:10053D00400C9000017401F090000FF0802CC3EF7F
:10054D00946EEE940640099000017401F0E4800E63
:10055D00C3EF945EEE94065011E4900001F090000C
:10056D000FF0A37403F0A37484F0900010E07002F8
:10057D00A3E0600E900011E024FFF0900010E03435
:06058D00FFF05380FD2287
:100B0A004380027F0C120CBB900016EEF0A3EFF0AC
:100B1A00D394AEEE9403501CA3E004F0E0C3940A0D
:100B2A004017740AF0900030E04480F09000197485
:100B3A000AF08005E4900018F0900019E0600414AF
:0E0B4A00F08007900030E0547FF05380FD22D1
:1007CF0053A87F120DE47D0FE4FF120CDD120B58BE
:1007DF0043A880120A5A1208FA120D7FE59830E3E7
:1007EF00FB900041E0B401034398027FA07E0F12FB
:1007FF000C931204BD7F1E7E00120C9312086753D8
:10080F0098FD7F547E0B120C937F647E00120C9325
:10081F00120B0A1203D81202C57FF47E01120C9339
:10082F00120DABE59820E3FB1201AB7FE87E0312BC
:10083F000C937FDC7E05120C93120ABC7FE87E03BB
:10084F00120C9312097753903B12006E7FE87E03D0
:08085F00120C93120D4B808472
:100A5A00E490001AF0900028F0A37414F0E49000D7
:100A6A001DF0A3F0A3F090002AF0A3F0A3F09000E9
:100A7A001C7404F0E490001BF0900032F090002FF8
:100A8A00F090002D740AF0E4900030F0A3F090008A
:100A9A001404F0A3742CF0E4900001F090000FF01D
:100AAA00900000F0900048F053807F5380FD5380FF
:020ABA00FE221A
:100D7F007F1EE490006EF0E59830E3FBE59820E3EA
:070D8F00FBEF60031F80F081
:010D9600223A
:03000000020D6589
:100D650078FFE4F6D8FD9000007F007E09E4F0A34B
:0A0D7500DFFCDEFA7581070207CFEC
:10066300BC000BBE0029EF8DF084FFADF022E4CC7B
:10067300F875F008EF2FFFEE33FEEC33FCEE9DEC44
:10068300984005FCEE9DFE0FD5F0E9E4CEFD22ED8A
:10069300F8F5F0EE8420D21CFEADF075F008EF2FD4
:1006A300FFED33FD4007985006D5F0F222C398FDC5
:0506B3000FD5F0EA2262
:1006B800E88FF0A4CC8BF0A42CFCE98EF0A42CFCE1
:1006C8008AF0EDA42CFCEA8EF0A4CDA8F08BF0A45F
:1006D8002DCC3825F0FDE98FF0A42CCD35F0FCEBBE
:1006E8008EF0A4FEA9F0EB8FF0A4CFC5F02ECD3983
:0F06F800FEE43CFCEAA42DCE35F0FDE43CFC22F0
:10070700EB9FF5F0EA9E42F0E99D42F0E89C45F048
:0107170022BF
:0C071800ECF0A3EDF0A3EEF0A3EFF02254
:00000001FF
