:070DD90075C820E4F58A2231
:100CD200EDC3940F40027D0FEFB40106ED25E0F560
:0C0CE200D822AF05EF25E04401F5D82230
:100B4D0075A18BE4F5ACF591F5DEF580F5D375D295
:100B5D0020F5B1F5ADF592F588F5D575D42A75B9B1
:100B6D00C4F5AEF593F59075D60A75C102F5AFF5DE
:100B7D0098F5EE75C901F5A3F594F5A0F5EF75D1CE
:080B8D001FF595F5B0F5FF22FC
:100CB000759D07EF4480F59C439C4000E59CF42023
:100CC000E4FAE59F540FFEAD9E7C00E42DFFEC3E60
:020CD000FE2202
:100C8800AC06EC901012F0A3EFF09010107401F085
:100C9800A37464F0901010E04480F0901011E0F418
:080CA80020E4F8E054EFF02213
:0A005900EF1F70011E144E70F72215
:10000300190715061E1C1A181614100808070706E8
:1000130006031F0938407080A8C0000000F0021CCE
:100023000348047405A006CC06CC06CC0005090DD4
:100033001115191D1F0002030405060708090666AA
:10004300070A070A00A4066607AE085108F50999CE
:0600530009EB0A8F0B33DC
:100B9500EE25E02433F582E43400F583E0FCA3E0A0
:100BA500FDEF25E02433F582E43400F58322F0A33C
:100BB500F0A3F0A3F02290003EE0943390003DE0D6
:100BC500940322E4900042F0A3F022EEF0A3EFF0AC
:050BD5007F0A7E0022F2
:1008EF00900023743CF0A3F090001B7402F0E4908E
:1008FF000030F0A3F0900048F090004B120BB39033
:10090F000050120BB3A3120BB3A3F0A3F0A3743CCC
:10091F00F090001CE025E0241DF582E43400F583FF
:10092F00E493FF74019390005BCFF0A3EFF090007E
:10093F00607420F0E4A3F0900016120BB390003D0A
:10094F00F0A3F0900045F0120BC9A3F0900047F010
:0D095F00900046F090003FF0A3F0A3F022BE
:10006E0090005DE07002A3E0704B90005FE0FFB483
:10007E000223C390004EE0949990004DE0940990B5
:10008E00005F500280257401F090005D7404F0A3AF
:10009E0074B0F08020EFB4011CC390004EE0943396
:1000AE0090004DE0940B500890005F7403F08005B3
:1000BE00E490005FF090001CE025E02447F582E418
:1000CE003400F583E493FE740193FF90004A7401AB
:1000DE00F0C390004EE09F90004DE09E4024E490CF
:1000EE00005FF090004AF090004EE094D690004DE4
:1000FE00E0940F400D900030E04440F090005674B4
:10010E000AF090005FE0C394034006A37414F080DD
:10011E00069000607420F0900053E070079000305D
:10012E00E054F7F0900054E07007900030E054EF88
:10013E00F0900055E07007900030E054DFF0900032
:10014E0056E07007900030E054BFF0900061E0047C
:10015E00F0E0D3941F4002E4F090001AE0640170C6
:10016E0029900060E0FFA3E0C39F501E90004AE07C
:10017E00B4011790003FE0B40110900045E0700A02
:10018E00900030E070047F0180027F00900048EF05
:01019E00F070
:01019F00223D
:100D4000E4900040F0900048E0B4010A43808090B5
:0A0D500000407401F02253807F225E
:0F0DA000900048E0B401044380802253807F22FA
:10085C004380027F0E120CB090003DEEF0A3EFF03F
:10086C00A37401F0A3E0B40118120BC8D3120BBB94
:10087C005060900030E04402F0900047740AF08021
:10088C0051C3120BBB401E900043E004F070069065
:10089C000042E004F0E490003FF0900045E0700F5F
:1008AC00743CF0800A120BC8900030E054FEF0C388
:1008BC00900043E09468900042E09410401474104F
:1008CC00F0A37468F09000417401F0900030E044A3
:1008DC0001F0900047E07007900030E054FDF053B9
:0308EC0080FD226A
:100C1D00438002E4900070F07F0D120CB0900070D4
:100C2D00E0120BA7120BD0120C886380029000709B
:100C3D00E004F0E0C3940540DF5380FD120BDA9021
:0E0C4D000039E0FFA3E090004BCFF0A3EFF0E2
:010C5B002276
:10096C00438002E490006EF07F0B120CB090006E8E
:10097C00E0120BA7120BD0120C8863800290006E51
:10098C00E004F0E0C3940540DF900035E0FEA3E006
:10099C00FF900034E02FFF900033E03EFE900038D3
:1009AC00E02FFF900037E03EFE90003AE02FFF90E2
:1009BC000039E03EFE90003CE02FFF90003BE03E13
:1009CC00FE7C007D0512065890004DEEF0A3EFF072
:0309DC005380FD48
:0109DF0022F5
:100BDA00E4FFAE07EEC394055032120B95E0FAA378
:100BEA00E0FBD39DEA9C402190006CEAF0A3EBF075
:100BFA00120B95ECF0A3EDF090006CE0FCA3E0FD85
:100C0A00EE120BA7ECF0A3EDF00E80C80FEF64050F
:020C1A0070C0A8
:010C1C0022B5
:100C5C00A3F07460901011F09010107481F022FECB
:100C6C00FDFCE0F8A3E0F9A3E0FAA3E0FB2290007E
:0C0C7C0066E0FCA3E0FDA3E0FEA3E02284
:0A0DC70075B42075B20C43B281220E
:0C0DAF00EFB4010443AA022253AAFD2263
:0C0DBB00EFB4010443AA012253AAFE2257
:100D0A00AD07AC06ECF5C5AF058FC475C24075C317
:0B0D1A0081E5C2F420E4FA53C2EF228E
:100CEE00AC06EC901012F0A3EFF07440120C609072
:0C0CFE001011E0F420E4F8E054EFF022C4
:100D2500EF25E0FFEE33901012F0EF120C5C9010FF
:0A0D350011E0F420E4F8E054EFF0C0
:010D3F002291
:0607190090006212070DC2
:10071F00E47F02900062120C6B1206AD900066121D
:10072F00070D120C7AC3940AFFEE94000207B1E48E
:10073F00FF900066120C6BD31206FC4077E47FFF2C
:10074F007EFFFDFC900066E0F8A3A3A3E0D31206A2
:10075F00FC40067EFF7FFF800A900066A3A3E0FEA9
:10076F00A3E0FF90006AEEF0A3EFF090006AE0FCC8
:10077F00A3E0FDEC901012F0ED120C5C901011E064
:10078F00F420E4F8E054EFF0120C7AFFC006C00733
:10079F00A3E0FEA3E0FBAA06D007D006C3EF9BFFA2
:1007AF00EE9AFEED9400FDEC9400FC9000661207AB
:0407BF000D02073EE2
:0107C3002213
:03006B00020D8CF7
:100D8C00C0E0C083C082900027E06401F0D082D024
:040D9C0083D0E032EE
:0300630002006632
:02006600003266
:1009E00090002AE4F0A3743CF090002D2290001BAC
:1009F000E025E02417F582E43400F583E493FF74E6
:100A00000193900025CFF0A3EFF0227402F0900044
:100A10001DE0FFF422E004F0E0C3940222E4F09031
:100A2000001DE022F090001AE0640122C2B3C2A0CF
:100A3000C2B4C2B2C28322E4F090001DE022900052
:0F0A40002AE4F0A3743CF022D2B3D2A0D2B422A5
:1002BA00E490006EF0A3F0208B3A90001E120A150B
:1002CA00403B120A0B30E035EF4401120A24F0E4F5
:1002DA0090002AF0A3F0A3F090001AE0601F120821
:1002EA00EF1209ED90005D7404F0A374B0F0A374EA
:1002FA0002F0800990001E120A1D54FEF0209A2472
:10030A0090001F120A154025120A0B30E11FEF4414
:10031A0002120A247017A3E094025003E004F012B8
:10032A0009ED800990001F120A1D54FDF02086274E
:10033A00900020120A154028120A0B30E222EF44DC
:10034A0004F090001AE0B4011790001CE0C394086E
:10035A00500EE004F08009900020120A3754FBF096
:10036A00208423900021120A154024120A0B30E33C
:10037A001EEF4408F090001AE0B4011390001CE04C
:10038A00600D14F08009900021120A3754F7F0200A
:10039A008524900022120A154028120A0B30E42202
:1003AA00EF4410120A24701AA3E0D394004003E029
:1003BA0014F01209ED22E4900022F090001DE0549E
:0203CA00EFF052
:0103CC00220E
:1003CD00900023E06003020488743CF0900045E047
:1003DD00600214F0900047E0600214F0900053E0CA
:1003ED00600214F0900054E0600214F0900055E0AB
:1003FD00600214F0900056E0600214F0900019E0D5
:10040D00600214F0900029E06003E014F090005AAF
:10041D00E0600214F090005BE07002A3E0600E90CB
:10042D00005CE024FFF090005BE034FFF090005D95
:10043D00E07002A3E0600E90005EE024FFF09000FB
:10044D005DE034FFF0900058E004F0700690005726
:10045D00E004F0900025E07002A3E0600E9000260D
:10046D00E024FFF0900025E034FFF0900024E070D0
:10047D0005743CF0800B9000248003900023E01461
:10048D00F0900029E0900025E07002A3E060069056
:10049D00001AE0700FE4900030F090001AF0900018
:0504AD0025F0A3F02280
:1001A00090002CE0FFC390002BE09F90002AE09489
:1001B00000401E120A25701FA3E0FF7004D2928037
:1001C00016EFB40104D296800EEFB4020AD29780E3
:1001D0000690002D740AF090002AE07002A3E060FF
:1001E0000302029C900031E06013120A3E9000313D
:1001F000E030E00690002D740DF002026E900030A9
:10020000E0FF607730E0091209E07401F002026E4D
:10021000EF30E1091209E07402F002026EEF30E201
:10022000081209E07403F08045EF30E3081209E09A
:100230007404F08039EF30E4081209E07405F080AE
:100240002DEF30E5081209E07406F08021EF30E66A
:10025000081209E07407F08015EF90002A30E708D3
:100260001209E37408F080061209E37409F09000A3
:100270002AE0C313A3E013A3F0802F120A3E9000DC
:100280001AE0B4010A90001CE090002DF080069066
:10029000002D740FF0E490002CF0800E90002BE005
:1002A00024FFF090002AE034FFF0120DD190002DD1
:0A02B000E0FF120588E4FF020DE0F4
:080DD100120A2CC2B0C2B122CB
:10058800EFB410004003020657900598F828287326
:100598000205C80205CE0205D20205DF0205E802FF
:1005A80005EC0205F60205FC02060402060C02062A
:1005B8001802062702062C020638020644020627FD
:1005C800120A4802064AC2B3802CD2B3D2A0C2B4DF
:1005D800D2B2D283020653120A48D2B2C283806BC7
:1005E800C2B38022D2B3C2A0D2B4D2B2801EC2B3E8
:1005F800C2A0800CD2B3D2A0D2B4801AD2B3D2A0F7
:10060800D2B48026D2B3D2A0D2B4C2B2C2838027D9
:10061800C2B3C2A0C2B4C2B2C283C2B0C2B12212B3
:100628000A2C8027D2B3C2A0C2B4D2B2D283800728
:10063800120A48C2B2D283D2B0D2B122D2B3C2A077
:10064800C2B4D2B2D283D2B0C2B122C2B0D2B12225
:060DE00090006EEFF0220E
:100AB100438002E4FF120CB0900012EEF0A3EFF0BD
:100AC100A3E07002A3E06010900015E024FFF09015
:100AD1000014E034FFF08007E4900012F0A3F0C3AB
:100AE100900013E09466900012E09406900031E0CB
:0E0AF10040054401F0800354FEF05380FD22C6
:1004B2004380027F0F120CB090000EE0FD04F0EDBD
:1004C20025E02402F582E43400F583EEF0A3EFF098
:1004D20090000EE0C394054049E4F0900004E0FE71
:1004E200A3E0FF900003E02FFF900002E03EFE90A9
:1004F2000007E02FFF900006E03EFE900009E02F8B
:10050200FF900008E03EFE90000BE02FFF90000AF3
:10051200E03EFE7C007D0512065890000CEEF0A332
:10052200EFF090000CE0FEA3E0FFC3945EEE940AAD
:10053200400C9000017401F090000FF0802CC3EF8A
:10054200946EEE940640099000017401F0E4800E6E
:10055200C3EF945EEE94065011E4900001F0900017
:100562000FF0A37403F0A37484F0900010E0700203
:10057200A3E0600E900011E024FFF0900010E03440
:06058200FFF05380FD2292
:100AFF004380027F0C120CB0900016EEF0A3EFF0C3
:100B0F00D394AEEE9403501CA3E004F0E0C3940A18
:100B1F004017740AF0900030E04480F09000197490
:100B2F000AF08005E4900018F0900019E0600414BA
:0E0B3F00F08007900030E0547FF05380FD22DC
:1007C40053A87F120DD97D0FE4FF120CD2120B4DEA
:1007D40043A880120A4F1208EF120D74E59830E313
:1007E400FB900041E0B401034398027FA07E0F1206
:1007F4000C881204B27F1E7E00120C8812085C530F
:1008040098FD7F547E0B120C887F647E00120C8846
:10081400120AFF1203CD1202BA7FF47E01120C8871
:10082400120DA0E59820E3FB1201A07FE87E0312DD
:100834000C887FDC7E05120C88120AB17FE87E03E7
:10084400120C8812096C53903B12006E7FE87E03F1
:08085400120C88120D40808493
:100A4F00E490001AF0900028F0A37414F0E49000E2
:100A5F001DF0A3F0A3F090002AF0A3F0A3F09000F4
:100A6F001C7404F0E490001BF0900032F090002F03
:100A7F00F090002D740AF0E4900030F0A3F0900095
:100A8F001404F0A3742CF0E4900001F090000FF028
:100A9F00900000F0900048F053807F5380FD53800A
:020AAF00FE2225
:100D74007F1EE490006EF0E59830E3FBE59820E3F5
:070D8400FBEF60031F80F08C
:010D8B002245
:03000000020D5A94
:100D5A0078FFE4F6D8FD9000007F007E09E4F0A356
:0A0D6A00DFFCDEFA7581070207C402
:10065800BC000BBE0029EF8DF084FFADF022E4CC86
:10066800F875F008EF2FFFEE33FEEC33FCEE9DEC4F
:10067800984005FCEE9DFE0FD5F0E9E4CEFD22ED95
:10068800F8F5F0EE8420D21CFEADF075F008EF2FDF
:10069800FFED33FD4007985006D5F0F222C398FDD0
:0506A8000FD5F0EA226D
:1006AD00E88FF0A4CC8BF0A42CFCE98EF0A42CFCEC
:1006BD008AF0EDA42CFCEA8EF0A4CDA8F08BF0A46A
:1006CD002DCC3825F0FDE98FF0A42CCD35F0FCEBC9
:1006DD008EF0A4FEA9F0EB8FF0A4CFC5F02ECD398E
:0F06ED00FEE43CFCEAA42DCE35F0FDE43CFC22FB
:1006FC00EB9FF5F0EA9E42F0E99D42F0E89C45F054
:01070C0022CA
:0C070D00ECF0A3EDF0A3EEF0A3EFF0225F
:00000001FF
