:100A8300438002E4FF120C7A900040EEF0A3EFF0F3
:100A9300A3E07002A3E06010900043E024FFF09015
:100AA3000042E034FFF08007E4900040F0A3F0C37D
:100AB300900041E09466900040E0940690005FE06F
:0E0AC30040054401F0800354FEF05380FD22F4
:100569004380027F0F120C7A90003CE0FD04F0ED0D
:1005790025E02430F582E43400F583EEF0A3EFF0B2
:1005890090003CE0C394054049E4F0900032E0FE5D
:10059900A3E0FF900031E02FFF900030E03EFE9095
:1005A9000035E02FFF900034E03EFE900037E02F49
:1005B900FF900036E03EFE900039E02FFF900038B2
:1005C900E03EFE7C007D0512063890003AEEF0A36D
:1005D900EFF090003AE0FEA3E0FFC3945EEE940AC8
:1005E900400CE490002FF090003D04F08025C3EF0B
:1005F900946EEE940640028009C3EF945EEE940671
:100609005011E490002FF090003DF0A37403F0A383
:100619007484F090003EE07002A3E0600E90003F09
:0F062900E024FFF090003EE034FFF05380FD220C
:100AD1004380027F0C120C7A900044EEF0A3EFF0F9
:100AE100D394AEEE9403501CA3E004F0E0C3940A47
:100AF1004017740AF090005EE04480F09000477463
:100B01000AF08005E4900046F0900047E06004148C
:0E0B1100F0800790005EE0547FF05380FD22DC
:070DA30075C820E4F58A2267
:100C9C00EDC3940F40027D0FEFB40106ED25E0F596
:0C0CAC00D822AF05EF25E04401F5D82266
:100B1F0075A18BE4F5ACF591F5DEF580F5D375D2C3
:100B2F0020F5B1F5ADF592F588F5D575D42A75B9DF
:100B3F00C4F5AEF593F59075D60A75C102F5AFF50C
:100B4F0098F5EE75C901F5A3F594F5A0F5EF75D1FC
:080B5F001FF595F5B0F5FF222A
:100C7A00759D07EF4480F59C439C4000E59CF42059
:100C8A00E4FAE59F540FFEAD9E7C00E42DFFEC3E96
:020C9A00FE2238
:100C5200AC06EC901012F0A3EFF09010107401F0BB
:100C6200A37464F0901010E04480F0901011E0F44E
:080C720020E4F8E054EFF02249
:0A005900EF1F70011E144E70F72215
:10000300190715061F1D1B191715110808070706E1
:1000130006031F0938407080A8C0000000F0021CCE
:100023000348047405A006CC06CC06CC0005090DD4
:100033001115191D1F0002030405060708090666AA
:10004300070A070A0FFF066607AE085108F5099964
:0600530009EB0A8F0B33DC
:100BE900EE25E02400F582E43400F583E0FCA3E07F
:100BF900FDEF25E02400F582E43400F58322F0A31B
:100C0900F0A3F0A3F02290000BE0943390000AE0E7
:0D0C1900940322EEF0A3EFF07F0A7E00228C
:1008C200900051743CF0A3F09000497402F0E4905F
:1008D200005EF0A3F0900014F0900017120C079045
:1008E200001C120C07A3120C07A3F0A3F0A3743C84
:1008F200F090004AE025E0241DF582E43400F583FF
:10090200E493FF740193900027CFF0A3EFF0E490FB
:10091200002CF0A3F0900044120C0790000AF0A300
:10092200F0900011F090000EF0A3F0A3F0900013ED
:0C093200F0900012F090000CF0A3F022F6
:10018800900029E07002A3E0704B90002BE0FFB4D0
:100198000223C390001AE09499900019E094099002
:1001A800002B500280257401F09000297404F0A3FC
:1001B80074B0F08020EFB4011CC390001AE09433AF
:1001C800900019E0940B500890002B7403F0800500
:1001D800E490002BF090004AE025E02447F582E403
:1001E8003400F583E493FE740193FF9000167401C4
:1001F800F0C390001AE09F900019E09E4024E4901C
:10020800002BF0900016F090001AE094D690001998
:10021800E0940F400D90005EE04440F0900022749E
:100228000AF090002BE0C394034006A37415F080F5
:100238000690002C741FF090001FE0700790005E7D
:10024800E054F7F0900020E0700790005EE054EF73
:10025800F0900021E0700790005EE054DFF090001D
:1002680022E0700790005EE054BFF0900048E06420
:1002780001701E900016E0B4011790000CE0B40164
:1002880010900011E0700A90005EE070047F018019
:08029800027F00900014EFF05A
:0102A000223B
:100D0A00E490000DF0900014E0B4010A4380809052
:0A0D1A00000D7401F02253807F22C7
:0F0D6A00900014E0B401044380802253807F2264
:1007A4004380027F0E120C7A90000AEEF0A3EFF061
:1007B400A37401F0A3E0B4011AE4A3F0A3F0D312EC
:1007C4000C0F505E90005EE04402F0900013740A37
:1007D400F0804FC3120C0F401E90000FE004F07025
:1007E4000690000EE004F0E490000CF0900011E09C
:1007F4007013743CF0800EE490000EF0A3F09000AF
:100804005EE054FEF0C390000FE0946890000EE0A8
:100814009410400E7410F0A37468F090005EE044ED
:1008240001F0900013E0700790005EE054FDF05377
:0308340080FD2222
:100BAA00438002E490006FF07F0D120C7A90006F80
:100BBA00E0120BFB120C1C120C5263800290006FA5
:100BCA00E004F0E0C3940540DF5380FD120B679008
:0E0BDA000006E0FFA3E0900017CFF0A3EFF0BD
:010BE80022EA
:10093E00438002E490006DF07F0B120C7A90006DF4
:10094E00E0120BFB120C1C120C5263800290006D15
:10095E00E004F0E0C3940540DF900002E0FEA3E067
:10096E00FF900001E02FFF900000E03EFE9000059A
:10097E00E02FFF900004E03EFE900007E02FFF9076
:10098E000006E03EFE900009E02FFF900008E03EDA
:10099E00FE7C007D05120638900019EEF0A3EFF0F4
:0309AE005380FD76
:0109B1002223
:100B6700E4FFAE07EEC394055032120BE9E0FAA397
:100B7700E0FBD39DEA9C402190006BEAF0A3EBF0E9
:100B8700120BE9ECF0A3EDF090006BE0FCA3E0FDA5
:100B9700EE120BFBECF0A3EDF00E80C80FEF64052F
:020BA70070C01C
:010BA9002229
:100C2600A3F07460901011F09010107481F022FE01
:100C3600FDFCE0F8A3E0F9A3E0FAA3E0FB229000B4
:0C0C460065E0FCA3E0FDA3E0FEA3E022BB
:0A0D910075B42075B20C43B2812244
:0C0D7900EFB4010443AA022253AAFD2299
:0C0D8500EFB4010443AA012253AAFE228D
:100CD400AD07AC06ECF5C5AF058FC475C24075C34E
:0B0CE40081E5C2F420E4FA53C2EF22C5
:100CB800AC06EC901012F0A3EFF07440120C2A90DE
:0C0CC8001011E0F420E4F8E054EFF022FA
:100CEF00EF25E0FFEE33901012F0EF120C2690106C
:0A0CFF0011E0F420E4F8E054EFF0F7
:010D090022C7
:0606F9009000611206ED05
:1006FF00E47F02900061120C3512068D9000651296
:10070F0006ED120C44C3940AFFEE9400020791E425
:10071F00FF900065120C35D31206DC4077E47FFFA3
:10072F007EFFFDFC900065E0F8A3A3A3E0D31206C3
:10073F00DC40067EFF7FFF800A900065A3A3E0FEEA
:10074F00A3E0FF900069EEF0A3EFF0900069E0FCEA
:10075F00A3E0FDEC901012F0ED120C26901011E0BA
:10076F00F420E4F8E054EFF0120C44FFC006C00789
:10077F00A3E0FEA3E0FBAA06D007D006C3EF9BFFC2
:10078F00EE9AFEED9400FDEC9400FC9000651206CD
:04079F00ED02071E42
:0107A3002233
:03006B00020D562D
:100D5600C0E0C083C082900055E06401F0D082D02C
:040D660083D0E03224
:0300630002006632
:02006600003266
:1009B200900058E4F0A3743CF090005B2290004950
:1009C200E025E02417F582E43400F583E493FF7414
:1009D2000193900053CFF0A3EFF0227402F0900045
:1009E2004BE0FFF422E004F0E0C3940222E4F09032
:1009F200004BE022F0900048E0640122C2B3C2A0A2
:100A0200C2B4C2B2C28322E4F090004BE022900052
:0F0A120058E4F0A3743CF022D2B3D2A0D2B422A5
:1002A100E490006DF0A3F0208B3A90004C1209E726
:1002B100403B1209DD30E035EF44011209F6F0E46C
:1002C100900058F0A3F0A3F0900048E0601F1208DE
:1002D100C21209BF9000297404F0A374B0F0A37492
:1002E10002F0800990004C1209EF54FEF0209A248C
:1002F10090004D1209E740251209DD30E11FEF445E
:10030100021209F67017A3E094025003E004F01200
:1003110009BF800990004D1209EF54FDF020862796
:1003210090004E1209E740281209DD30E222EF4425
:1003310004F0900048E0B4011790004AE0C394082B
:10034100500EE004F0800990004E120A0954FBF0AF
:1003510020842390004F1209E740241209DD30E385
:100361001EEF4408F0900048E0B4011390004AE009
:10037100600D14F0800990004F120A0954F7F02023
:1003810085249000501209E740281209DD30E4224B
:10039100EF44101209F6701AA3E0D394004003E071
:1003A10014F01209BF22E4900050F090004BE05489
:0203B100EFF06B
:0103B3002227
:1003B400900051E0600302046F743CF0900011E07F
:1003C400600214F0900013E0600214F090001FE04B
:1003D400600214F0900020E0600214F0900021E02C
:1003E400600214F0900022E0600214F0900047E0F4
:1003F400600214F0900057E06003E014F0900026CF
:10040400E0600214F0900027E07002A3E0600E9018
:100414000028E024FFF0900027E034FFF09000294A
:10042400E07002A3E0600E90002AE024FFF0900048
:1004340029E034FFF0900024E004F07006900023DB
:10044400E004F0900053E07002A3E0600E900054CA
:10045400E024FFF0900053E034FFF0900052E0708D
:1004640005743CF0800B9000528003900051E0141E
:10047400F0900057E0900053E07002A3E060069013
:100484000048E0700FE490005EF0900048F09000A7
:0504940053F0A3F0226B
:10006E0090005AE0FFC3900059E09F900058E09432
:10007E0000401E1209F7701FA3E0FF7004D2928099
:10008E0016EFB40104D296800EEFB4020AD2978016
:10009E000690005B740AF0900058E07002A3E060D6
:1000AE000302016A90005FE06013120A1090005F75
:1000BE00E030E00690005B740DF002013C90005EB3
:1000CE00E0FF607730E0091209B27401F002013CE2
:1000DE00EF30E1091209B27402F002013CEF30E296
:1000EE00081209B27403F08045EF30E3081209B22A
:1000FE007404F08039EF30E4081209B27405F08010
:10010E002DEF30E5081209B27406F08021EF30E6CB
:10011E00081209B27407F08015EF90005830E70806
:10012E001209B57408F080061209B57409F0900032
:10013E0058E0C313A3E013A3F0802F120A1090000F
:10014E0048E0B4010A90004AE090005BF08006900F
:10015E00005B740FF0E490005AF0800E900059E0AE
:10016E0024FFF0900058E034FFF0120D9B90005BDE
:0A017E00E0FF120499E4FF020DAA4D
:080D9B001209FEC2B0C2B12230
:10049900EFB4100040030205689004A9F8282873F6
:1004A9000204D90204DF0204E30204F00204F9029F
:1004B90004FD02050702050D02051502051D0205C9
:1004C9002902053802053D0205490205550205388C
:1004D900120A1A02055BC2B3802CD2B3D2A0C2B4ED
:1004E900D2B2D283020564120A1AD2B2C283806BD5
:1004F900C2B38022D2B3C2A0D2B4D2B2801EC2B3D8
:10050900C2A0800CD2B3D2A0D2B4801AD2B3D2A0E6
:10051900D2B48026D2B3D2A0D2B4C2B2C2838027C9
:10052900C2B3C2A0C2B4C2B2C283C2B0C2B12212A3
:1005390009FE8027D2B3C2A0C2B4D2B2D283800747
:10054900120A1AC2B2D283D2B0D2B122D2B3C2A095
:10055900C2B4D2B2D283D2B0C2B122C2B0D2B12215
:060DAA0090006DEFF02245
:1008370053A87F120DA37D0FE4FF120C9C120B1F10
:1008470043A880120A211208C2120D3EE59830E330
:10085700FB7FC07E12120C521205697F1E7E0012AA
:100867000C521207A47F547E0B120C527F647E0039
:10087700120C52120AD11203B41202A17FF47E01A4
:10088700120C52120D6AE59820E3FB12006E7FE806
:100897007E03120C527FDC7E05120C52120A837FF4
:1008A700E87E03120C5212093E53903B1201887FD7
:0B08B700E87E03120C52120D0A809123
:100A2100E4900048F0900056F0A37414F0E49000B4
:100A31004BF0A3F0A3F0900058F0A3F0A3F09000C6
:100A41004A7404F0E4900049F0900060F090005D79
:100A5100F090005B740AF0E490005EF0A3F0900067
:100A61004204F0A3742CF0E490002FF090003DF0CC
:100A710090002EF0900014F053807F5380FD53803E
:020A8100FE2253
:100D3E007F1EE490006DF0E59830E3FBE59820E32C
:070D4E00FBEF60031F80F0C2
:010D5500227B
:03000000020D24CA
:100D240078FFE4F6D8FD9000007F007E09E4F0A38C
:0A0D3400DFFCDEFA758107020837C4
:10063800BC000BBE0029EF8DF084FFADF022E4CCA6
:10064800F875F008EF2FFFEE33FEEC33FCEE9DEC6F
:10065800984005FCEE9DFE0FD5F0E9E4CEFD22EDB5
:10066800F8F5F0EE8420D21CFEADF075F008EF2FFF
:10067800FFED33FD4007985006D5F0F222C398FDF0
:050688000FD5F0EA228D
:10068D00E88FF0A4CC8BF0A42CFCE98EF0A42CFC0C
:10069D008AF0EDA42CFCEA8EF0A4CDA8F08BF0A48A
:1006AD002DCC3825F0FDE98FF0A42CCD35F0FCEBE9
:1006BD008EF0A4FEA9F0EB8FF0A4CFC5F02ECD39AE
:0F06CD00FEE43CFCEAA42DCE35F0FDE43CFC221B
:1006DC00EB9FF5F0EA9E42F0E99D42F0E89C45F074
:0106EC0022EB
:0C06ED00ECF0A3EDF0A3EEF0A3EFF02280
:00000001FF
