:070F660075C820E4F58A22A2
:100E7E00EDC3940F40027D0FEFB40106ED25E0F5B2
:0C0E8E00D822AF05EF25E04401F5D82282
:100CF90075A18BE4F5ACF591F5DEF580F5D375D2E8
:100D090020F5B1F5ADF592F588F5D575D42A75B903
:100D1900C4F5AEF593F59075D60A75C102F5AFF530
:100D290098F5EE75C901F5A3F594F5A0F5EF75D120
:080D39001FF595F5B0F5FF224E
:100E5C00759D07EF4480F59C439C4000E59CF42075
:100E6C00E4FAE59F540FFEAD9E7C00E42DFFEC3EB2
:020E7C00FE2254
:100E3400AC06EC901012F0A3EFF09010107401F0D7
:100E4400A37464F0901010E04480F0901011E0F46A
:080E540020E4F8E054EFF02265
:0A0F4A00EF1F70011E144E70F72215
:1005FB00190715061E1C1A181614100808070706EB
:10060B0006031F0938407080A8C0000000F0021CD0
:10061B000348047405A006CC06CC06CC0005090DD6
:10062B001115191D1F0002030405060708090666AC
:10063B00070A070A0000000000000001000100018A
:10064B000001010101010101010101110111011160
:10065B000111111111111111111111151115111583
:10066B001115151515151515151515551555155573
:10067B0015555555555555555555557755775577F9
:10068B0055777777777777777777777F777F777FF9
:10069B00777F7F7F7F7F7F7F7F7F7FFF7FFF7FFFE7
:1006AB007FFFFFFFFFFFFFFF0000000000000000C7
:1006BB00000000000000000000A4066607AE085111
:0A06CB0008F5099909EB0A8F0B33BB
:050F6D00420004000039
:100D4100EE25E02406F582E43400F583E0FCA3E01F
:100D5100FDEF25E02406F582E43400F58322F0A3BB
:100D6100F0A3F0A3F022900011E09433900010E082
:100D7100940322E4900015F0A3F022EEF0A3EFF02B
:050D81007F0A7E002244
:100AEB00900057743CF0A3F090004F7402F0E49028
:100AFB000064F0A3F090001BF090001E120D5F90AD
:100B0B000023120D5FA3120D5FA3F0A3F0A3743C9F
:100B1B00F0900050E025E02415F582E43406F583CF
:100B2B00E493FF74019390002ECFF0A3EFF09000AD
:100B3B00337420F0E490004A120D5F900010F0A384
:100B4B00F0900018F0120D75A3F090001AF09000C1
:0B0B5B0019F0900012F0A3F0A3F022AC
:10006E00900030E07002A3E0704B900032E0FFB4DD
:10007E000223C3900021E09499900020E09409900F
:10008E000032500280257401F09000307404F0A309
:10009E0074B0F08020EFB4011CC3900021E09433C3
:1000AE00900020E0940B50089000327403F080050D
:1000BE00E4900032F0900050E025E024C3F582E495
:1000CE003406F583E493FE740193FF90001D7401D2
:1000DE00F0C3900021E09F900020E09E4024E49029
:1000EE000032F090001DF0900021E094D690002098
:1000FE00E0940F400D900064E04440F090002974AD
:10010E000AF0900032E0C394034013900035E09063
:10011E00003370057414F080167405F08011900091
:10012E0035E090003370057420F080037408F09071
:10013E000026E07007900064E054F7F0900027E08E
:10014E007007900064E054EFF0900028E070079084
:10015E000064E054DFF0900029E07007900064E046
:10016E0054BFF0900004E07002A3E0701A900033C8
:10017E00E025E025E0243FF582E43406F583120500
:10018E00DF9000001205EF90004EE06401702B909E
:10019E000000A3A3A3E05401FFEF601E90001DE03A
:1001AE00B40117900012E0B40110900018E0700A2C
:1001BE00900064E070047F0180027F0090001BEFCE
:1001CE00F0900000E0FCA3E0FDA3E0FEA3E0FF78CA
:1001DE00011205CC9000001205EF900005E004F02E
:1001EE007006900004E004F0C3900005E0942090A7
:0D01FE000004E0648094804004E4F0A3F06D
:01020B0022D0
:100EEC00E4900013F090001BE0B4010A4380809062
:0A0EFC0000137401F02253807F22DE
:0F00510090001BE0B401044380802253807F2283
:100A58004380027F0E120E5C900010EEF0A3EFF0C0
:100A6800A37401F0A3E0B40118120D74D3120D673A
:100A78005060900064E04402F090001A740AF0801C
:100A880051C3120D67401E900016E004F0700690E6
:100A98000015E004F0E4900012F0900018E0700FE8
:100AA800743CF0800A120D74900064E054FEF0C3A8
:100AB800900016E09468900015E0941040147410AB
:100AC800F0A37468F09000147401F0900064E0449E
:100AD80001F090001AE07007900064E054FDF053B4
:030AE80080FD226C
:100DC900438002E4900073F07F0D120E5C90007373
:100DD900E0120D53120D7C120E34638002900073E1
:100DE900E004F0E0C3940540DF5380FD120D8690C6
:0E0DF900000CE0FFA3E090001ECFF0A3EFF08F
:010E070022C8
:100B6600438002E4900074F07F0B120E5C900074D8
:100B7600E0120D53120D7C120E3463800290007445
:100B8600E004F0E0C3940540DF900008E0FEA3E037
:100B9600FF900007E02FFF900006E03EFE90000B5E
:100BA600E02FFF90000AE03EFE90000DE02FFF9040
:100BB600000CE03EFE90000FE02FFF90000EE03E9E
:100BC600FE7C007D05120517900020EEF0A3EFF0E5
:030BD6005380FD4C
:010BD90022F9
:100D8600E4FFAE07EEC394055032120D41E0FAA31C
:100D9600E0FBD39DEA9C4021900071EAF0A3EBF0C2
:100DA600120D41ECF0A3EDF0900071E0FCA3E0FD24
:100DB600EE120D53ECF0A3EDF00E80C80FEF6405B4
:020DC60070C0FB
:010DC8002208
:100E0800A3F07460901011F09010107481F022FE1D
:100E1800FDFCE0F8A3E0F9A3E0FAA3E0FB229000D0
:0C0E28006BE0FCA3E0FDA3E0FEA3E022D1
:0A0F540075B42075B20C43B281227F
:0C0F3200EFB4010443AA022253AAFD22DE
:0C0F3E00EFB4010443AA012253AAFE22D2
:100EB600AD07AC06ECF5C5AF058FC475C24075C36A
:0B0EC60081E5C2F420E4FA53C2EF22E1
:100E9A00AC06EC901012F0A3EFF07440120E0C9016
:0C0EAA001011E0F420E4F8E054EFF02216
:100ED100EF25E0FFEE33901012F0EF120E089010A4
:0A0EE10011E0F420E4F8E054EFF013
:010EEB0022E4
:06087B009000671205EF7A
:10088100E47F02900067120E1712056C90006B1244
:1008910005EF120E26C3940AFFEE9400020913E439
:1008A100FF90006B120E17D31205BB4077E47FFF58
:1008B1007EFFFDFC90006BE0F8A3A3A3E0D312053B
:1008C100BB40067EFF7FFF800A90006BA3A3E0FE82
:1008D100A3E0FF90006FEEF0A3EFF090006FE0FC5B
:1008E100A3E0FDEC901012F0ED120E08901011E053
:1008F100F420E4F8E054EFF0120E26FFC006C00722
:10090100A3E0FEA3E0FBAA06D007D006C3EF9BFF3E
:10091100EE9AFEED9400FDEC9400FC90006B120544
:04092100EF0208A039
:0109250022AF
:03006B00020F1E63
:100F1E00C0E0C083C08290005BE06401F0D082D05C
:040F2E0083D0E0325A
:0300630002006038
:0200600000326C
:100BDA0090005EE4F0A3743CF09000612290004F14
:100BEA00E025E0240FF582E43406F583E493FF74EC
:100BFA000193900059CFF0A3EFF0227402F0900015
:100C0A0051E0FFF422E004F0E0C3940222E4F09001
:100C1A000051E022F090004EE0640122C2B3C2A06B
:100C2A00C2B4C2B2C28322E4F0900051E022900022
:0F0C3A005EE4F0A3743CF022D2B3D2A0D2B42275
:10032600208B3A900052120C0F403B120C0530E025
:1003360035EF4401120C1EF0E490005EF0A3F0A32A
:10034600F090004EE0601F120AEB120BE7900030AF
:100356007404F0A374B0F0A37402F0800990005204
:10036600120C1754FEF0209A24900053120C0F40E2
:1003760025120C0530E11FEF4402120C1E7017A364
:10038600E094025003E004F0120BE780099000535A
:10039600120C1754FDF0208627900054120C0F40C3
:1003A60028120C0530E222EF4404F090004EE0B42F
:1003B6000117900050E0C39408500EE004F0800945
:1003C600900054120C3154FBF020842390005512F7
:1003D6000C0F4024120C0530E31EEF4408F0900089
:1003E6004EE0B40113900050E0600D14F0800990C7
:1003F6000055120C3154F7F0208524900056120C4B
:100406000F4028120C0530E422EF4410120C1E7027
:100416001AA3E0D394004003E014F0120BE722E4A1
:0C042600900056F0900051E054EFF022DE
:10043200900057E060030204ED743CF0900018E075
:10044200600214F090001AE0600214F0900026E0BE
:10045200600214F0900027E0600214F0900028E09F
:10046200600214F0900029E0600214F090004DE068
:10047200600214F090005DE06003E014F090002D43
:10048200E0600214F090002EE07002A3E0600E9093
:10049200002FE024FFF090002EE034FFF0900030B7
:1004A200E07002A3E0600E900031E024FFF09000C3
:1004B20030E034FFF090002BE004F0700690002A48
:1004C200E004F0900059E07002A3E0600E90005A40
:1004D200E024FFF0900059E034FFF0900058E07003
:1004E20005743CF0800B9000588003900057E01494
:1004F200F090005DE0900059E07002A3E060069089
:10050200004EE0700FE4900064F090004EF0900016
:0505120059F0A3F022E6
:10020C00900060E0FFC390005FE09F90005EE09480
:10021C0000401E120C1F701FA3E0FF7004D29280CE
:10022C0016EFB40104D296800EEFB4020AD2978076
:10023C0006900061740AF090005EE07002A3E0602A
:10024C0003020308900065E06013120C38900065FF
:10025C00E030E006900061740DF00202DA90006468
:10026C00E0FF607730E009120BDA7401F00202DA79
:10027C00EF30E109120BDA7402F00202DAEF30E22D
:10028C0008120BDA7403F08045EF30E308120BDA36
:10029C007404F08039EF30E408120BDA7405F08046
:1002AC002DEF30E508120BDA7406F08021EF30E602
:1002BC0008120BDA7407F08015EF90005E30E70837
:1002CC00120BDD7408F08006120BDD7409F090003F
:1002DC005EE0C313A3E013A3F0802F120C38900040
:1002EC004EE0B4010A900050E0900061F08006905E
:1002FC000061740FF0E4900060F0800E90005FE0FD
:10030C0024FFF090005EE034FFF0120F5E9000616D
:0A031C00E0FF1207ABE4FF020F73CD
:080F5E00120C26C2B0C2B12240
:1007AB00EFB41000400302087A9007BBF8282873B7
:1007BB000207EB0207F10207F502080202080B021F
:1007CB00080F02081902081F02082702082F020847
:1007DB003B02084A02084F02085B02086702084AFC
:1007EB00120C4202086DC2B3802CD2B3D2A0C2B499
:1007FB00D2B2D283020876120C42D2B2C283806B81
:10080B00C2B38022D2B3C2A0D2B4D2B2801EC2B3C2
:10081B00C2A0800CD2B3D2A0D2B4801AD2B3D2A0D1
:10082B00D2B48026D2B3D2A0D2B4C2B2C2838027B4
:10083B00C2B3C2A0C2B4C2B2C283C2B0C2B122128E
:10084B000C268027D2B3C2A0C2B4D2B2D283800707
:10085B00120C42C2B2D283D2B0D2B122D2B3C2A056
:10086B00C2B4D2B2D283D2B0C2B122C2B0D2B12200
:060F7300900074EFF02273
:10000300438002E4FF120E5C900046EEF0A3EFF093
:10001300A3E07002A3E06010900049E024FFF09099
:100023000048E034FFF08007E4900046F0A3F0C3FB
:10003300900047E09466900046E09406900065E0E7
:0E00430040054401F0800354FEF05380FD227E
:1006D5004380027F0F120E5C900042E0FD04F0EDB6
:1006E50025E02436F582E43400F583EEF0A3EFF03F
:1006F500900042E0C394054049E4F0900038E0FEE4
:10070500A3E0FF900037E02FFF900036E03EFE901B
:10071500003BE02FFF90003AE03EFE90003DE02FC9
:10072500FF90003CE03EFE90003FE02FFF90003E32
:10073500E03EFE7C007D05120517900040EEF0A31B
:10074500EFF0900040E0FEA3E0FFC3945EEE940A54
:10075500400C9000357401F0900043F0802CC3EFFD
:10076500946EEE940640099000357401F0E4800E15
:10077500C3EF945EEE94065011E4900035F09000BE
:1007850043F0A37403F0A37484F0900044E0700276
:10079500A3E0600E900045E024FFF0900044E034B3
:0607A500FFF05380FD226D
:100CAB004380027F0C120E5C90004AEEF0A3EFF033
:100CBB00D394AEEE9403501CA3E004F0E0C3940A6B
:100CCB004017740AF0900064E04480F090004D747B
:100CDB000AF08005E490004CF090004DE0600414A5
:0E0CEB00F08007900064E0547FF05380FD22FB
:1009C00053A87F120F667D0FE4FF120E7E120CF902
:1009D00043A880120C49120AEB120F06E59830E387
:1009E000FB900014E0B401034398027FA07E0F1235
:1009F0000E341206D57F1E7E00120E34120A585392
:100A000098FD7F547E0B120E347F647E00120E34EC
:100A1000120CAB1204321203267FF47E01120E3444
:100A2000120051E59820E3FB12020C7FE87E0312CE
:100A30000E347FDC7E05120E341200037FE87E0345
:100A4000120E34120B6653903B12006E7FE87E0349
:080A5000120E34120EEC80843A
:100C4900E490004EF090005CF0A37414F0E490007E
:100C590051F0A3F0A3F090005EF0A3F0A3F0900090
:100C6900507404F0E490004FF0900066F090006337
:100C7900F0900061740AF0E4900064F0A3F0900031
:100C89004804F0A3742CF0E4900035F0900043F090
:100C9900900034F090001BF053807F5380FD538007
:020CA900FE2229
:100F06007F1EE4900074F0E59830E3FBE59820E35B
:070F1600FBEF60031F80F0F8
:010F1D0022B1
:03000000020926CC
:1009260078FFE4F6D8FD9000007F007E09E4F0A38E
:0A093600DFFCDEFA75810702097B81
:100940000209C0E493A3F8E493A34003F68001F204
:1009500008DFF48029E493A3F85407240CC8C333B8
:10096000C4540F4420C8834004F456800146F6DF87
:10097000E4800B0102040810204080900F6DE47E9B
:10098000019360BCA3FF543F30E509541FFEE4937C
:10099000A360010ECF54C025E060A840B8E493A343
:1009A000FAE493A3F8E493A3C8C582C8CAC583CA6E
:1009B000F0A3C8C582C8CAC583CADFE9DEE780BE26
:010F7200007E
:10051700BC000BBE0029EF8DF084FFADF022E4CCC8
:10052700F875F008EF2FFFEE33FEEC33FCEE9DEC91
:10053700984005FCEE9DFE0FD5F0E9E4CEFD22EDD7
:10054700F8F5F0EE8420D21CFEADF075F008EF2F21
:10055700FFED33FD4007985006D5F0F222C398FD12
:050567000FD5F0EA22AF
:10056C00E88FF0A4CC8BF0A42CFCE98EF0A42CFC2E
:10057C008AF0EDA42CFCEA8EF0A4CDA8F08BF0A4AC
:10058C002DCC3825F0FDE98FF0A42CCD35F0FCEB0B
:10059C008EF0A4FEA9F0EB8FF0A4CFC5F02ECD39D0
:0F05AC00FEE43CFCEAA42DCE35F0FDE43CFC223D
:1005BB00EB9FF5F0EA9E42F0E99D42F0E89C45F096
:0105CB00220D
:1005CC00E8600FECC313FCED13FDEE13FEEF13FF0D
:0305DC00D8F12231
:1005DF00E493FC740193FD740293FE740393FF2262
:0C05EF00ECF0A3EDF0A3EEF0A3EFF0227F
:00000001FF
