:070EB10075C820E4F58A2258
:100DAF00EDC3940F40027D0FEFB40106ED25E0F582
:0C0DBF00D822AF05EF25E04401F5D82252
:100C2A0075A18BE4F5ACF591F5DEF580F5D375D2B7
:100C3A0020F5B1F5ADF592F588F5D575D42A75B9D3
:100C4A00C4F5AEF593F59075D60A75C102F5AFF500
:100C5A0098F5EE75C901F5A3F594F5A0F5EF75D1F0
:080C6A001FF595F5B0F5FF221E
:100D8D00759D07EF4480F59C439C4000E59CF42045
:100D9D00E4FAE59F540FFEAD9E7C00E42DFFEC3E82
:020DAD00FE2224
:100D6500AC06EC901012F0A3EFF09010107401F0A7
:100D7500A37464F0901010E04480F0901011E0F43A
:080D850020E4F8E054EFF02235
:0A0E9500EF1F70011E144E70F722CB
:1004FD00190715061E1C1A181614100808070706EA
:10050D0006031F0938407080A8C0000000F0021CCF
:10051D000348047405A006CC06CC06CC0005090DD5
:10052D001115191D1F0002030405060708090666AB
:10053D00070A070A00000000000000010001000189
:10054D00000101010101010101010111011101115F
:10055D000111111111111111111111151115111582
:10056D001115151515151515151515551555155572
:10057D001555555555555555555555575557555758
:10058D005557575757575757575757775777577790
:10059D0057777777777777777777777F777F777FE6
:1005AD00777F7F7F7F7F7F7F7F7F7FFF7FFF7FFFD6
:1005BD007FFFFFFFFFFFFFFF00A4066607AE085198
:0A05CD0008F5099909EB0A8F0B33BA
:100C7200EE25E02433F582E43400F583E0FCA3E0C2
:100C8200FDEF25E02433F582E43400F58322F0A35E
:100C9200F0A3F0A3F02290003EE0943390003DE0F8
:100CA200940322E4900042F0A3F022EEF0A3EFF0CE
:050CB2007F0A7E002214
:100A1400900023743CF0A3F090001B7402F0E49067
:100A24000030F0A3F0900048F090004B120C90902E
:100A34000050120C90A3120C90A3F0A3F0A3743CEA
:100A4400F090001CE025E02417F582E43405F583DA
:100A5400E493FF74019390005BCFF0A3EFF0900058
:100A6400607420F0E4A3F0A3F0A304F0E490001673
:100A7400120C9090003DF0A3F0900045F0120CA6EB
:100A8400A3F0900047F0900046F090003FF0A3F0F0
:030A9400A3F022AA
:10006E0090005DE07002A3E0704B90005FE0FFB483
:10007E000223C390004EE0949990004DE0940990B5
:10008E00005F500280257401F090005D7404F0A3AF
:10009E0074B0F08020EFB4011CC390004EE0943396
:1000AE0090004DE0940B500890005F7403F08005B3
:1000BE00E490005FF090001CE025E024C5F582E49A
:1000CE003405F583E493FE740193FF90004A7401A6
:1000DE00F0C390004EE09F90004DE09E4024E490CF
:1000EE00005FF090004AF090004EE094D690004DE4
:1000FE00E0940F400D900030E04440F090005674B4
:10010E000AF090005FE0C394034013900001E0906A
:10011E00006070057414F080167405F08011900064
:10012E0001E090006070057420F080037408F09078
:10013E000053E07007900030E054F7F0900054E068
:10014E007007900030E054EFF0900055E07007908B
:10015E000030E054DFF0900056E07007900030E081
:10016E0054BFF090001AE06401704C900030E070C3
:10017E004690004AE06401703E90003FE0640170DA
:10018E0036900045E07030900061E0FF900060E036
:10019E0025E025E02441F582E43405F583E5822F40
:1001AE00F582E43583F583E493FF900063E0FEEF80
:1001BE005E60047F0180027F00900048EFF09000A7
:1001CE0063E025E0F0900062E004F0E0C3940840A4
:1001DE0012E4F0A304F0900061E004F0E094044017
:0301EE0002E4F038
:0101F10022EB
:100E1D00E4900040F0900048E0B4010A43808090D7
:0A0E2D0000407401F02253807F2280
:0F005100900048E0B401044380802253807F2256
:100981004380027F0E120D8D90003DEEF0A3EFF03B
:10099100A37401F0A3E0B40118120CA5D3120C98B2
:1009A1005060900030E04402F0900047740AF080FB
:1009B10051C3120C98401E900043E004F070069061
:1009C1000042E004F0E490003FF0900045E0700F39
:1009D100743CF0800A120CA5900030E054FEF0C384
:1009E100900043E09468900042E094104014741029
:1009F100F0A37468F09000417401F0900030E0447D
:100A010001F0900047E07007900030E054FDF05392
:030A110080FD2243
:100CFA00438002E4900070F07F0D120D8D90007019
:100D0A00E0120C84120CAD120D6563800290007023
:100D1A00E004F0E0C3940540DF5380FD120CB79065
:0E0D2A000039E0FFA3E090004BCFF0A3EFF004
:010D38002298
:100A9700438002E4900071F07F0B120D8D9000717E
:100AA700E0120C84120CAD120D6563800290007188
:100AB700E004F0E0C3940540DF900035E0FEA3E0DA
:100AC700FF900034E02FFF900033E03EFE900038A7
:100AD700E02FFF900037E03EFE90003AE02FFF90B6
:100AE7000039E03EFE90003CE02FFF90003BE03EE7
:100AF700FE7C007D0512077D90004DEEF0A3EFF020
:030B07005380FD1B
:010B0A0022C8
:100CB700E4FFAE07EEC394055032120C72E0FAA3BC
:100CC700E0FBD39DEA9C402190006EEAF0A3EBF095
:100CD700120C72ECF0A3EDF090006EE0FCA3E0FDC7
:100CE700EE120C84ECF0A3EDF00E80C80FEF640554
:020CF70070C0CB
:010CF90022D8
:100D3900A3F07460901011F09010107481F022FEED
:100D4900FDFCE0F8A3E0F9A3E0FAA3E0FB229000A0
:0C0D590068E0FCA3E0FDA3E0FEA3E022A4
:0A0E9F0075B42075B20C43B2812235
:0C0E7D00EFB4010443AA022253AAFD2294
:0C0E8900EFB4010443AA012253AAFE2288
:100DE700AD07AC06ECF5C5AF058FC475C24075C33A
:0B0DF70081E5C2F420E4FA53C2EF22B1
:100DCB00AC06EC901012F0A3EFF07440120D3D90B6
:0C0DDB001011E0F420E4F8E054EFF022E6
:100E0200EF25E0FFEE33901012F0EF120D39901043
:0A0E120011E0F420E4F8E054EFF0E2
:010E1C0022B3
:06083E0090006412083274
:10084400E47F02900064120D481207D290006812EF
:100854000832120D57C3940AFFEE94000208D6E43E
:10086400FF900068120D48D31208214077E47FFFFF
:100874007EFFFDFC900068E0F8A3A3A3E0D3120878
:100884002140067EFF7FFF800A900068A3A3E0FE5C
:10089400A3E0FF90006CEEF0A3EFF090006CE0FC9E
:1008A400A3E0FDEC901012F0ED120D39901011E060
:1008B400F420E4F8E054EFF0120D57FFC006C0072F
:1008C400A3E0FEA3E0FBAA06D007D006C3EF9BFF7C
:1008D400EE9AFEED9400FDEC9400FC900068120882
:0408E4003202086371
:0108E80022ED
:03006B00020E6919
:100E6900C0E0C083C082900027E06401F0D082D046
:040E790083D0E03210
:0300630002006038
:0200600000326C
:100B0B0090002AE4F0A3743CF090002D2290001B7F
:100B1B00E025E02411F582E43405F583E493FF74BA
:100B2B000193900025CFF0A3EFF0227402F0900018
:100B3B001DE0FFF422E004F0E0C3940222E4F09005
:100B4B00001DE022F090001AE0640122C2B3C2A0A3
:100B5B00C2B4C2B2C28322E4F090001DE022900026
:0F0B6B002AE4F0A3743CF022D2B3D2A0D2B42279
:10030C00208B3A90001E120B40403B120B3630E013
:10031C0035EF4401120B4FF0E490002AF0A3F0A348
:10032C00F090001AE0601F120A14120B1890005D76
:10033C007404F0A374B0F0A37402F0800990001E52
:10034C00120B4854FEF0209A2490001F120B4040D0
:10035C0025120B3630E11FEF4402120B4F7017A31E
:10036C00E094025003E004F0120B18800990001F77
:10037C00120B4854FDF0208627900020120B4040B1
:10038C0028120B3630E222EF4404F090001AE0B44D
:10039C00011790001CE0C39408500EE004F0800993
:1003AC00900020120B6254FBF02084239000211249
:1003BC000B404024120B3630E31EEF4408F0900043
:1003CC001AE0B4011390001CE0600D14F080099049
:1003DC000021120B6254F7F0208524900022120B9E
:1003EC00404028120B3630E422EF4410120B4F70B1
:1003FC001AA3E0D394004003E014F0120B1822E48B
:0C040C00900022F090001DE054EFF02260
:10041800900023E060030204D3743CF0900045E0B0
:10042800600214F0900047E0600214F0900053E07E
:10043800600214F0900054E0600214F0900055E05F
:10044800600214F0900056E0600214F0900019E089
:10045800600214F0900029E06003E014F090005A64
:10046800E0600214F090005BE07002A3E0600E9080
:10047800005CE024FFF090005BE034FFF090005D4A
:10048800E07002A3E0600E90005EE024FFF09000B0
:100498005DE034FFF0900058E004F07006900057DB
:1004A800E004F0900025E07002A3E0600E900026C2
:1004B800E024FFF0900025E034FFF0900024E07085
:1004C80005743CF0800B9000248003900023E01416
:1004D800F0900029E0900025E07002A3E06006900B
:1004E800001AE0700FE4900030F090001AF09000CD
:0504F80025F0A3F02235
:1001F20090002CE0FFC390002BE09F90002AE09437
:1002020000401E120B50701FA3E0FF7004D29280B8
:1002120016EFB40104D296800EEFB4020AD2978090
:100222000690002D740AF090002AE07002A3E060AC
:10023200030202EE900031E06013120B699000316C
:10024200E030E00690002D740DF00202C090003004
:10025200E0FF607730E009120B0B7401F00202C07C
:10026200EF30E109120B0B7402F00202C0EF30E230
:1002720008120B0B7403F08045EF30E308120B0BEE
:100282007404F08039EF30E408120B0B7405F0802F
:100292002DEF30E508120B0B7406F08021EF30E6EB
:1002A20008120B0B7407F08015EF90002A30E70854
:1002B200120B0E7408F08006120B0E7409F09000F7
:1002C2002AE0C313A3E013A3F0802F120B6990005E
:1002D2001AE0B4010A90001CE090002DF080069014
:1002E200002D740FF0E490002CF0800E90002BE0B3
:1002F20024FFF090002AE034FFF0120EA990002DA6
:0A030200E0FF1206ADE4FF020EB8A2
:080EA900120B57C2B0C2B122C6
:1006AD00EFB41000400302077C9006BDF8282873B4
:1006BD000206ED0206F30206F702070402070D0219
:1006CD00071102071B020721020729020731020742
:1006DD003D02074C02075102075D02076902074CF4
:1006ED00120B7302076FC2B3802CD2B3D2A0C2B467
:1006FD00D2B2D283020778120B73D2B2C283806B4F
:10070D00C2B38022D2B3C2A0D2B4D2B2801EC2B3C1
:10071D00C2A0800CD2B3D2A0D2B4801AD2B3D2A0D0
:10072D00D2B48026D2B3D2A0D2B4C2B2C2838027B3
:10073D00C2B3C2A0C2B4C2B2C283C2B0C2B122128D
:10074D000B578027D2B3C2A0C2B4D2B2D2838007D6
:10075D00120B73C2B2D283D2B0D2B122D2B3C2A025
:10076D00C2B4D2B2D283D2B0C2B122C2B0D2B122FF
:060EB800900071EFF02232
:10000300438002E4FF120D8D900012EEF0A3EFF097
:10001300A3E07002A3E06010900015E024FFF090CD
:100023000014E034FFF08007E4900012F0A3F0C363
:10003300900013E09466900012E09406900031E083
:0E00430040054401F0800354FEF05380FD227E
:1005D7004380027F0F120D8D90000EE0FD04F0EDB9
:1005E70025E02402F582E43400F583EEF0A3EFF072
:1005F70090000EE0C394054049E4F0900004E0FE4B
:10060700A3E0FF900003E02FFF900002E03EFE9082
:100617000007E02FFF900006E03EFE900009E02F64
:10062700FF900008E03EFE90000BE02FFF90000ACD
:10063700E03EFE7C007D0512077D90000CEEF0A3E6
:10064700EFF090000CE0FEA3E0FFC3945EEE940A87
:10065700400C9000017401F090000FF0802CC3EF64
:10066700946EEE940640099000017401F0E4800E48
:10067700C3EF945EEE94065011E4900001F09000F1
:100687000FF0A37403F0A37484F0900010E07002DD
:10069700A3E0600E900011E024FFF0900010E0341A
:0606A700FFF05380FD226C
:100BDC004380027F0C120D8D900016EEF0A3EFF007
:100BEC00D394AEEE9403501CA3E004F0E0C3940A3B
:100BFC004017740AF0900030E04480F090001974B3
:100C0C000AF08005E4900018F0900019E0600414DC
:0E0C1C00F08007900030E0547FF05380FD22FE
:1008E90053A87F120EB17D0FE4FF120DAF120C2A2F
:1008F90043A880120B7A120A14120E51E59830E3BC
:10090900FB900041E0B401034398027FA07E0F12DF
:100919000D651205D77F1E7E00120D6512098153E0
:1009290098FD7F547E0B120D657F647E00120D6564
:10093900120BDC12041812030C7FF47E01120D65F0
:10094900120051E59820E3FB1201F27FE87E0312C1
:100959000D657FDC7E05120D651200037FE87E03BD
:10096900120D65120A9753903B12006E7FE87E03C1
:08097900120D65120E1D8084B1
:100B7A00E490001AF0900028F0A37414F0E49000B6
:100B8A001DF0A3F0A3F090002AF0A3F0A3F09000C8
:100B9A001C7404F0E490001BF0900032F090002FD7
:100BAA00F090002D740AF0E4900030F0A3F0900069
:100BBA001404F0A3742CF0E4900001F090000FF0FC
:100BCA00900000F0900048F053807F5380FD5380DE
:020BDA00FE22F9
:100E51007F1EE4900071F0E59830E3FBE59820E314
:070E6100FBEF60031F80F0AE
:010E68002267
:03000000020E37B6
:100E370078FFE4F6D8FD9000007F007E09E4F0A378
:0A0E4700DFFCDEFA7581070208E9FE
:10077D00BC000BBE0029EF8DF084FFADF022E4CC60
:10078D00F875F008EF2FFFEE33FEEC33FCEE9DEC29
:10079D00984005FCEE9DFE0FD5F0E9E4CEFD22ED6F
:1007AD00F8F5F0EE8420D21CFEADF075F008EF2FB9
:1007BD00FFED33FD4007985006D5F0F222C398FDAA
:0507CD000FD5F0EA2247
:1007D200E88FF0A4CC8BF0A42CFCE98EF0A42CFCC6
:1007E2008AF0EDA42CFCEA8EF0A4CDA8F08BF0A444
:1007F2002DCC3825F0FDE98FF0A42CCD35F0FCEBA3
:100802008EF0A4FEA9F0EB8FF0A4CFC5F02ECD3967
:0F081200FEE43CFCEAA42DCE35F0FDE43CFC22D4
:10082100EB9FF5F0EA9E42F0E99D42F0E89C45F02D
:0108310022A4
:0C083200ECF0A3EDF0A3EEF0A3EFF02239
:00000001FF
