:070F510075C820E4F58A22B7
:100E6900EDC3940F40027D0FEFB40106ED25E0F5C7
:0C0E7900D822AF05EF25E04401F5D82297
:100CE40075A18BE4F5ACF591F5DEF580F5D375D2FD
:100CF40020F5B1F5ADF592F588F5D575D42A75B919
:100D0400C4F5AEF593F59075D60A75C102F5AFF545
:100D140098F5EE75C901F5A3F594F5A0F5EF75D135
:080D24001FF595F5B0F5FF2263
:100E4700759D07EF4480F59C439C4000E59CF4208A
:100E5700E4FAE59F540FFEAD9E7C00E42DFFEC3EC7
:020E6700FE2269
:100E1F00AC06EC901012F0A3EFF09010107401F0EC
:100E2F00A37464F0901010E04480F0901011E0F47F
:080E3F0020E4F8E054EFF0227A
:0A0F3500EF1F70011E144E70F7222A
:1005E600190715061E1C1A18161410080807070600
:1005F60006031F0938407080A8C0000000F0021CE6
:100606000348047405A006CC06CC06CC0005090DEB
:100616001115191D1F0002030405060708090666C1
:10062600070A070A0000000000000001000100019F
:100636000001010101010101010101110111011175
:100646000111111111111111111111151115111598
:100656001115151515151515151515551555155588
:10066600155555555555555555555577557755770E
:1006760055777777777777777777777F777F777F0E
:10068600777F7F7F7F7F7F7F7F7F7FFF7FFF7FFFFC
:100696007FFFFFFFFFFFFFFF0000000000000000DC
:1006A600000000000000000000A4066607AE085126
:0A06B60008F5099909EB0A8F0B33D0
:050F580042000400004E
:100D2C00EE25E02406F582E43400F583E0FCA3E034
:100D3C00FDEF25E02406F582E43400F58322F0A3D0
:100D4C00F0A3F0A3F022900011E09433900010E097
:100D5C00940322E4900015F0A3F022EEF0A3EFF040
:050D6C007F0A7E002259
:100AD600900057743CF0A3F090004F7402F0E4903D
:100AE6000064F0A3F090001BF090001E120D4A90D7
:100AF6000023120D4AA3120D4AA3F0A3F0A3743CDF
:100B0600F0900050E025E02400F582E43406F583F9
:100B1600E493FF74019390002ECFF0A3EFF09000C2
:100B2600337420F0E490004A120D4A900010F0A3AE
:100B3600F0900018F0120D60A3F090001AF09000EB
:0B0B460019F0900012F0A3F0A3F022C1
:10006E00900030E07002A3E0704B900032E0FFB4DD
:10007E000223C3900021E09499900020E09409900F
:10008E000032500280257401F09000307404F0A309
:10009E0074B0F08020EFB4011CC3900021E09433C3
:1000AE00900020E0940B50089000327403F080050D
:1000BE00E4900032F0900050E025E024AEF582E4AA
:1000CE003406F583E493FE740193FF90001D7401D2
:1000DE00F0C3900021E09F900020E09E4024E49029
:1000EE000032F090001DF0900021E094D690002098
:1000FE00E0940F400D900064E04440F090002974AD
:10010E000AF0900032E0C394034013900035E09063
:10011E00003370057414F080167405F08011900091
:10012E0035E090003370057420F080037408F09071
:10013E000026E07007900064E054F7F0900027E08E
:10014E007007900064E054EFF0900028E070079084
:10015E000064E054DFF0900029E07007900064E046
:10016E0054BFF09000337420F0900004E07002A3AE
:10017E00E0701A900033E025E025E0242AF582E4B1
:10018E003406F5831205CA9000001205DA90004E6F
:10019E00E0B40111900000A3A3A3E05401FFEF60AF
:1001AE00047F0180027F0090001BEFF0900000E0C2
:1001BE00FCA3E0FDA3E0FEA3E0FF78011205B790DB
:1001CE0000001205DA900005E004F07006900004BD
:1001DE00E004F0C3900005E09420900004E06480F9
:0801EE0094804004E4F0A3F04A
:0101F60022E6
:100ED700E4900013F090001BE0B4010A4380809077
:0A0EE70000137401F02253807F22F3
:0F00510090001BE0B401044380802253807F2283
:100A43004380027F0E120E47900010EEF0A3EFF0EA
:100A5300A37401F0A3E0B40118120D5FD3120D5279
:100A63005060900064E04402F090001A740AF08031
:100A730051C3120D52401E900016E004F070069010
:100A83000015E004F0E4900012F0900018E0700FFD
:100A9300743CF0800A120D5F900064E054FEF0C3D2
:100AA300900016E09468900015E0941040147410C0
:100AB300F0A37468F09000147401F0900064E044B3
:100AC30001F090001AE07007900064E054FDF053C9
:030AD30080FD2281
:100DB400438002E4900073F07F0D120E479000739D
:100DC400E0120D3E120D67120E1F63800290007335
:100DD400E004F0E0C3940540DF5380FD120D7190F0
:0E0DE400000CE0FFA3E090001ECFF0A3EFF0A4
:010DF20022DE
:100B5100438002E4900074F07F0B120E4790007402
:100B6100E0120D3E120D67120E1F63800290007499
:100B7100E004F0E0C3940540DF900008E0FEA3E04C
:100B8100FF900007E02FFF900006E03EFE90000B73
:100B9100E02FFF90000AE03EFE90000DE02FFF9055
:100BA100000CE03EFE90000FE02FFF90000EE03EB3
:100BB100FE7C007D05120502900020EEF0A3EFF00F
:030BC1005380FD61
:010BC400220E
:100D7100E4FFAE07EEC394055032120D2CE0FAA346
:100D8100E0FBD39DEA9C4021900071EAF0A3EBF0D7
:100D9100120D2CECF0A3EDF0900071E0FCA3E0FD4E
:100DA100EE120D3EECF0A3EDF00E80C80FEF6405DE
:020DB10070C010
:010DB300221D
:100DF300A3F07460901011F09010107481F022FE33
:100E0300FDFCE0F8A3E0F9A3E0FAA3E0FB229000E5
:0C0E13006BE0FCA3E0FDA3E0FEA3E022E6
:0A0F3F0075B42075B20C43B2812294
:0C0F1D00EFB4010443AA022253AAFD22F3
:0C0F2900EFB4010443AA012253AAFE22E7
:100EA100AD07AC06ECF5C5AF058FC475C24075C37F
:0B0EB10081E5C2F420E4FA53C2EF22F6
:100E8500AC06EC901012F0A3EFF07440120DF79041
:0C0E95001011E0F420E4F8E054EFF0222B
:100EBC00EF25E0FFEE33901012F0EF120DF39010CF
:0A0ECC0011E0F420E4F8E054EFF028
:010ED60022F9
:060866009000671205DAA4
:10086C00E47F02900067120E0212055790006B1283
:10087C0005DA120E11C3940AFFEE94000208FEE48E
:10088C00FF90006B120E02D31205A64077E47FFF97
:10089C007EFFFDFC90006BE0F8A3A3A3E0D3120550
:1008AC00A640067EFF7FFF800A90006BA3A3E0FEAC
:1008BC00A3E0FF90006FEEF0A3EFF090006FE0FC70
:1008CC00A3E0FDEC901012F0ED120DF3901011E07E
:1008DC00F420E4F8E054EFF0120E11FFC006C0074C
:1008EC00A3E0FEA3E0FBAA06D007D006C3EF9BFF54
:1008FC00EE9AFEED9400FDEC9400FC90006B12055A
:04090C00DA02088B78
:0109100022C4
:03006B00020F0978
:100F0900C0E0C083C08290005BE06401F0D082D071
:040F190083D0E0326F
:0300630002006038
:0200600000326C
:100BC50090005EE4F0A3743CF09000612290004F29
:100BD500E025E024FAF582E43405F583E493FF7417
:100BE5000193900059CFF0A3EFF0227402F090002A
:100BF50051E0FFF422E004F0E0C3940222E4F09017
:100C05000051E022F090004EE0640122C2B3C2A080
:100C1500C2B4C2B2C28322E4F0900051E022900037
:0F0C25005EE4F0A3743CF022D2B3D2A0D2B4228A
:10031100208B3A900052120BFA403B120BF030E066
:1003210035EF4401120C09F0E490005EF0A3F0A354
:10033100F090004EE0601F120AD6120BD2900030EE
:100341007404F0A374B0F0A37402F0800990005219
:10035100120C0254FEF0209A24900053120BFA4022
:1003610025120BF030E11FEF4402120C097017A3A4
:10037100E094025003E004F0120BD2800990005384
:10038100120C0254FDF0208627900054120BFA4003
:1003910028120BF030E222EF4404F090004EE0B45A
:1003A1000117900050E0C39408500EE004F080095A
:1003B100900054120C1C54FBF02084239000551221
:1003C1000BFA4024120BF030E31EEF4408F09000CA
:1003D1004EE0B40113900050E0600D14F0800990DC
:1003E1000055120C1C54F7F0208524900056120B76
:1003F100FA4028120BF030E422EF4410120C09707D
:100401001AA3E0D394004003E014F0120BD222E4CB
:0C041100900056F0900051E054EFF022F3
:10041D00900057E060030204D8743CF0900018E09F
:10042D00600214F090001AE0600214F0900026E0D3
:10043D00600214F0900027E0600214F0900028E0B4
:10044D00600214F0900029E0600214F090004DE07D
:10045D00600214F090005DE06003E014F090002D58
:10046D00E0600214F090002EE07002A3E0600E90A8
:10047D00002FE024FFF090002EE034FFF0900030CC
:10048D00E07002A3E0600E900031E024FFF09000D8
:10049D0030E034FFF090002BE004F0700690002A5D
:1004AD00E004F0900059E07002A3E0600E90005A55
:1004BD00E024FFF0900059E034FFF0900058E07018
:1004CD0005743CF0800B9000588003900057E014A9
:1004DD00F090005DE0900059E07002A3E06006909E
:1004ED00004EE0700FE4900064F090004EF090002C
:0504FD0059F0A3F022FC
:1001F700900060E0FFC390005FE09F90005EE09496
:1002070000401E120C0A701FA3E0FF7004D29280F8
:1002170016EFB40104D296800EEFB4020AD297808B
:1002270006900061740AF090005EE07002A3E0603F
:10023700030202F3900065E06013120C239000653F
:10024700E030E006900061740DF00202C590006492
:10025700E0FF607730E009120BC57401F00202C5B8
:10026700EF30E109120BC57402F00202C5EF30E26C
:1002770008120BC57403F08045EF30E308120BC575
:100287007404F08039EF30E408120BC57405F08070
:100297002DEF30E508120BC57406F08021EF30E62C
:1002A70008120BC57407F08015EF90005E30E70861
:1002B700120BC87408F08006120BC87409F090007E
:1002C7005EE0C313A3E013A3F0802F120C2390006A
:1002D7004EE0B4010A900050E0900061F080069073
:1002E7000061740FF0E4900060F0800E90005FE012
:1002F70024FFF090005EE034FFF0120F4990006198
:0A030700E0FF120796E4FF020F5E0C
:080F4900120C11C2B0C2B1226A
:10079600EFB4100040030208659007A6F8282873F6
:1007A6000207D60207DC0207E00207ED0207F6029F
:1007B60007FA02080402080A02081202081A0208C6
:1007C6002602083502083A0208460208520208358F
:1007D600120C2D020858C2B3802CD2B3D2A0C2B4D8
:1007E600D2B2D283020861120C2DD2B2C283806BC0
:1007F600C2B38022D2B3C2A0D2B4D2B2801EC2B3D8
:10080600C2A0800CD2B3D2A0D2B4801AD2B3D2A0E6
:10081600D2B48026D2B3D2A0D2B4C2B2C2838027C9
:10082600C2B3C2A0C2B4C2B2C283C2B0C2B12212A3
:100836000C118027D2B3C2A0C2B4D2B2D283800731
:10084600120C2DC2B2D283D2B0D2B122D2B3C2A080
:10085600C2B4D2B2D283D2B0C2B122C2B0D2B12215
:060F5E00900074EFF02288
:10000300438002E4FF120E47900046EEF0A3EFF0A8
:10001300A3E07002A3E06010900049E024FFF09099
:100023000048E034FFF08007E4900046F0A3F0C3FB
:10003300900047E09466900046E09406900065E0E7
:0E00430040054401F0800354FEF05380FD227E
:1006C0004380027F0F120E47900042E0FD04F0EDE0
:1006D00025E02436F582E43400F583EEF0A3EFF054
:1006E000900042E0C394054049E4F0900038E0FEF9
:1006F000A3E0FF900037E02FFF900036E03EFE9031
:10070000003BE02FFF90003AE03EFE90003DE02FDE
:10071000FF90003CE03EFE90003FE02FFF90003E47
:10072000E03EFE7C007D05120502900040EEF0A345
:10073000EFF0900040E0FEA3E0FFC3945EEE940A69
:10074000400C9000357401F0900043F0802CC3EF12
:10075000946EEE940640099000357401F0E4800E2A
:10076000C3EF945EEE94065011E4900035F09000D3
:1007700043F0A37403F0A37484F0900044E070028B
:10078000A3E0600E900045E024FFF0900044E034C8
:06079000FFF05380FD2282
:100C96004380027F0C120E4790004AEEF0A3EFF05D
:100CA600D394AEEE9403501CA3E004F0E0C3940A80
:100CB6004017740AF0900064E04480F090004D7490
:100CC6000AF08005E490004CF090004DE0600414BA
:0E0CD600F08007900064E0547FF05380FD2210
:1009AB0053A87F120F517D0FE4FF120E69120CE456
:1009BB0043A880120C34120AD6120EF1E59830E3DC
:1009CB00FB900014E0B401034398027FA07E0F124A
:1009DB000E1F1206C07F1E7E00120E1F120A4353FB
:1009EB0098FD7F547E0B120E1F7F647E00120E1F2C
:1009FB00120C9612041D1203117FF47E01120E1FAE
:100A0B00120051E59820E3FB1201F77FE87E0312F9
:100A1B000E1F7FDC7E05120E1F1200037FE87E0384
:100A2B00120E1F120B5153903B12006E7FE87E0388
:080A3B00120E1F120ED7808479
:100C3400E490004EF090005CF0A37414F0E4900093
:100C440051F0A3F0A3F090005EF0A3F0A3F09000A5
:100C5400507404F0E490004FF0900066F09000634C
:100C6400F0900061740AF0E4900064F0A3F0900046
:100C74004804F0A3742CF0E4900035F0900043F0A5
:100C8400900034F090001BF053807F5380FD53801C
:020C9400FE223E
:100EF1007F1EE4900074F0E59830E3FBE59820E371
:070F0100FBEF60031F80F00D
:010F080022C6
:03000000020911E1
:1009110078FFE4F6D8FD9000007F007E09E4F0A3A3
:0A092100DFFCDEFA758107020966AB
:10092B000209ABE493A3F8E493A34003F68001F22E
:10093B0008DFF48029E493A3F85407240CC8C333CD
:10094B00C4540F4420C8834004F456800146F6DF9C
:10095B00E4800B0102040810204080900F58E47EC5
:10096B00019360BCA3FF543F30E509541FFEE49391
:10097B00A360010ECF54C025E060A840B8E493A358
:10098B00FAE493A3F8E493A3C8C582C8CAC583CA83
:10099B00F0A3C8C582C8CAC583CADFE9DEE780BE3B
:010F5D000093
:10050200BC000BBE0029EF8DF084FFADF022E4CCDD
:10051200F875F008EF2FFFEE33FEEC33FCEE9DECA6
:10052200984005FCEE9DFE0FD5F0E9E4CEFD22EDEC
:10053200F8F5F0EE8420D21CFEADF075F008EF2F36
:10054200FFED33FD4007985006D5F0F222C398FD27
:050552000FD5F0EA22C4
:10055700E88FF0A4CC8BF0A42CFCE98EF0A42CFC43
:100567008AF0EDA42CFCEA8EF0A4CDA8F08BF0A4C1
:100577002DCC3825F0FDE98FF0A42CCD35F0FCEB20
:100587008EF0A4FEA9F0EB8FF0A4CFC5F02ECD39E5
:0F059700FEE43CFCEAA42DCE35F0FDE43CFC2252
:1005A600EB9FF5F0EA9E42F0E99D42F0E89C45F0AB
:0105B6002222
:1005B700E8600FECC313FCED13FDEE13FEEF13FF22
:0305C700D8F12246
:1005CA00E493FC740193FD740293FE740393FF2277
:0C05DA00ECF0A3EDF0A3EEF0A3EFF02294
:00000001FF
