:070F380075C820E4F58A22D0
:100E4500EDC3940F40027D0FEFB40106ED25E0F5EB
:0C0E5500D822AF05EF25E04401F5D822BB
:100CC00075A18BE4F5ACF591F5DEF580F5D375D221
:100CD00020F5B1F5ADF592F588F5D575D42A75B93D
:100CE000C4F5AEF593F59075D60A75C102F5AFF56A
:100CF00098F5EE75C901F5A3F594F5A0F5EF75D15A
:080D00001FF595F5B0F5FF2287
:100E2300759D07EF4480F59C439C4000E59CF420AE
:100E3300E4FAE59F540FFEAD9E7C00E42DFFEC3EEB
:020E4300FE228D
:100DFB00AC06EC901012F0A3EFF09010107401F011
:100E0B00A37464F0901010E04480F0901011E0F4A3
:080E1B0020E4F8E054EFF0229E
:0A0F1C00EF1F70011E144E70F72243
:10050100190715061E1C1A181614100808070706E5
:1005110006031F0938407080A8C0000000F0021CCB
:100521000348047405A006CC06CC06CC0005090DD1
:100531001115191D1F0002030405060708090666A7
:10054100070A070A00000000000000010001000185
:10055100000101010101010101010111011101115B
:10056100011111111111111111111115111511157E
:10057100111515151515151515151555155515556E
:100581001555555555555555555555575557555754
:10059100555757575757575757575777577757778C
:1005A10057777777777777777777777F777F777FE2
:1005B100777F7F7F7F7F7F7F7F7F7FFF7FFF7FFFD2
:1005C1007FFFFFFFFFFFFFFF00A4066607AE085194
:0A05D10008F5099909EB0A8F0B33B6
:0A0F110042003300004200350001E9
:100D0800EE25E02437F582E43400F583E0FCA3E027
:100D1800FDEF25E02437F582E43400F58322F0A3C3
:100D2800F0A3F0A3F022900042E09433900041E059
:100D3800940322E4900046F0A3F022EEF0A3EFF033
:050D48007F0A7E00227D
:100AB200900023743CF0A3F090001B7402F0E490C9
:100AC2000030F0A3F090004CF090004F120D2690F1
:100AD2000054120D26A3120D26A3F0A3F0A3743C1A
:100AE200F090001CE025E0241BF582E43405F58338
:100AF200E493FF74019390005FCFF0A3EFF09000B6
:100B0200647420F0E4900016120D26900041F0A3C8
:100B1200F0900049F0120D3CA3F090004BF09000D1
:0B0B22004AF0900043F0A3F0A3F02283
:10006E00900061E07002A3E0704B900063E0FFB47B
:10007E000223C3900052E09499900051E0940990AD
:10008E000063500280257401F09000617404F0A3A7
:10009E0074B0F08020EFB4011CC3900052E0943392
:1000AE00900051E0940B50089000637403F08005AB
:1000BE00E4900063F090001CE025E024C9F582E492
:1000CE003405F583E493FE740193FF90004E7401A2
:1000DE00F0C3900052E09F900051E09E4024E490C7
:1000EE000063F090004EF0900052E094D6900051D4
:1000FE00E0940F400D900030E04440F090005A74B0
:10010E000AF0900063E0C394034013900001E09066
:10011E00006470057414F080167405F08011900060
:10012E0001E090006470057420F080037408F09074
:10013E000057E07007900030E054F7F0900058E060
:10014E007007900030E054EFF0900059E070079087
:10015E000030E054DFF090005AE07007900030E07D
:10016E0054BFF09000647420F090001AE0B4013295
:10017E00900033E0FEA3E0FF900064E025E025E070
:10018E002445F582E43405F583E5822FF582E58377
:10019E003EF583E493FF900035A3E05F60047F019A
:1001AE0080027F0090004CEFF0900036E025E0FFDB
:1001BE00900035E033FEF0A3EFF04E702A9000353C
:1001CE00F0A304F0900034E004F07006900033E0E9
:1001DE0004F0C3900034E09404900033E064809403
:0701EE00804004E4F0A3F0DF
:0101F50022E7
:100EB300E4900044F090004CE0B4010A4380809039
:0A0EC30000447401F02253807F22E6
:0F00510090004CE0B401044380802253807F2252
:100A1F004380027F0E120E23900041EEF0A3EFF001
:100A2F00A37401F0A3E0B40118120D3BD3120D2EE5
:100A3F005060900030E04402F090004B740AF08058
:100A4F0051C3120D2E401E900047E004F070069027
:100A5F000046E004F0E4900043F0900049E0700F8E
:100A6F00743CF0800A120D3B900030E054FEF0C34E
:100A7F00900047E09468900046E094104014741082
:100A8F00F0A37468F09000457401F0900030E044DA
:100A9F0001F090004BE07007900030E054FDF053F0
:030AAF0080FD22A5
:100D9000438002E4900071F07F0D120E23900071E9
:100DA000E0120D1A120D43120DFB638002900071C8
:100DB000E004F0E0C3940540DF5380FD120D4D9038
:0E0DC000003DE0FFA3E090004FCFF0A3EFF066
:010DCE002202
:100B2D00438002E4900072F07F0B120E239000724E
:100B3D00E0120D1A120D43120DFB6380029000722C
:100B4D00E004F0E0C3940540DF900039E0FEA3E03F
:100B5D00FF900038E02FFF900037E03EFE90003C04
:100B6D00E02FFF90003BE03EFE90003EE02FFF9017
:100B7D00003DE03EFE900040E02FFF90003FE03E44
:100B8D00FE7C007D05120781900051EEF0A3EFF081
:030B9D005380FD85
:010BA0002232
:100D4D00E4FFAE07EEC394055032120D08E0FAA38E
:100D5D00E0FBD39DEA9C402190006FEAF0A3EBF0FD
:100D6D00120D08ECF0A3EDF090006FE0FCA3E0FD98
:100D7D00EE120D1AECF0A3EDF00E80C80FEF640526
:020D8D0070C034
:010D8F002241
:100DCF00A3F07460901011F09010107481F022FE57
:100DDF00FDFCE0F8A3E0F9A3E0FAA3E0FB2290000A
:0C0DEF0069E0FCA3E0FDA3E0FEA3E0220D
:0A0F260075B42075B20C43B28122AD
:0C0EF900EFB4010443AA022253AAFD2218
:0C0F0500EFB4010443AA012253AAFE220B
:100E7D00AD07AC06ECF5C5AF058FC475C24075C3A3
:0B0E8D0081E5C2F420E4FA53C2EF221A
:100E6100AC06EC901012F0A3EFF07440120DD39089
:0C0E71001011E0F420E4F8E054EFF0224F
:100E9800EF25E0FFEE33901012F0EF120DCF901017
:0A0EA80011E0F420E4F8E054EFF04C
:010EB200221D
:060842009000651208366B
:10084800E47F02900065120DDE1207D6900069124F
:100858000836120DEDC3940AFFEE94000208DAE49C
:10086800FF900069120DDED31208254077E47FFF60
:100878007EFFFDFC900069E0F8A3A3A3E0D3120873
:100888002540067EFF7FFF800A900069A3A3E0FE53
:10089800A3E0FF90006DEEF0A3EFF090006DE0FC98
:1008A800A3E0FDEC901012F0ED120DCF901011E0C6
:1008B800F420E4F8E054EFF0120DEDFFC006C00795
:1008C800A3E0FEA3E0FBAA06D007D006C3EF9BFF78
:1008D800EE9AFEED9400FDEC9400FC90006912087D
:0408E8003602086765
:0108EC0022E9
:03006B00020EE59D
:100EE500C0E0C083C082900027E06401F0D082D0CA
:040EF50083D0E03294
:0300630002006038
:0200600000326C
:100BA10090002AE4F0A3743CF090002D2290001BE9
:100BB100E025E02415F582E43405F583E493FF7420
:100BC1000193900025CFF0A3EFF0227402F0900082
:100BD1001DE0FFF422E004F0E0C3940222E4F0906F
:100BE100001DE022F090001AE0640122C2B3C2A00D
:100BF100C2B4C2B2C28322E4F090001DE022900090
:0F0C01002AE4F0A3743CF022D2B3D2A0D2B422E2
:10031000208B3A90001E120BD6403B120BCC30E0E3
:1003200035EF4401120BE5F0E490002AF0A3F0A3AE
:10033000F090001AE0601F120AB2120BAE9000613A
:100340007404F0A374B0F0A37402F0800990001E4E
:10035000120BDE54FEF0209A2490001F120BD640A0
:1003600025120BCC30E11FEF4402120BE57017A3EE
:10037000E094025003E004F0120BAE800990001FDD
:10038000120BDE54FDF0208627900020120BD64081
:1003900028120BCC30E222EF4404F090001AE0B4B3
:1003A000011790001CE0C39408500EE004F080098F
:1003B000900020120BF854FBF020842390002112AF
:1003C0000BD64024120BCC30E31EEF4408F0900013
:1003D0001AE0B4011390001CE0600D14F080099045
:1003E0000021120BF854F7F0208524900022120B04
:1003F000D64028120BCC30E422EF4410120BE570EB
:100400001AA3E0D394004003E014F0120BAE22E4F0
:0C041000900022F090001DE054EFF0225C
:10041C00900023E060030204D7743CF0900049E0A4
:10042C00600214F090004BE0600214F0900057E072
:10043C00600214F0900058E0600214F0900059E053
:10044C00600214F090005AE0600214F0900019E081
:10045C00600214F0900029E06003E014F090005E5C
:10046C00E0600214F090005FE07002A3E0600E9078
:10047C000060E024FFF090005FE034FFF09000613A
:10048C00E07002A3E0600E900062E024FFF09000A8
:10049C0061E034FFF090005CE004F0700690005BCB
:1004AC00E004F0900025E07002A3E0600E900026BE
:1004BC00E024FFF0900025E034FFF0900024E07081
:1004CC0005743CF0800B9000248003900023E01412
:1004DC00F0900029E0900025E07002A3E060069007
:1004EC00001AE0700FE4900030F090001AF09000C9
:0504FC0025F0A3F02231
:1001F60090002CE0FFC390002BE09F90002AE09433
:1002060000401E120BE6701FA3E0FF7004D292801E
:1002160016EFB40104D296800EEFB4020AD297808C
:100226000690002D740AF090002AE07002A3E060A8
:10023600030202F2900031E06013120BFF900031CE
:10024600E030E00690002D740DF00202C4900030FC
:10025600E0FF607730E009120BA17401F00202C4DE
:10026600EF30E109120BA17402F00202C4EF30E292
:1002760008120BA17403F08045EF30E308120BA1BE
:100286007404F08039EF30E408120BA17405F08095
:100296002DEF30E508120BA17406F08021EF30E651
:1002A60008120BA17407F08015EF90002A30E708BA
:1002B600120BA47408F08006120BA47409F09000C7
:1002C6002AE0C313A3E013A3F0802F120BFF9000C4
:1002D6001AE0B4010A90001CE090002DF080069010
:1002E600002D740FF0E490002CF0800E90002BE0AF
:1002F60024FFF090002AE034FFF0120F3090002D1A
:0A030600E0FF1206B1E4FF020F3F12
:080F3000120BEDC2B0C2B122A8
:1006B100EFB4100040030207809006C1F8282873A8
:1006C1000206F10206F70206FB0207080207110201
:1006D100071502071F02072502072D02073502072A
:1006E1004102075002075502076102076D020750D8
:1006F100120C09020773C2B3802CD2B3D2A0C2B4C8
:10070100D2B2D28302077C120C09D2B2C283806BAF
:10071100C2B38022D2B3C2A0D2B4D2B2801EC2B3BD
:10072100C2A0800CD2B3D2A0D2B4801AD2B3D2A0CC
:10073100D2B48026D2B3D2A0D2B4C2B2C2838027AF
:10074100C2B3C2A0C2B4C2B2C283C2B0C2B1221289
:100751000BED8027D2B3C2A0C2B4D2B2D28380073C
:10076100120C09C2B2D283D2B0D2B122D2B3C2A08A
:10077100C2B4D2B2D283D2B0C2B122C2B0D2B122FB
:060F3F00900072EFF022A9
:10000300438002E4FF120E23900012EEF0A3EFF000
:10001300A3E07002A3E06010900015E024FFF090CD
:100023000014E034FFF08007E4900012F0A3F0C363
:10003300900013E09466900012E09406900031E083
:0E00430040054401F0800354FEF05380FD227E
:1005DB004380027F0F120E2390000EE0FD04F0ED1E
:1005EB0025E02402F582E43400F583EEF0A3EFF06E
:1005FB0090000EE0C394054049E4F0900004E0FE47
:10060B00A3E0FF900003E02FFF900002E03EFE907E
:10061B000007E02FFF900006E03EFE900009E02F60
:10062B00FF900008E03EFE90000BE02FFF90000AC9
:10063B00E03EFE7C007D0512078190000CEEF0A3DE
:10064B00EFF090000CE0FEA3E0FFC3945EEE940A83
:10065B00400C9000017401F090000FF0802CC3EF60
:10066B00946EEE940640099000017401F0E4800E44
:10067B00C3EF945EEE94065011E4900001F09000ED
:10068B000FF0A37403F0A37484F0900010E07002D9
:10069B00A3E0600E900011E024FFF0900010E03416
:0606AB00FFF05380FD2268
:100C72004380027F0C120E23900016EEF0A3EFF0D9
:100C8200D394AEEE9403501CA3E004F0E0C3940AA4
:100C92004017740AF0900030E04480F0900019741C
:100CA2000AF08005E4900018F0900019E060041446
:0E0CB200F08007900030E0547FF05380FD2268
:1009870053A87F120F387D0FE4FF120E45120CC0DB
:1009970043A880120C10120AB2120ECDE59830E36C
:1009A700FB900045E0B401034398027FA07E0F123D
:1009B7000DFB1205DB7F1E7E00120DFB120A1F5373
:1009C70098FD7F547E0B120DFB7F647E00120DFB9A
:1009D700120C7212041C1203107FF47E01120DFB1D
:1009E700120051E59820E3FB1201F67FE87E03121F
:1009F7000DFB7FDC7E05120DFB1200037FE87E03F3
:100A0700120DFB120B2D53903B12006E7FE87E03F5
:080A1700120DFB120EB38084E6
:100C1000E490001AF0900028F0A37414F0E490001F
:100C20001DF0A3F0A3F090002AF0A3F0A3F0900031
:100C30001C7404F0E490001BF0900032F090002F40
:100C4000F090002D740AF0E4900030F0A3F09000D2
:100C50001404F0A3742CF0E4900001F090000FF065
:100C6000900000F090004CF053807F5380FD538043
:020C7000FE2262
:100ECD007F1EE4900072F0E59830E3FBE59820E397
:070EDD00FBEF60031F80F032
:010EE40022EB
:030000000208ED06
:1008ED0078FFE4F6D8FD9000007F007E09E4F0A3C8
:0A08FD00DFFCDEFA758107020942F4
:10090700020987E493A3F8E493A34003F68001F276
:1009170008DFF48029E493A3F85407240CC8C333F1
:10092700C4540F4420C8834004F456800146F6DFC0
:10093700E4800B0102040810204080900F11E47E30
:10094700019360BCA3FF543F30E509541FFEE493B5
:10095700A360010ECF54C025E060A840B8E493A37C
:10096700FAE493A3F8E493A3C8C582C8CAC583CAA7
:10097700F0A3C8C582C8CAC583CADFE9DEE780BE5F
:010F1B0000D5
:10078100BC000BBE0029EF8DF084FFADF022E4CC5C
:10079100F875F008EF2FFFEE33FEEC33FCEE9DEC25
:1007A100984005FCEE9DFE0FD5F0E9E4CEFD22ED6B
:1007B100F8F5F0EE8420D21CFEADF075F008EF2FB5
:1007C100FFED33FD4007985006D5F0F222C398FDA6
:0507D1000FD5F0EA2243
:1007D600E88FF0A4CC8BF0A42CFCE98EF0A42CFCC2
:1007E6008AF0EDA42CFCEA8EF0A4CDA8F08BF0A440
:1007F6002DCC3825F0FDE98FF0A42CCD35F0FCEB9F
:100806008EF0A4FEA9F0EB8FF0A4CFC5F02ECD3963
:0F081600FEE43CFCEAA42DCE35F0FDE43CFC22D0
:10082500EB9FF5F0EA9E42F0E99D42F0E89C45F029
:0108350022A0
:0C083600ECF0A3EDF0A3EEF0A3EFF02235
:00000001FF
