:070EBF0075C820E4F58A224A
:100DBD00EDC3940F40027D0FEFB40106ED25E0F574
:0C0DCD00D822AF05EF25E04401F5D82244
:100C380075A18BE4F5ACF591F5DEF580F5D375D2A9
:100C480020F5B1F5ADF592F588F5D575D42A75B9C5
:100C5800C4F5AEF593F59075D60A75C102F5AFF5F2
:100C680098F5EE75C901F5A3F594F5A0F5EF75D1E2
:080C78001FF595F5B0F5FF2210
:100D9B00759D07EF4480F59C439C4000E59CF42037
:100DAB00E4FAE59F540FFEAD9E7C00E42DFFEC3E74
:020DBB00FE2216
:100D7300AC06EC901012F0A3EFF09010107401F099
:100D8300A37464F0901010E04480F0901011E0F42C
:080D930020E4F8E054EFF02227
:0A0EA300EF1F70011E144E70F722BD
:1005CE00190715061E1C1A18161410080807070618
:1005DE0006031F0938407080A8C0000000F0021CFE
:1005EE000348047405A006CC06CC06CC0005090D04
:1005FE001115191D1F0002030405060708090666DA
:10060E00070A070A000000000000000100010001B7
:10061E00000101010101010101010111011101118D
:10062E0001111111111111111111111511151115B0
:10063E0011151515151515151515155515551555A0
:10064E001555555555555555555555775577557726
:10065E0055777777777777777777777F777F777F26
:10066E00777F7F7F7F7F7F7F7F7F7FFF7FFF7FFF14
:10067E007FFFFFFFFFFFFFFF0000000000000000F4
:10068E00000000000000000000A4066607AE08513E
:0A069E0008F5099909EB0A8F0B33E8
:100C8000EE25E02433F582E43400F583E0FCA3E0B4
:100C9000FDEF25E02433F582E43400F58322F0A350
:100CA000F0A3F0A3F02290003EE0943390003DE0EA
:100CB000940322E4900042F0A3F022EEF0A3EFF0C0
:050CC0007F0A7E002206
:100A2400900023743CF0A3F090001B7402F0E49057
:100A34000030F0A3F0900048F090004B120C9E9010
:100A44000050120C9EA3120C9EA3F0A3F0A3743CBE
:100A5400F090001CE025E024E8F582E43405F583F9
:100A6400E493FF74019390005BCFF0A3EFF0900048
:100A7400607420F0E4A3F0900016120C9E90003DE8
:100A8400F0A3F0900045F0120CB4A3F0900047F0EE
:0D0A9400900046F090003FF0A3F0A3F02288
:10006E0090005DE07002A3E0704B90005FE0FFB483
:10007E000223C390004EE0949990004DE0940990B5
:10008E00005F500280257401F090005D7404F0A3AF
:10009E0074B0F08020EFB4011CC390004EE0943396
:1000AE0090004DE0940B500890005F7403F08005B3
:1000BE00E490005FF090001CE025E02496F582E4C9
:1000CE003406F583E493FE740193FF90004A7401A5
:1000DE00F0C390004EE09F90004DE09E4024E490CF
:1000EE00005FF090004AF090004EE094D690004DE4
:1000FE00E0940F400D900030E04440F090005674B4
:10010E000AF090005FE0C394034013900001E0906A
:10011E00006070057414F080167405F08011900064
:10012E0001E090006070057420F080037408F09078
:10013E000053E07007900030E054F7F0900054E068
:10014E007007900030E054EFF0900055E07007908B
:10015E000030E054DFF0900056E07007900030E081
:10016E0054BFF090001AE0640170507F01FEFDFC58
:10017E00900061E0F9F812059F900060E025E025FF
:10018E00E02412F582E43406F5831205B2EB5FFF2C
:10019E00EA5EFEE95DFDE85C4D4E4F601E90004A42
:1001AE00E0B4011790003FE0B40110900045E070FC
:1001BE000A900030E070047F0180027F00900048BA
:1001CE00EFF0900061E004F0E0C394204002E4F010
:0101DE0022FE
:100E2B00E4900040F0900048E0B4010A43808090C9
:0A0E3B0000407401F02253807F2272
:0F005100900048E0B401044380802253807F2256
:100991004380027F0E120D9B90003DEEF0A3EFF01D
:1009A100A37401F0A3E0B40118120CB3D3120CA686
:1009B1005060900030E04402F0900047740AF080EB
:1009C10051C3120CA6401E900043E004F070069043
:1009D1000042E004F0E490003FF0900045E0700F29
:1009E100743CF0800A120CB3900030E054FEF0C366
:1009F100900043E09468900042E094104014741019
:100A0100F0A37468F09000417401F0900030E0446C
:100A110001F0900047E07007900030E054FDF05382
:030A210080FD2233
:100D0800438002E490006EF07F0D120D9B90006E00
:100D1800E0120C92120CBB120D7363800290006EED
:100D2800E004F0E0C3940540DF5380FD120CC59049
:0E0D38000039E0FFA3E090004BCFF0A3EFF0F6
:010D4600228A
:100AA100438002E490006FF07F0B120D9B90006F6A
:100AB100E0120C92120CBB120D7363800290006F56
:100AC100E004F0E0C3940540DF900035E0FEA3E0D0
:100AD100FF900034E02FFF900033E03EFE9000389D
:100AE100E02FFF900037E03EFE90003AE02FFF90AC
:100AF1000039E03EFE90003CE02FFF90003BE03EDD
:100B0100FE7C007D051204EA90004DEEF0A3EFF0AB
:030B11005380FD11
:010B140022BE
:100CC500E4FFAE07EEC394055032120C80E0FAA3A0
:100CD500E0FBD39DEA9C402190006CEAF0A3EBF089
:100CE500120C80ECF0A3EDF090006CE0FCA3E0FDAD
:100CF500EE120C92ECF0A3EDF00E80C80FEF640538
:020D050070C0BC
:010D070022C9
:100D4700A3F07460901011F09010107481F022FEDF
:100D5700FDFCE0F8A3E0F9A3E0FAA3E0FB22900092
:0C0D670066E0FCA3E0FDA3E0FEA3E02298
:0A0EAD0075B42075B20C43B2812227
:0C0E8B00EFB4010443AA022253AAFD2286
:0C0E9700EFB4010443AA012253AAFE227A
:100DF500AD07AC06ECF5C5AF058FC475C24075C32C
:0B0E050081E5C2F420E4FA53C2EF22A2
:100DD900AC06EC901012F0A3EFF07440120D4B909A
:0C0DE9001011E0F420E4F8E054EFF022D8
:100E1000EF25E0FFEE33901012F0EF120D47901027
:0A0E200011E0F420E4F8E054EFF0D4
:010E2A0022A5
:06084E009000621205C2D9
:10085400E47F02900062120D5612053F900066126A
:1008640005C2120D65C3940AFFEE94000208E6E483
:10087400FF900066120D56D312058E4077E47FFF79
:100884007EFFFDFC900066E0F8A3A3A3E0D312056D
:100894008E40067EFF7FFF800A900066A3A3E0FEE1
:1008A400A3E0FF90006AEEF0A3EFF090006AE0FC92
:1008B400A3E0FDEC901012F0ED120D47901011E042
:1008C400F420E4F8E054EFF0120D65FFC006C00711
:1008D400A3E0FEA3E0FBAA06D007D006C3EF9BFF6C
:1008E400EE9AFEED9400FDEC9400FC900066120577
:0408F400C2020873C1
:0108F80022DD
:03006B00020E770B
:100E7700C0E0C083C082900027E06401F0D082D038
:040E870083D0E03202
:0300630002006038
:0200600000326C
:100B150090002AE4F0A3743CF090002D2290001B75
:100B2500E025E024E2F582E43405F583E493FF74DF
:100B35000193900025CFF0A3EFF0227402F090000E
:100B45001DE0FFF422E004F0E0C3940222E4F090FB
:100B5500001DE022F090001AE0640122C2B3C2A099
:100B6500C2B4C2B2C28322E4F090001DE02290001C
:0F0B75002AE4F0A3743CF022D2B3D2A0D2B4226F
:1002F900208B3A90001E120B4A403B120B4030E013
:1003090035EF4401120B59F0E490002AF0A3F0A351
:10031900F090001AE0601F120A24120B2290005D6F
:100329007404F0A374B0F0A37402F0800990001E65
:10033900120B5254FEF0209A2490001F120B4A40CF
:1003490025120B4030E11FEF4402120B597017A31D
:10035900E094025003E004F0120B22800990001F80
:10036900120B5254FDF0208627900020120B4A40B0
:1003790028120B4030E222EF4404F090001AE0B456
:10038900011790001CE0C39408500EE004F08009A6
:10039900900020120B6C54FBF02084239000211252
:1003A9000B4A4024120B4030E31EEF4408F0900042
:1003B9001AE0B4011390001CE0600D14F08009905C
:1003C9000021120B6C54F7F0208524900022120BA7
:1003D9004A4028120B4030E422EF4410120B5970A6
:1003E9001AA3E0D394004003E014F0120B2222E494
:0C03F900900022F090001DE054EFF02274
:10040500900023E060030204C0743CF0900045E0D6
:10041500600214F0900047E0600214F0900053E091
:10042500600214F0900054E0600214F0900055E072
:10043500600214F0900056E0600214F0900019E09C
:10044500600214F0900029E06003E014F090005A77
:10045500E0600214F090005BE07002A3E0600E9093
:10046500005CE024FFF090005BE034FFF090005D5D
:10047500E07002A3E0600E90005EE024FFF09000C3
:100485005DE034FFF0900058E004F07006900057EE
:10049500E004F0900025E07002A3E0600E900026D5
:1004A500E024FFF0900025E034FFF0900024E07098
:1004B50005743CF0800B9000248003900023E01429
:1004C500F0900029E0900025E07002A3E06006901E
:1004D500001AE0700FE4900030F090001AF09000E0
:0504E50025F0A3F02248
:1001DF0090002CE0FFC390002BE09F90002AE0944A
:1001EF0000401E120B5A701FA3E0FF7004D29280C2
:1001FF0016EFB40104D296800EEFB4020AD29780A4
:10020F000690002D740AF090002AE07002A3E060BF
:10021F00030202DB900031E06013120B7390003188
:10022F00E030E00690002D740DF00202AD9000302A
:10023F00E0FF607730E009120B157401F00202AD98
:10024F00EF30E109120B157402F00202ADEF30E24C
:10025F0008120B157403F08045EF30E308120B15ED
:10026F007404F08039EF30E408120B157405F08038
:10027F002DEF30E508120B157406F08021EF30E6F4
:10028F0008120B157407F08015EF90002A30E7085D
:10029F00120B187408F08006120B187409F09000F6
:1002AF002AE0C313A3E013A3F0802F120B73900067
:1002BF001AE0B4010A90001CE090002DF080069027
:1002CF00002D740FF0E490002CF0800E90002BE0C6
:1002DF0024FFF090002AE034FFF0120EB790002DAB
:0A02EF00E0FF12077EE4FF020EC6D6
:080EB700120B61C2B0C2B122AE
:10077E00EFB41000400302084D90078EF82828733E
:10078E000207BE0207C40207C80207D50207DE022F
:10079E0007E20207EC0207F20207FA020802020859
:1007AE000E02081D02082202082E02083A02081D37
:1007BE00120B7D020840C2B3802CD2B3D2A0C2B4B9
:1007CE00D2B2D283020849120B7DD2B2C283806BA1
:1007DE00C2B38022D2B3C2A0D2B4D2B2801EC2B3F0
:1007EE00C2A0800CD2B3D2A0D2B4801AD2B3D2A0FF
:1007FE00D2B48026D2B3D2A0D2B4C2B2C2838027E2
:10080E00C2B3C2A0C2B4C2B2C283C2B0C2B12212BB
:10081E000B618027D2B3C2A0C2B4D2B2D2838007FA
:10082E00120B7DC2B2D283D2B0D2B122D2B3C2A049
:10083E00C2B4D2B2D283D2B0C2B122C2B0D2B1222D
:060EC60090006FEFF02226
:10000300438002E4FF120D9B900012EEF0A3EFF089
:10001300A3E07002A3E06010900015E024FFF090CD
:100023000014E034FFF08007E4900012F0A3F0C363
:10003300900013E09466900012E09406900031E083
:0E00430040054401F0800354FEF05380FD227E
:1006A8004380027F0F120D9B90000EE0FD04F0EDD9
:1006B80025E02402F582E43400F583EEF0A3EFF0A0
:1006C80090000EE0C394054049E4F0900004E0FE79
:1006D800A3E0FF900003E02FFF900002E03EFE90B1
:1006E8000007E02FFF900006E03EFE900009E02F93
:1006F800FF900008E03EFE90000BE02FFF90000AFC
:10070800E03EFE7C007D051204EA90000CEEF0A3AA
:10071800EFF090000CE0FEA3E0FFC3945EEE940AB5
:10072800400C9000017401F090000FF0802CC3EF92
:10073800946EEE940640099000017401F0E4800E76
:10074800C3EF945EEE94065011E4900001F090001F
:100758000FF0A37403F0A37484F0900010E070020B
:10076800A3E0600E900011E024FFF0900010E03448
:06077800FFF05380FD229A
:100BEA004380027F0C120D9B900016EEF0A3EFF0EB
:100BFA00D394AEEE9403501CA3E004F0E0C3940A2D
:100C0A004017740AF0900030E04480F090001974A4
:100C1A000AF08005E4900018F0900019E0600414CE
:0E0C2A00F08007900030E0547FF05380FD22F0
:1008F90053A87F120EBF7D0FE4FF120DBD120C38F5
:1009090043A880120B84120A24120E5FE59830E383
:10091900FB900041E0B401034398027FA07E0F12CF
:100929000D731206A87F1E7E00120D7312099153D2
:1009390098FD7F547E0B120D737F647E00120D7338
:10094900120BEA1204051202F97FF47E01120D73EB
:10095900120051E59820E3FB1201DF7FE87E0312C4
:100969000D737FDC7E05120D731200037FE87E0391
:10097900120D73120AA153903B12006E7FE87E0399
:08098900120D73120E2B808485
:100B8400E490001AF0900028F0A37414F0E49000AC
:100B94001DF0A3F0A3F090002AF0A3F0A3F09000BE
:100BA4001C7404F0E490001BF0900032F090002FCD
:100BB400F090002D740AF0E4900030F0A3F090005F
:100BC40061F090001404F0A3742CF0E4900001F0A0
:100BD40090000FF0900000F0900048F053807F5395
:060BE40080FD5380FE229B
:100E5F007F1EE490006FF0E59830E3FBE59820E308
:070E6F00FBEF60031F80F0A0
:010E76002259
:03000000020E45A8
:100E450078FFE4F6D8FD9000007F007E09E4F0A36A
:0A0E5500DFFCDEFA7581070208F9E0
:1004EA00BC000BBE0029EF8DF084FFADF022E4CCF6
:1004FA00F875F008EF2FFFEE33FEEC33FCEE9DECBF
:10050A00984005FCEE9DFE0FD5F0E9E4CEFD22ED04
:10051A00F8F5F0EE8420D21CFEADF075F008EF2F4E
:10052A00FFED33FD4007985006D5F0F222C398FD3F
:05053A000FD5F0EA22DC
:10053F00E88FF0A4CC8BF0A42CFCE98EF0A42CFC5B
:10054F008AF0EDA42CFCEA8EF0A4CDA8F08BF0A4D9
:10055F002DCC3825F0FDE98FF0A42CCD35F0FCEB38
:10056F008EF0A4FEA9F0EB8FF0A4CFC5F02ECD39FD
:0F057F00FEE43CFCEAA42DCE35F0FDE43CFC226A
:10058E00EB9FF5F0EA9E42F0E99D42F0E89C45F0C3
:01059E00223A
:10059F00E8600FEFC333FFEE33FEED33FDEC33FCBA
:0305AF00D8F1225E
:1005B200E493F8740193F9740293FA740393FB229F
:0C05C200ECF0A3EDF0A3EEF0A3EFF022AC
:00000001FF
