:100D1100438002E4FF120EB1900044EEF0A3EFF025
:100D2100A3E07002A3E06026900047E024FFF0906A
:100D31000046E034FFF0C3900045E0946690004423
:100D4100E09406900063E040094401F080079000C0
:090D510063E054FEF05380FD2222
:100582004380027F0F120EB1900040E0FD04F0EDB7
:1005920025E02434F582E43400F583EEF0A3EFF095
:1005A200900040E0C394054049E4F0900036E0FE3C
:1005B200A3E0FF900035E02FFF900034E03EFE9074
:1005C2000039E02FFF900038E03EFE90003BE02F24
:1005D200FF90003AE03EFE90003DE02FFF90003C8D
:1005E200E03EFE7C007D0512039A90003EEEF0A3F1
:1005F200EFF090003EE0FEA3E0FFC3945EEE940AAB
:10060200400D9000337402F090004114F0802CC32E
:10061200EF945CEE940740099000337401F0E4809B
:100622000EC3EF9454EE94075011E4900033F0900F
:100632000041F0A37403F0A37484F0900042E070D0
:1006420002A3E0600E900043E024FFF0900042E03D
:0706520034FFF05380FD228C
:100003004380029000487406F0A37466F0D394AE64
:1000130074069403501CA3E004F0E0C3940A401751
:10002300740AF0900062E04480F090004B740AF090
:100033008005E490004AF090004BE0600414F080E7
:0C00430007900062E0547FF05380FD2223
:070FBE0075C820E4F58A224A
:100ED300EDC3940F40027D0FEFB40106ED25E0F55D
:0C0EE300D822AF05EF25E04401F5D8222D
:100D5A0075A18BE4F5ACF591F5DEF580F5D375D286
:100D6A0020F5B1F5ADF592F588F5D5F5D475B9C488
:100D7A00F5AEF593F59075D60A75C102F5AFF598FB
:100D8A00F5EE75C901F5A3F594F5A0F5EF75D11F38
:070D9A00F595F5B0F5FF220D
:100EB100759D07EF4480F59C439C4000E59CF42020
:100EC100E4FAE59F540FFEAD9E7C00E42DFFEC3E5D
:020ED100FE22FF
:100E8900AC06EC901012F0A3EFF09010107401F082
:100E9900A37464F0901010E04480F0901011E0F415
:080EA90020E4F8E054EFF02210
:0A0F9A00EF1F70011E144E70F722C5
:10049F00190715061F1D1B19171511080807070641
:1004AF0006031F0938407080A8C0000000F0021C2E
:1004BF000348047405A006CC06CC06CC0004080C37
:1004CF001014181C20000102030405060708000180
:1004DF00020304050607080666070A070A00000656
:1004EF006607AE085108F5099909EB0A8F0B33001F
:1004FF0000000000000001000100010001010101E6
:10050F00010101010101110111011101111111115C
:10051F0011111111111115111511151115151515A0
:10052F0015151515151555155515551555555555AC
:10053F00555555555555575557555755575757574E
:10054F00575757575757775777577757777777774C
:10055F007777777777777F777F777F777F7F7F7FE4
:10056F007F7F7F7F7F7FFF7FFF7FFF7FFFFFFFFF0C
:03057F00FFFFFF7C
:070FAE0044000001010101F4
:100CA700EE25E02404F582E43400F583E0FCA3E0BC
:100CB700FDEF25E02404F582E43400F58322F0A358
:100CC700F0A3F0A3F022F583E5822FF582E43583C4
:100CD700F583E49390002EF02290004EE025E02467
:100CE700B9F582E43404F583E4932290000FE0948D
:100CF7005290000EE0940022E4900013F0A3F0223B
:0A0D0700EEF0A3EFF07F0A7E002259
:100C3C00900055743CF0A3F090004D7402F0E490D9
:100C4C000062F0A3F0900019F090001C120CC590FB
:100C5C000021120CC5A3120CC5A3F0A3F0A3743C85
:100C6C00F0120CE0FF74019390002CCFF0A3EFF086
:100C7C00E4A3F0A3F0900048120CC590000EF0A372
:100C8C00F0900016F0120D00A3F0900018F09000F8
:0B0C9C0017F0900010F0A3F0A3F0226E
:10006E0090004EE0FF900033E0FE75F009A424CB23
:10007E00F582E43404120CCDEF25E024ECF582E495
:10008E003404F583E493FC740193FD90001B74011A
:10009E00F0C390001FE09D90001EE09C4020E49075
:1000AE00001BF090001FE094FF90001EE0940F40A4
:1000BE000D900062E04440F0900027740AF090002A
:1000CE002BE0600F120CE0FD74019390002CCDF02C
:1000DE00A3EDF090004EE070030201E590002CE0DD
:1000EE007002A3E06009EE9004B19390002EF090A0
:1000FE000033E0FF90049F93FE90002EE0C39E50CD
:10010E00030201B0900029E09434900028E0940896
:10011E00400690002A7401F0C3900029E09460908C
:10012E000028E09409400690002A7402F0C3900063
:10013E0029E0948C900028E0940A400690002A74DE
:10014E0003F0C3900029E094B8900028E0940B408F
:10015E000690002A7404F0C3900029E094E4900005
:10016E0028E0940C400690002A7405F0C3900029F4
:10017E00E09410900028E0940E400690002A740639
:10018E00F0C3900029E09480900028E09470402CF9
:10019E0090002A7407F09000287470F0A37480F019
:1001AE00801AE4900028F0A3F0EF9004A193FF9042
:1001BE00002EE0D39F5005E490002AF090002AE034
:1001CE00FF6023900033E075F007A424A2F582E4CB
:1001DE003404120CCD800FE490002CF0A3F09000AC
:1001EE0028F0A3F0A3F0900024E07007900062E0E6
:1001FE0054F7F0900025E07007900062E054EFF0A5
:10020E00900026E07007900062E054DFF090002727
:10021E00E07007900062E054BFF090004CE0B40133
:10022E0019900031E0FF900000A3E0F9A3E0FAA3DB
:10023E00E05FFFEF60047F0180027F00900019EF06
:10024E00F0900000E0FCA3E0FDA3E0FEA3E0FF7849
:10025E000112044F90000012046290002FE004F08F
:10026E00E0D3941F400CE4F090000012046E0101E4
:02027E0001017C
:01028000225B
:100F4100E4900011F0900019E0B4010A4380809010
:0A0F510000117401F02253807F228A
:0F0F7300900019E0B401044380802253807F2254
:100A16004380027F0E120EB190000EEEF0A3EFF0AF
:100A2600A37401F0A3E0B40118120CFFD3120CF268
:100A36005073900062E04402F0900018740AF0804F
:100A460064C3120CF2401E900014E004F07006908D
:100A56000013E004F0E4900010F0900016E070142B
:100A6600743CF0800F120CFF900062E054FEF0E43C
:100A7600900012F0900013E0FEA3E0FFD39410EE76
:100A8600940E4021EF9468EE94105009900062E0B5
:100A96004401F080109000137410F0A37468F09075
:100AA60000127401F0900018E07007900062E054A4
:060AB600FDF05380FD225B
:100DE400438002E490006FF07F0D120EB190006F0B
:100DF400E0120CB9120D07120E8963800290006F85
:100E0400E004F0E0C3940540DF5380FD120DA1908F
:0E0E1400000AE0FFA3E090001CCFF0A3EFF077
:010E220022AD
:100B5600438002E490006FF07F0B120EB190006F9D
:100B6600E0120CB9120D07120E8963800290006F15
:100B7600E004F0E0C3940540DF900006E0FEA3E049
:100B8600FF900005E02FFF900004E03EFE90000974
:100B9600E02FFF900008E03EFE90000BE02FFF9054
:100BA600000AE03EFE90000DE02FFF90000CE03EB4
:100BB600FE7C007D0512039A90001EEEF0A3EFF076
:030BC6005380FD5C
:010BC9002209
:100DA100E4FFAE07EEC394055032120CA7E0FAA39C
:100DB100E0FBD39DEA9C4021900070EAF0A3EBF0A8
:100DC100120CA7ECF0A3EDF0900070E0FCA3E0FDA5
:100DD100EE120CB9ECF0A3EDF00E80C80FEF640534
:020DE10070C0E0
:010DE30022ED
:100E5D00A3F07460901011F09010107481F022FEC8
:100E6D00FDFCE0F8A3E0F9A3E0FAA3E0FB2290007B
:0C0E7D0069E0FCA3E0FDA3E0FEA3E0227E
:0A0FA40075B42075B20C43B281222F
:0C0F8200EFB4010443AA022253AAFD228E
:0C0F8E00EFB4010443AA012253AAFE2282
:100F0B00AD07AC06ECF5C5AF058FC475C24075C314
:0B0F1B0081E5C2F420E4FA53C2EF228B
:100EEF00AC06EC901012F0A3EFF07440120E61906C
:0C0EFF001011E0F420E4F8E054EFF022C1
:100F2600EF25E0FFEE33901012F0EF120E5D9010F9
:0A0F360011E0F420E4F8E054EFF0BD
:010F4000228E
:06096B0090006512046219
:10097100E47F02900065120E6C1203EF9000691281
:100981000462120E7BC3940AFFEE9400020A03E490
:10099100FF900069120E6CD312043E4077E47FFF92
:1009A1007EFFFDFC900069E0F8A3A3A3E0D312044D
:1009B1003E40067EFF7FFF800A900069A3A3E0FE10
:1009C100A3E0FF90006DEEF0A3EFF090006DE0FC6E
:1009D100A3E0FDEC901012F0ED120E5D901011E00D
:1009E100F420E4F8E054EFF0120E7BFFC006C007DC
:1009F100A3E0FEA3E0FBAA06D007D006C3EF9BFF4E
:100A0100EE9AFEED9400FDEC9400FC900069120456
:040A110062020990E4
:010A150022BE
:03006B0002004F41
:10004F00C0E0C083C082900059E06401F0D082D03C
:04005F0083D0E03238
:0300630002006632
:02006600003266
:100E230090005CE4F0A3743CF090005F227402F045
:100E330090004FE0FFF422C2B3C2A0C2B4C2B2C258
:100E43008322E4F090004FE02290005CE4F0A3746E
:0A0E53003CF022D2B3D2A0D2B422A8
:1007F600208B44900050E004F0E0C3943C404174E8
:100806003C120E3230E039EF4401F090004CE064C7
:1008160001F0E490005CF0A3F0A3F090004CE060DF
:100826001F120C3C9004B7E493FF74019390005799
:10083600CFF0A3EFF08009900050120E4554FEF061
:1008460020852B900053E004F0E0C3940240281268
:100856000E3030E322EF4408F090004CE0B401176C
:1008660090004EE0C39408500EE004F0800990001A
:1008760053120E4554F7F0208426900054E004F0FD
:10088600E0C394024026120E3030E420EF4410F00C
:1008960090004CE0B4011590004EE0600F14F02279
:0D08A600E4900054F090004FE054EFF02279
:10072900900055E060030207CC743CF0900016E09D
:10073900600214F0900018E0600214F0900024E0C8
:10074900600214F0900025E0600214F0900026E0A9
:10075900600214F0900027E0600214F090004BE072
:10076900600214F090005BE06003E014F090002B4D
:10077900E0600214F090002CE07002A3E0600E909B
:10078900002DE024FFF090002CE034FFF0900029C8
:10079900E004F07006900028E004F0900057E07043
:1007A90002A3E0600E900058E024FFF0900057E0AB
:1007B90034FFF0900056E07005743CF0800B900017
:1007C900568003900055E014F090005BE0900057CC
:1007D900E07002A3E0600690004CE0700FE4900026
:0D07E90062F090004CF0900057F0A3F02259
:1002810090005EE0FFC390005DE09F90005CE09411
:1002910000401690004CE0B40115A3E0FF6010642B
:1002A10001600CEFB40208800690005F740AF0E46C
:1002B100900062F0A3F090005CE07002A3E06003A4
:1002C10002037C900063E06013120E4C900063E027
:1002D10030E00690005F740DF002034E900062E082
:1002E100FF607730E009120E237401F002034EEF34
:1002F10030E109120E237402F002034EEF30E208DE
:10030100120E237403F08045EF30E308120E2374BC
:1003110004F08039EF30E408120E237405F0802DCB
:10032100EF30E508120E237406F08021EF30E60865
:10033100120E237407F08015EF90005C30E708126D
:100341000E267408F08006120E267409F090005CE7
:10035100E0C313A3E013A3F0802F120E4C90004CC6
:10036100E0B4010A90004EE090005FF0800690003A
:100371005F740FF0E490005EF0800E90005DE02469
:10038100FFF090005CE034FFF0120FB690005FE0E8
:09039100FF120659E4FF020FC53A
:080FB600120E3AC2B0C2B122D2
:10065900EFB410004003020728900669F8282873B0
:1006690002069902069F0206A30206B00206B90213
:1006790006BD0206C70206CD0206D50206DD020640
:10068900E90206F80206FD0207090207150206F843
:10069900120E5602071BC2B3802CD2B3D2A0C2B429
:1006A900D2B2D283020724120E56D2B2C283806B11
:1006B900C2B38022D2B3C2A0D2B4D2B2801EC2B316
:1006C900C2A0800CD2B3D2A0D2B4801AD2B3D2A025
:1006D900D2B48026D2B3D2A0D2B4C2B2C283802708
:1006E900C2B3C2A0C2B4C2B2C283C2B0C2B12212E2
:1006F9000E3A8027D2B3C2A0C2B4D2B2D283800745
:10070900120E56C2B2D283D2B0D2B122D2B3C2A093
:10071900C2B4D2B2D283D2B0C2B122C2B0D2B12253
:060FC50090006FEFF02226
:1008B30053A87F120FBE7D0FE4FF120ED3120D5A01
:1008C30043A880120BCA120C3C120F5BE59830E36D
:1008D300FB90002FE0FF6407600EEF640F6009EFE9
:1008E30064176004EFB41F055380FE800343800147
:1008F300900012E0B401034398027F787E05120E44
:10090300897F787E05120E897FD07E07120E895368
:1009130098FD120582120A167F847E03120E891235
:100923000DE41200031207291207F67FF47E011269
:100933000E89120F73E59820E3FB120281120963FB
:100943007FDC7E05120E89120D11120963120B56FC
:1009530012006E7FE87E03120E89120F410208CF48
:080963007FE87E03120E8922D9
:100BCA00E490004CF090005AF0A37414F0E4900002
:100BDA004FF0A3F0A3F090005CF0A3F0A3F0900014
:100BEA004E7404F0E490004DF0900064F0900061BF
:100BFA00F090005F740AF0E4900062F0A3F09000B5
:100C0A004604F0A3742CF09000337402F0E49000D0
:100C1A0041F0900032F0900019F090003104F0E4B5
:100C2A0090002EF0A3F0A3F053807F5380FD5380F1
:020C3A00FE2298
:100F5B007F1EE490006FF0E59830E3FBE59820E30B
:070F6B00FBEF60031F80F0A3
:010F7200225C
:03000000020ABC35
:100ABC0078FFE4F6D8FD9000007F007E09E4F0A3F7
:0A0ACC00DFFCDEFA758107020B1152
:100AD6000208B3E493A3F8E493A34003F68001F27B
:100AE60008DFF48029E493A3F85407240CC8C33321
:100AF600C4540F4420C8834004F456800146F6DFF0
:100B0600E4800B0102040810204080900FAEE47EC2
:100B1600019360BCA3FF543F30E509541FFEE493E4
:100B2600A360010ECF54C025E060A840B8E493A3AB
:100B3600FAE493A3F8E493A3C8C582C8CAC583CAD6
:100B4600F0A3C8C582C8CAC583CADFE9DEE780BE8E
:010FB500003B
:10039A00BC000BBE0029EF8DF084FFADF022E4CC47
:1003AA00F875F008EF2FFFEE33FEEC33FCEE9DEC10
:1003BA00984005FCEE9DFE0FD5F0E9E4CEFD22ED56
:1003CA00F8F5F0EE8420D21CFEADF075F008EF2FA0
:1003DA00FFED33FD4007985006D5F0F222C398FD91
:0503EA000FD5F0EA222E
:1003EF00E88FF0A4CC8BF0A42CFCE98EF0A42CFCAD
:1003FF008AF0EDA42CFCEA8EF0A4CDA8F08BF0A42B
:10040F002DCC3825F0FDE98FF0A42CCD35F0FCEB89
:10041F008EF0A4FEA9F0EB8FF0A4CFC5F02ECD394E
:0F042F00FEE43CFCEAA42DCE35F0FDE43CFC22BB
:10043E00EB9FF5F0EA9E42F0E99D42F0E89C45F014
:01044E00228B
:10044F00E8600FECC313FCED13FDEE13FEEF13FF8B
:03045F00D8F122AF
:0C046200ECF0A3EDF0A3EEF0A3EFF0220D
:10046E00A8828583F0D083D082120485120485126F
:10047E000485120485E473E493A3C583C5F0C58394
:10048E00C8C582C8F0A3C583C5F0C583C8C582C8D8
:01049E00223B
:00000001FF
