:100A0F00438002E4FF120BE990003FEEF0A3EFF0FA
:100A1F00A3E07002A3E06026900042E024FFF09074
:100A2F000041E034FFF0C3900040E0946690003F37
:100A3F00E0940690005EE040094401F080079000CA
:090A4F005EE054FEF05380FD222C
:10017A004380027F0F120BE990003BE0FD04F0ED93
:10018A0025E0242FF582E43400F583EEF0A3EFF0A6
:10019A0090003BE0C394054049E4F0900031E0FE52
:1001AA00A3E0FF900030E02FFF90002FE03EFE908A
:1001BA000034E02FFF900033E03EFE900036E02F3F
:1001CA00FF900035E03EFE900038E02FFF900037A8
:1001DA00E03EFE7C007D051203EE900039EEF0A3AE
:1001EA00EFF0900039E0FEA3E0FFC3945EEE940ABC
:1001FA00400D90002E7402F090003C14F0802CC345
:10020A00EF945CEE9407400990002E7401F0E480AC
:10021A000EC3EF9454EE94075011E490002EF09020
:10022A00003CF0A37403F0A37484F090003DE070E6
:10023A0002A3E0600E90003EE024FFF090003DE053
:07024A0034FFF05380FD2298
:1009C3004380029000437406F0A37466F0D394AEA0
:1009D30074069403501CA3E004F0E0C3940A401788
:1009E300740AF090005DE04480F0900046740AF0D1
:1009F3008005E4900045F0900046E0600414F08028
:0C0A03000790005DE0547FF05380FD225E
:070D1C0075C820E4F58A22EE
:100C0B00EDC3940F40027D0FEFB40106ED25E0F527
:0C0C1B00D822AF05EF25E04401F5D822F7
:100A580075A18BE4F5ACF591F5DEF580F5D375D28B
:100A680020F5B1F5ADF592F588F5D5F5D475B9C091
:100A7800F5AEF593F59075D60A75C102F5AFF59800
:100A8800F5EE75C901F5A3F594F5A0F5EF75D11F3D
:070A9800F595F5B0F5FF2212
:100BE900759D07EF4480F59C439C4000E59CF420EB
:100BF900E4FAE59F540FFEAD9E7C00E42DFFEC3E28
:020C0900FE22C9
:100BC100AC06EC901012F0A3EFF09010107401F04D
:100BD100A37464F0901010E04480F0901011E0F4E0
:080BE10020E4F8E054EFF022DB
:0A0D0000EF1F70011E144E70F72261
:10000300190715061F1D1B191715110808070706E1
:1000130006031F0938407080A8C0000000F0021CCE
:100023000348047405A006CC06CC06CC0004080CD7
:100033001014181C20000102030405060708000120
:10004300020304050607080666070A070A000006F6
:0F0053006607AE085108F5099909EB0A8F0B33C0
:10097300EE25E02400F582E43400F583E0FCA3E0F7
:10098300FDEF25E02400F582E43400F58322F0A393
:10099300F0A3F0A3F02290000BE0945290000AE041
:1009A30094002290002AE004F0E0C3942022E49013
:1009B300000FF0A3F022EEF0A3EFF07F0A7E0022F7
:10074E00900050743CF0A3F09000487402F0E490D6
:10075E00005DF0A3F0900015F09000181209919032
:10076E00001D120991A3120991A3F0A3F0A3743CEA
:10077E00F0900049E025E0241DF582E43400F58375
:10078E00E493FF740193900028CFF0A3EFF0E412EE
:10079E00099290004312099190000AF0A3F0900084
:1007AE0012F01209B2A3F0900014F0900013F09022
:0807BE00000CF0A3F0A3F022EF
:10091B001209A64028E4F0900049E0FF90002EE079
:10092B0075F009A4242FF582E43400F583E5822FBA
:10093B00F582E43583F583E49390002BF090004728
:10094B00E0B4011C90002BE0FF3395E0FE90002AF1
:10095B00E0C39FEE6480F874809850047F0180029E
:08096B007F00900015EFF0225F
:100B210090002BE0FFA3E02FF0E4900015F090007F
:100B31002CE0C3648094A04020900047E0B4010BF6
:100B4100900017E0B401047F0180027F009000153E
:0A0B5100EFF090002CE024E0F02209
:1007C600900049E025E02450F582E43400F583E406
:1007D60093FE740193FF9000177401F0C390001B01
:1007E600E09F90001AE09E4020E4900017F09000F1
:1007F6001BE094FF90001AE0940F400D90005DE01E
:100806004440F0900023740AF0900023E0700790B3
:10081600005DE054BFF01209A64019E4F090002EE6
:10082600E075F009A42437F582E43400F583E493F7
:0408360090002BF013
:01083A00229B
:100C7900E490000DF0900015E0B4010A43808090E3
:0A0C8900000D7401F02253807F2259
:0F0CD900900015E0B401044380802253807F22F5
:100617004380027F0E120BE990000AEEF0A3EFF081
:10062700A37401F0A3E0B401181209B1D312099918
:10063700507390005DE04402F0900014740AF0805B
:1006470064C3120999401E900010E004F0700690F0
:10065700000FE004F0E490000CF0900012E070143A
:10066700743CF0800F1209B190005DE054FEF0E495
:1006770090000EF090000FE0FEA3E0FFD39410EE81
:10068700940E4021EF9468EE9410500990005DE0BD
:100697004401F0801090000F7410F0A37468F0907C
:1006A700000E7401F0900014E0700790005DE054B4
:0606B700FDF05380FD225E
:100AE200438002E490006AF07F0D120BE990006AE5
:100AF200E01209851209B9120BC163800290006AE3
:100B0200E004F0E0C3940540DF5380FD120A9F9099
:0E0B12000006E0FFA3E0900018CFF0A3EFF084
:010B200022B2
:10083B00438002E490006AF07F0B120BE990006A90
:10084B00E01209851209B9120BC163800290006A8C
:10085B00E004F0E0C3940540DF900002E0FEA3E06B
:10086B00FF900001E02FFF900000E03EFE9000059E
:10087B00E02FFF900004E03EFE900007E02FFF907A
:10088B000006E03EFE900009E02FFF900008E03EDE
:10089B00FE7C007D051203EE90001AEEF0A3EFF044
:0308AB005380FD7A
:0108AE002227
:100A9F00E4FFAE07EEC394055032120973E0FAA3D8
:100AAF00E0FBD39DEA9C402190006BEAF0A3EBF0B2
:100ABF00120973ECF0A3EDF090006BE0FCA3E0FDE6
:100ACF00EE120985ECF0A3EDF00E80C80FEF640570
:020ADF0070C0E5
:010AE10022F2
:100B9500A3F07460901011F09010107481F022FE93
:100BA500FDFCE0F8A3E0F9A3E0FAA3E0FB22900046
:0C0BB50064E0FCA3E0FDA3E0FEA3E0224E
:0A0D0A0075B42075B20C43B28122CB
:0C0CE800EFB4010443AA022253AAFD222B
:0C0CF400EFB4010443AA012253AAFE221F
:100C4300AD07AC06ECF5C5AF058FC475C24075C3DF
:0B0C530081E5C2F420E4FA53C2EF2256
:100C2700AC06EC901012F0A3EFF07440120B999001
:0C0C37001011E0F420E4F8E054EFF0228B
:100C5E00EF25E0FFEE33901012F0EF120B9590108F
:0A0C6E0011E0F420E4F8E054EFF088
:010C78002259
:06056C009000601204A3E0
:10057200E47F02900060120BA41204439000641204
:1005820004A3120BB3C3940AFFEE9400020604E420
:10059200FF900064120BA4D31204924077E47FFF11
:1005A2007EFFFDFC900064E0F8A3A3A3E0D3120455
:1005B2009240067EFF7FFF800A900064A3A3E0FEC4
:1005C200A3E0FF900068EEF0A3EFF0900068E0FC7B
:1005D200A3E0FDEC901012F0ED120B95901011E0DB
:1005E200F420E4F8E054EFF0120BB3FFC006C007AA
:1005F200A3E0FEA3E0FBAA06D007D006C3EF9BFF51
:10060200EE9AFEED9400FDEC9400FC90006412045E
:04061200A3020591A9
:0106160022C1
:03006B00020CC5BF
:100CC500C0E0C083C082900054E06401F0D082D0BF
:040CD50083D0E032B6
:0300630002006632
:02006600003266
:100B5B00900057E4F0A3743CF090005A227402F01A
:100B6B0090004AE0FFF422C2B3C2A0C2B4C2B2C228
:100B7B008322E4F090004AE022900057E4F0A37443
:0A0B8B003CF022D2B3D2A0D2B42273
:1004AF00208B4490004BE004F0E0C3943C40417437
:1004BF003C120B6A30E039EF4401F0900047E064E2
:1004CF0001F0E4900057F0A3F0A3F0900047E06034
:1004DF001F12074E90001BE493FF7401939000527C
:1004EF00CFF0A3EFF0800990004B120B7D54FEF07C
:1004FF0020852B90004EE004F0E0C39402402812B8
:10050F000B6830E322EF4408F0900047E0B4011786
:10051F00900049E0C39408500EE004F08009900069
:10052F004E120B7D54F7F020842690004FE004F01C
:10053F00E0C394024026120B6830E420EF4410F021
:10054F00900047E0B40115900049E0600F14F022CD
:0D055F00E490004FF090004AE054EFF022CD
:10032100900050E060030203C4743CF0900012E0BE
:10033100600214F0900014E0600214F0900020E0DC
:10034100600214F0900021E0600214F0900022E0BD
:10035100600214F0900023E0600214F0900046E087
:10036100600214F0900056E06003E014F090002762
:10037100E0600214F0900028E07002A3E0600E90AB
:100381000029E024FFF0900028E034FFF0900025E0
:10039100E004F07006900024E004F0900052E07058
:1003A10002A3E0600E900053E024FFF0900052E0C1
:1003B10034FFF0900051E07005743CF0800B900028
:1003C100518003900050E014F0900056E0900052EC
:1003D100E07002A3E06006900047E0700FE4900037
:0D03E1005DF0900047F0900052F0A3F02274
:10006E00900059E0FFC3900058E09F900057E09435
:10007E00004009900047E0B40108800690005A74D1
:10008E000AF0E490005DF0A3F0900057E07002A338
:10009E00E0600302015C90005EE06013120B84903E
:1000AE00005EE030E00690005A740DF002012E90D2
:1000BE00005DE0FF607730E009120B5B7401F00227
:1000CE00012EEF30E109120B5B7402F002012EEFEC
:1000DE0030E208120B5B7403F08045EF30E3081238
:1000EE000B5B7404F08039EF30E408120B5B74057F
:1000FE00F0802DEF30E508120B5B7406F08021EFD7
:10010E0030E608120B5B7407F08015EF9000573045
:10011E00E708120B5E7408F08006120B5E7409F08D
:10012E00900057E0C313A3E013A3F0802F120B84AB
:10013E00900047E0B4010A900049E090005AF08028
:10014E000690005A740FF0E4900059F0800E900063
:10015E0058E024FFF0900057E034FFF0120D149099
:0C016E00005AE0FF120251E4FF020D23D2
:080D1400120B72C2B0C2B12241
:10025100EFB410004003020320900261F8282873D4
:1002610002029102029702029B0202A80202B1025B
:1002710002B50202BF0202C50202CD0202D502028C
:10028100E10202F00202F502030102030D0202F093
:10029100120B8E020313C2B3802CD2B3D2A0C2B40C
:1002A100D2B2D28302031C120B8ED2B2C283806BF4
:1002B100C2B38022D2B3C2A0D2B4D2B2801EC2B322
:1002C100C2A0800CD2B3D2A0D2B4801AD2B3D2A031
:1002D100D2B48026D2B3D2A0D2B4C2B2C283802714
:1002E100C2B3C2A0C2B4C2B2C283C2B0C2B12212EE
:1002F1000B728027D2B3C2A0C2B4D2B2D28380071C
:10030100120B8EC2B2D283D2B0D2B122D2B3C2A06A
:10031100C2B4D2B2D283D2B0C2B122C2B0D2B1225F
:060D230090006AEFF022CF
:1006BD0053A87F120D1C7D0FE4FF120C0B120A586C
:1006CD0043A8801208AF12074E120CADE59830E327
:1006DD00FB90002AE0700543800180035380FE905B
:1006ED00000EE0B401034398027FC07E12120BC1CD
:1006FD005398FD12017A1206177FE87E03120BC183
:10070D00120AE21209C31203211204AF120CD9E529
:10071D009820E3FB12006E7FC47E09120BC17FE8A7
:10072D007E03120BC1120A0F7FE87E03120BC1125A
:10073D00083B1200007FE87E03120BC1120C79807A
:01074D008B20
:1008AF00E4900047F0900055F0A37414F0E490002A
:1008BF004AF0A3F0A3F0900057F0A3F0A3F090003C
:1008CF00497404F0E4900048F090005FF090005CF1
:1008DF00F090005A740AF0E490005DF0A3F09000DD
:1008EF004104F0A3742CF090002E7402F0E49000F9
:1008FF003CF090002DF0900015F090002AF0A3F03E
:0C090F00A3F053807F5380FD5380FE2234
:100CAD007F1EE490006AF0E59830E3FBE59820E3C1
:070CBD00FBEF60031F80F054
:010CC400220D
:03000000020C935C
:100C930078FFE4F6D8FD9000007F007E09E4F0A31E
:0A0CA300DFFCDEFA7581070206BDD2
:1003EE00BC000BBE0029EF8DF084FFADF022E4CCF3
:1003FE00F875F008EF2FFFEE33FEEC33FCEE9DECBC
:10040E00984005FCEE9DFE0FD5F0E9E4CEFD22ED01
:10041E00F8F5F0EE8420D21CFEADF075F008EF2F4B
:10042E00FFED33FD4007985006D5F0F222C398FD3C
:05043E000FD5F0EA22D9
:10044300E88FF0A4CC8BF0A42CFCE98EF0A42CFC58
:100453008AF0EDA42CFCEA8EF0A4CDA8F08BF0A4D6
:100463002DCC3825F0FDE98FF0A42CCD35F0FCEB35
:100473008EF0A4FEA9F0EB8FF0A4CFC5F02ECD39FA
:0F048300FEE43CFCEAA42DCE35F0FDE43CFC2267
:10049200EB9FF5F0EA9E42F0E99D42F0E89C45F0C0
:0104A2002237
:0C04A300ECF0A3EDF0A3EEF0A3EFF022CC
:00000001FF
