:1009CE00438002E4FF120BEB900041EEF0A3EFF038
:1009DE00A3E07002A3E06026900044E024FFF090B4
:1009EE000043E034FFF0C3900042E0946690004173
:1009FE00E09406900060E040094401F0800790000A
:090A0E0060E054FEF05380FD226B
:100258004380027F0F120BEB90003DE0FD04F0EDB0
:1002680025E02431F582E43400F583EEF0A3EFF0C5
:1002780090003DE0C394054049E4F0900033E0FE6F
:10028800A3E0FF900032E02FFF900031E03EFE90A7
:100298000036E02FFF900035E03EFE900038E02F5A
:1002A800FF900037E03EFE90003AE02FFF900039C3
:1002B800E03EFE7C007D051203FF90003BEEF0A3BC
:1002C800EFF090003BE0FEA3E0FFC3945EEE940ADB
:1002D800400D9000307402F090003E14F0802CC362
:1002E800EF945CEE940740099000307401F0E480CC
:1002F8000EC3EF9454EE94075011E4900030F09040
:10030800003EF0A37403F0A37484F090003FE07003
:1003180002A3E0600E900040E024FFF090003FE070
:0703280034FFF05380FD22B9
:100982004380029000457406F0A37466F0D394AEDF
:1009920074069403501CA3E004F0E0C3940A4017C9
:1009A200740AF090005FE04480F0900048740AF00E
:1009B2008005E4900047F0900048E0600414F08065
:0C09C2000790005FE0547FF05380FD229E
:070D140075C820E4F58A22F6
:100C0D00EDC3940F40027D0FEFB40106ED25E0F525
:0C0C1D00D822AF05EF25E04401F5D822F5
:100A170075A18BE4F5ACF591F5DEF580F5D375D2CC
:100A270020F5B1F5ADF592F588F5D5F5D475B9C0D2
:100A3700F5AEF593F59075D60A75C102F5AFF59841
:100A4700F5EE75C901F5A3F594F5A0F5EF75D11F7E
:070A5700F595F5B0F5FF2253
:100BEB00759D07EF4480F59C439C4000E59CF420E9
:100BFB00E4FAE59F540FFEAD9E7C00E42DFFEC3E26
:020C0B00FE22C7
:100BC300AC06EC901012F0A3EFF09010107401F04B
:100BD300A37464F0901010E04480F0901011E0F4DE
:080BE30020E4F8E054EFF022D9
:0A005900EF1F70011E144E70F72215
:100B600038407080A8C004B00004080C1014181C91
:100B70002000010203040506070800010203040522
:100B800006070814050000066607AE085108F509B7
:070B90009909EB0A8F0B33FA
:10000300EE25E02400F582E43400F583E0FCA3E070
:10001300FDEF25E02400F582E43400F58322F0A30C
:10002300F0A3F0A3F022900B6693FF74019390006A
:100033001CCFF0A3EFF02290000BE0947B90000A1A
:10004300E0940022E490000FF0A3F022EEF0A3EF7F
:06005300F07F0A7E00228E
:1008D000900052743CF0A3F090004A7402F0E4904F
:1008E000005FF0A3F0900015F090001812002112A4
:1008F0000029E490001F120021A3120021A3F0A3FD
:10090000F0A3743CF0E490002CF0A3F0A3F090006E
:100910004512002190000AF0A3F0900012F012009E
:1009200048A3F0900014F0900013F090000CF0A396
:04093000F0A3F0221E
:100A5E00900049E06401703690002DE0FF3395E080
:100A6E00FE90002CE0C39FEE6480F8748098501EB8
:100A7E00900017E0B4011790000CE0B40110900044
:100A8E0012E0700A90005FE070047F0180027F0028
:060A9E00900015EFF022AC
:1009340090002DE0FFA3E02FF0E4900015F090006C
:100944002EE0C3648094A04034900049E0640170B8
:100954001E900017E0B4011790000CE0B401109051
:100964000012E0700A90005FE070047F0180027F53
:0E09740000900015EFF090002EE024E0F0223D
:1006CE0090004BE025E02485F582E4340BF583E4BD
:1006DE0093FE740193FF9000177401F0C390001BFA
:1006EE00E09F90001AE09E4023E4900017F0120065
:1006FE002990001BE094D690001AE0940B400D90C8
:10070E00005FE04440F0900025740AF0900025E070
:10071E00700790005FE054BFF090002CE004F0E012
:10072E00C394204029E4F090001CE07002A3E090F6
:10073E0000306011E075F009A42470F582E4340BEA
:10074E00F583E48004E0900B839390002DF0020972
:01075E003466
:100C7B00E490000DF0900015E0B4010A43808090E1
:0A0C8B00000D7401F02253807F2257
:0F0CDB00900015E0B401044380802253807F22F3
:100628004380027F0E120BEB90000AEEF0A3EFF06E
:10063800A37401F0A3E0B40118120047D312003AE2
:10064800507390005FE04402F0900014740AF08048
:1006580064C312003A401E900010E004F070069047
:10066800000FE004F0E490000CF0900012E0701429
:10067800743CF0800F12004790005FE054FEF0E4F5
:1006880090000EF090000FE0FEA3E0FFD39410EE70
:10069800940E4021EF9468EE9410500990005FE0AA
:1006A8004401F0801090000F7410F0A37468F0906B
:1006B800000E7401F0900014E0700790005FE054A1
:0606C800FDF05380FD224D
:100AE700438002E490006CF07F0D120BEB90006CDA
:100AF700E012001512004F120BC363800290006CC6
:100B0700E004F0E0C3940540DF5380FD120AA4908F
:0E0B17000006E0FFA3E0900018CFF0A3EFF07F
:010B250022AD
:1007F000438002E490006CF07F0B120BEB90006CD6
:10080000E012001512004F120BC363800290006CBF
:10081000E004F0E0C3940540DF900002E0FEA3E0B6
:10082000FF900001E02FFF900000E03EFE900005E9
:10083000E02FFF900004E03EFE900007E02FFF90C5
:100840000006E03EFE900009E02FFF900008E03E29
:10085000FE7C007D051203FF90001AEEF0A3EFF07E
:030860005380FDC5
:010863002272
:100AA400E4FFAE07EEC394055032120003E0FAA34C
:100AB400E0FBD39DEA9C402190006DEAF0A3EBF0AB
:100AC400120003ECF0A3EDF090006DE0FCA3E0FD58
:100AD400EE120015ECF0A3EDF00E80C80FEF6405E4
:020AE40070C0E0
:010AE60022ED
:100B9700A3F07460901011F09010107481F022FE91
:100BA700FDFCE0F8A3E0F9A3E0FAA3E0FB22900044
:0C0BB70066E0FCA3E0FDA3E0FEA3E0224A
:0A0D020075B42075B20C43B28122D3
:0C0CEA00EFB4010443AA022253AAFD2229
:0C0CF600EFB4010443AA012253AAFE221D
:100C4500AD07AC06ECF5C5AF058FC475C24075C3DD
:0B0C550081E5C2F420E4FA53C2EF2254
:100C2900AC06EC901012F0A3EFF07440120B9B90FD
:0C0C39001011E0F420E4F8E054EFF02289
:100C6000EF25E0FFEE33901012F0EF120B9790108B
:0A0C700011E0F420E4F8E054EFF086
:010C7A002257
:06057D009000621204B4BC
:10058300E47F02900062120BA612045490006612DC
:1005930004B4120BB5C3940AFFEE9400020615E4EB
:1005A300FF900066120BA6D31204A34077E47FFFEB
:1005B3007EFFFDFC900066E0F8A3A3A3E0D3120442
:1005C300A340067EFF7FFF800A900066A3A3E0FEA0
:1005D300A3E0FF90006AEEF0A3EFF090006AE0FC66
:1005E300A3E0FDEC901012F0ED120B97901011E0C8
:1005F300F420E4F8E054EFF0120BB5FFC006C00797
:10060300A3E0FEA3E0FBAA06D007D006C3EF9BFF3F
:10061300EE9AFEED9400FDEC9400FC90006612044B
:04062300B40205A276
:0106270022B0
:03006B00020CC7BD
:100CC700C0E0C083C082900056E06401F0D082D0BB
:040CD70083D0E032B4
:0300630002006632
:02006600003266
:100B2600900059E4F0A3743CF090005C227402F04B
:100B360090004CE0FFF422C2B3C2A0C2B4C2B2C25B
:100B46008322E4F090004CE022900059E4F0A37474
:0A0B56003CF022D2B3D2A0D2B422A8
:1004C000208B4490004DE004F0E0C3943C40417424
:1004D0003C120B3530E039EF4401F0900049E06404
:1004E00001F0E4900059F0A3F0A3F0900049E0601F
:1004F0001F1208D0900B64E493FF74019390005492
:10050000CFF0A3EFF0800990004D120B4854FEF09D
:1005100020852B900050E004F0E0C39402402812A4
:100520000B3330E322EF4408F0900049E0B40117A8
:1005300090004BE0C39408500EE004F08009900056
:1005400050120B4854F7F0208426900051E004F03C
:10055000E0C394024026120B3330E420EF4410F045
:10056000900049E0B4011590004BE0600F14F022B8
:0D057000E4900051F090004CE054EFF022B8
:10017300900052E0600302022E743CF0900012E003
:10018300600214F0900014E0600214F0900022E08A
:10019300600214F0900023E0600214F0900024E069
:1001A300600214F0900025E0600214F0900048E033
:1001B300600214F0900058E06003E014F090001C1B
:1001C300E07002A3E0600E90001DE024FFF09000B9
:1001D3001CE034FFF0900029E0600214F090002A44
:1001E300E07002A3E0600E90002BE024FFF090008B
:1001F3002AE034FFF0900027E004F0700690002618
:10020300E004F0900054E07002A3E0600E9000550B
:10021300E024FFF0900054E034FFF0900053E070CE
:1002230005743CF0800B9000538003900052E0145F
:10023300F0900058E0900054E07002A3E060069054
:100243000049E0700FE490005FF0900049F09000E7
:0502530054F0A3F022AD
:10006E0090005BE0FFC390005AE09F900059E0942F
:10007E00004009900049E0B40108800690005C74CD
:10008E000AF0900059E07002A3E06003020155905F
:10009E000060E06013120B4F900060E030E00690BD
:1000AE00005C740DF002012790005FE0FF60773076
:1000BE00E009120B267401F0020127EF30E109125C
:1000CE000B267402F0020127EF30E208120B2674A1
:1000DE0003F08045EF30E308120B267404F08039EC
:1000EE00EF30E408120B267405F0802DEF30E50892
:1000FE00120B267406F08021EF30E608120B2674E0
:10010E0007F08015EF90005930E708120B2974089C
:10011E00F08006120B297409F0900059E0C313A366
:10012E00E013A3F0802F120B4F900049E0B4010AA8
:10013E0090004BE090005CF0800690005C740FF035
:10014E00E490005BF0800E90005AE024FFF09000E7
:10015E0059E034FFF0120D0C90005CE0FF12032FFB
:05016E00E4FF020D1B7F
:080D0C00120B3DC2B0C2B1227E
:10032F00EFB4100040030203FE90033FF828287338
:10033F0002036F02037502037902038602038F0221
:10034F00039302039D0203A30203AB0203B3020351
:10035F00BF0203CE0203D30203DF0203EB0203CE7D
:10036F00120B590203F1C2B3802CD2B3D2A0C2B484
:10037F00D2B2D2830203FA120B59D2B2C283806B6C
:10038F00C2B38022D2B3C2A0D2B4D2B2801EC2B343
:10039F00C2A0800CD2B3D2A0D2B4801AD2B3D2A052
:1003AF00D2B48026D2B3D2A0D2B4C2B2C283802735
:1003BF00C2B3C2A0C2B4C2B2C283C2B0C2B122120F
:1003CF000B3D8027D2B3C2A0C2B4D2B2D283800772
:1003DF00120B59C2B2D283D2B0D2B122D2B3C2A0C1
:1003EF00C2B4D2B2D283D2B0C2B122C2B0D2B12281
:060D1B0090006CEFF022D5
:10075F0053A87F120D147D0FE4FF120C0D120A1710
:10076F0043A8801208641208D0120CAFE59830E34A
:10077F00FB90002CE0700543800180035380FE90B6
:10078F00000EE0B401034398027F687E10120BC382
:10079F005398FD1202581206287FE87E03120BC3EE
:1007AF00120AE71209821201731204C0120CDBE560
:1007BF009820E3FB12006E7FC47E09120BC37FE803
:1007CF007E03120BC31209CE7FE87E03120BC312F6
:1007DF0007F01206CE7FE87E03120BC3120C7B804C
:0107EF008B7E
:10086400E4900049F0900057F0A37414F0E4900071
:100874004CF0A3F0A3F0900059F0A3F0A3F0900083
:100884004B7404F0E490004AF0900061F090005E34
:10089400F090005C740AF0E490005FF0A3F0900024
:1008A4004304F0A3742CF09000307402F0E4900040
:1008B4003EF090002FF0900015F090002CF0A3F083
:0C08C400A3F053807F5380FD5380FE2280
:100CAF007F1EE490006CF0E59830E3FBE59820E3BD
:070CBF00FBEF60031F80F052
:010CC600220B
:03000000020C955A
:100C950078FFE4F6D8FD9000007F007E09E4F0A31C
:0A0CA500DFFCDEFA75810702075F2D
:1003FF00BC000BBE0029EF8DF084FFADF022E4CCE2
:10040F00F875F008EF2FFFEE33FEEC33FCEE9DECAA
:10041F00984005FCEE9DFE0FD5F0E9E4CEFD22EDF0
:10042F00F8F5F0EE8420D21CFEADF075F008EF2F3A
:10043F00FFED33FD4007985006D5F0F222C398FD2B
:05044F000FD5F0EA22C8
:10045400E88FF0A4CC8BF0A42CFCE98EF0A42CFC47
:100464008AF0EDA42CFCEA8EF0A4CDA8F08BF0A4C5
:100474002DCC3825F0FDE98FF0A42CCD35F0FCEB24
:100484008EF0A4FEA9F0EB8FF0A4CFC5F02ECD39E9
:0F049400FEE43CFCEAA42DCE35F0FDE43CFC2256
:1004A300EB9FF5F0EA9E42F0E99D42F0E89C45F0AF
:0104B3002226
:0C04B400ECF0A3EDF0A3EEF0A3EFF022BB
:00000001FF
