:1009B600438002E4FF120BD4900041EEF0A3EFF067
:1009C600A3E07002A3E06026900044E024FFF090CC
:1009D6000043E034FFF0C3900042E094669000418B
:1009E600E09406900060E040094401F08007900022
:0909F60060E054FEF05380FD2284
:100258004380027F0F120BD490003DE0FD04F0EDC7
:1002680025E02431F582E43400F583EEF0A3EFF0C5
:1002780090003DE0C394054049E4F0900033E0FE6F
:10028800A3E0FF900032E02FFF900031E03EFE90A7
:100298000036E02FFF900035E03EFE900038E02F5A
:1002A800FF900037E03EFE90003AE02FFF900039C3
:1002B800E03EFE7C007D051203FF90003BEEF0A3BC
:1002C800EFF090003BE0FEA3E0FFC3945EEE940ADB
:1002D800400D9000307402F090003E14F0802CC362
:1002E800EF945CEE940740099000307401F0E480CC
:1002F8000EC3EF9454EE94075011E4900030F09040
:10030800003EF0A37403F0A37484F090003FE07003
:1003180002A3E0600E900040E024FFF090003FE070
:0703280034FFF05380FD22B9
:10096A004380029000457406F0A37466F0D394AEF7
:10097A0074069403501CA3E004F0E0C3940A4017E1
:10098A00740AF090005FE04480F0900048740AF026
:10099A008005E4900047F0900048E0600414F0807D
:0C09AA000790005FE0547FF05380FD22B6
:070CFD0075C820E4F58A220E
:100BF600EDC3940F40027D0FEFB40106ED25E0F53D
:0C0C0600D822AF05EF25E04401F5D8220C
:1009FF0075A18BE4F5ACF591F5DEF580F5D375D2E5
:100A0F0020F5B1F5ADF592F588F5D5F5D475B9C0EA
:100A1F00F5AEF593F59075D60A75C102F5AFF59859
:100A2F00F5EE75C901F5A3F594F5A0F5EF75D11F96
:070A3F00F595F5B0F5FF226B
:100BD400759D07EF4480F59C439C4000E59CF42000
:100BE400E4FAE59F540FFEAD9E7C00E42DFFEC3E3D
:020BF400FE22DF
:100BAC00AC06EC901012F0A3EFF09010107401F062
:100BBC00A37464F0901010E04480F0901011E0F4F5
:080BCC0020E4F8E054EFF022F0
:0A005900EF1F70011E144E70F72215
:100B480038407080A8C004B00004080C1014181CA9
:100B5800200001020304050607080001020304053A
:100B68000607081405050000066607AE085108F5D3
:080B7800099909EB0A8F0B3308
:10000300EE25E02400F582E43400F583E0FCA3E070
:10001300FDEF25E02400F582E43400F58322F0A30C
:10002300F0A3F0A3F022900B4E93FF740193900082
:100033001CCFF0A3EFF02290000BE0947B90000A1A
:10004300E0940022E490000FF0A3F022EEF0A3EF7F
:06005300F07F0A7E00228E
:1008B800900052743CF0A3F090004A7402F0E49067
:1008C800005FF0A3F0900015F090001812002112BC
:1008D8000029E490001F120021A3120021A3F0A315
:1008E800F0A3743CF0E490002CF0A3F0A3F0900087
:1008F8004512002190000AF0A3F0900012F01200B7
:1009080048A3F0900014F0900013F090000CF0A3AE
:04091800F0A3F02236
:100A4600900049E06401703690002DE0FF3395E098
:100A5600FE90002CE0C39FEE6480F8748098501ED0
:100A6600900017E0B4011790000CE0B4011090005C
:100A760012E0700A90005FE070047F0180027F0040
:060A8600900015EFF022C4
:10091C0090002DE0FFA3E02FF0E4900015F0900084
:10092C002EE0C3648094A04034900049E0640170D0
:10093C001E900017E0B4011790000CE0B401109069
:10094C000012E0700A90005FE070047F0180027F6B
:0E095C0000900015EFF090002EE024E0F02255
:10075F0090004BE025E0246EF582E4340BF583E442
:10076F0093FE740193FF9000177401F0C390001B68
:10077F00E09F90001AE09E4023E4900017F01200D3
:10078F002990001BE094D690001AE0940B400D9036
:10079F00005FE04440F0900025740AF0900025E0DF
:1007AF00700790005FE054BFF090002CE004F0E081
:1007BF00C394204013E4F090001CE07002A3E0907B
:0B07CF000B58E49390002DF002091C71
:100C6400E490000DF0900015E0B4010A43808090F8
:0A0C7400000D7401F02253807F226E
:0F0CC400900015E0B401044380802253807F220A
:100628004380027F0E120BD490000AEEF0A3EFF085
:10063800A37401F0A3E0B40118120047D312003AE2
:10064800507390005FE04402F0900014740AF08048
:1006580064C312003A401E900010E004F070069047
:10066800000FE004F0E490000CF0900012E0701429
:10067800743CF0800F12004790005FE054FEF0E4F5
:1006880090000EF090000FE0FEA3E0FFD39410EE70
:10069800940E4021EF9468EE9410500990005FE0AA
:1006A8004401F0801090000F7410F0A37468F0906B
:1006B800000E7401F0900014E0700790005FE054A1
:0606C800FDF05380FD224D
:100ACF00438002E490006CF07F0D120BD490006C09
:100ADF00E012001512004F120BAC63800290006CF5
:100AEF00E004F0E0C3940540DF5380FD120A8C90C0
:0E0AFF000006E0FFA3E0900018CFF0A3EFF098
:010B0D0022C5
:1007DA00438002E490006CF07F0B120BD490006C03
:1007EA00E012001512004F120BAC63800290006CED
:1007FA00E004F0E0C3940540DF900002E0FEA3E0CD
:10080A00FF900001E02FFF900000E03EFE900005FF
:10081A00E02FFF900004E03EFE900007E02FFF90DB
:10082A000006E03EFE900009E02FFF900008E03E3F
:10083A00FE7C007D051203FF90001AEEF0A3EFF094
:03084A005380FDDB
:01084D002288
:100A8C00E4FFAE07EEC394055032120003E0FAA364
:100A9C00E0FBD39DEA9C402190006DEAF0A3EBF0C3
:100AAC00120003ECF0A3EDF090006DE0FCA3E0FD70
:100ABC00EE120015ECF0A3EDF00E80C80FEF6405FC
:020ACC0070C0F8
:010ACE002205
:100B8000A3F07460901011F09010107481F022FEA8
:100B9000FDFCE0F8A3E0F9A3E0FAA3E0FB2290005B
:0C0BA00066E0FCA3E0FDA3E0FEA3E02261
:0A0CEB0075B42075B20C43B28122EB
:0C0CD300EFB4010443AA022253AAFD2240
:0C0CDF00EFB4010443AA012253AAFE2234
:100C2E00AD07AC06ECF5C5AF058FC475C24075C3F4
:0B0C3E0081E5C2F420E4FA53C2EF226B
:100C1200AC06EC901012F0A3EFF07440120B84902B
:0C0C22001011E0F420E4F8E054EFF022A0
:100C4900EF25E0FFEE33901012F0EF120B809010B9
:0A0C590011E0F420E4F8E054EFF09D
:010C6300226E
:06057D009000621204B4BC
:10058300E47F02900062120B8F12045490006612F3
:1005930004B4120B9EC3940AFFEE9400020615E402
:1005A300FF900066120B8FD31204A34077E47FFF02
:1005B3007EFFFDFC900066E0F8A3A3A3E0D3120442
:1005C300A340067EFF7FFF800A900066A3A3E0FEA0
:1005D300A3E0FF90006AEEF0A3EFF090006AE0FC66
:1005E300A3E0FDEC901012F0ED120B80901011E0DF
:1005F300F420E4F8E054EFF0120B9EFFC006C007AE
:10060300A3E0FEA3E0FBAA06D007D006C3EF9BFF3F
:10061300EE9AFEED9400FDEC9400FC90006612044B
:04062300B40205A276
:0106270022B0
:03006B00020CB0D4
:100CB000C0E0C083C082900056E06401F0D082D0D2
:040CC00083D0E032CB
:0300630002006632
:02006600003266
:100B0E00900059E4F0A3743CF090005C227402F063
:100B1E0090004CE0FFF422C2B3C2A0C2B4C2B2C273
:100B2E008322E4F090004CE022900059E4F0A3748C
:0A0B3E003CF022D2B3D2A0D2B422C0
:1004C000208B4490004DE004F0E0C3943C40417424
:1004D0003C120B1D30E039EF4401F0900049E0641C
:1004E00001F0E4900059F0A3F0A3F0900049E0601F
:1004F0001F1208B8900B4CE493FF740193900054C2
:10050000CFF0A3EFF0800990004D120B3054FEF0B5
:1005100020852B900050E004F0E0C39402402812A4
:100520000B1B30E322EF4408F0900049E0B40117C0
:1005300090004BE0C39408500EE004F08009900056
:1005400050120B3054F7F0208426900051E004F054
:10055000E0C394024026120B1B30E420EF4410F05D
:10056000900049E0B4011590004BE0600F14F022B8
:0D057000E4900051F090004CE054EFF022B8
:10017300900052E0600302022E743CF0900012E003
:10018300600214F0900014E0600214F0900022E08A
:10019300600214F0900023E0600214F0900024E069
:1001A300600214F0900025E0600214F0900048E033
:1001B300600214F0900058E06003E014F090001C1B
:1001C300E07002A3E0600E90001DE024FFF09000B9
:1001D3001CE034FFF0900029E0600214F090002A44
:1001E300E07002A3E0600E90002BE024FFF090008B
:1001F3002AE034FFF0900027E004F0700690002618
:10020300E004F0900054E07002A3E0600E9000550B
:10021300E024FFF0900054E034FFF0900053E070CE
:1002230005743CF0800B9000538003900052E0145F
:10023300F0900058E0900054E07002A3E060069054
:100243000049E0700FE490005FF0900049F09000E7
:0502530054F0A3F022AD
:10006E0090005BE0FFC390005AE09F900059E0942F
:10007E00004009900049E0B40108800690005C74CD
:10008E000AF0900059E07002A3E06003020155905F
:10009E000060E06013120B37900060E030E00690D5
:1000AE00005C740DF002012790005FE0FF60773076
:1000BE00E009120B0E7401F0020127EF30E1091274
:1000CE000B0E7402F0020127EF30E208120B0E74D1
:1000DE0003F08045EF30E308120B0E7404F0803904
:1000EE00EF30E408120B0E7405F0802DEF30E508AA
:1000FE00120B0E7406F08021EF30E608120B0E7410
:10010E0007F08015EF90005930E708120B117408B4
:10011E00F08006120B117409F0900059E0C313A37E
:10012E00E013A3F0802F120B37900049E0B4010AC0
:10013E0090004BE090005CF0800690005C740FF035
:10014E00E490005BF0800E90005AE024FFF09000E7
:10015E0059E034FFF0120CF590005CE0FF12032F13
:05016E00E4FF020D0496
:080CF500120B25C2B0C2B122AE
:10032F00EFB4100040030203FE90033FF828287338
:10033F0002036F02037502037902038602038F0221
:10034F00039302039D0203A30203AB0203B3020351
:10035F00BF0203CE0203D30203DF0203EB0203CE7D
:10036F00120B410203F1C2B3802CD2B3D2A0C2B49C
:10037F00D2B2D2830203FA120B41D2B2C283806B84
:10038F00C2B38022D2B3C2A0D2B4D2B2801EC2B343
:10039F00C2A0800CD2B3D2A0D2B4801AD2B3D2A052
:1003AF00D2B48026D2B3D2A0D2B4C2B2C283802735
:1003BF00C2B3C2A0C2B4C2B2C283C2B0C2B122120F
:1003CF000B258027D2B3C2A0C2B4D2B2D28380078A
:1003DF00120B41C2B2D283D2B0D2B122D2B3C2A0D9
:1003EF00C2B4D2B2D283D2B0C2B122C2B0D2B12281
:060D040090006CEFF022EC
:1006CE0053A87F120CFD7D0FE4FF120BF61209FFEB
:1006DE0043A88012084E1208B8120C98E59830E321
:1006EE00FB90002CE0700543800180035380FE9048
:1006FE00000EE0B401034398027F5C7E12120BAC35
:10070E005398FD1202581206287FE87E03120BAC96
:10071E00120ACF12096A1201731204C0120CC4E538
:10072E009820E3FB12006E7FC47E09120BAC7FE8AB
:10073E007E03120BAC1209B67FE87E03120BAC12CD
:10074E0007DA12075F7FE87E03120BAC120C64808F
:01075E008B0F
:10084E00E4900049F0900057F0A37414F0E4900087
:10085E004CF0A3F0A3F0900059F0A3F0A3F0900099
:10086E004B7404F0E490004AF0900061F090005E4A
:10087E00F090005C740AF0E490005FF0A3F090003A
:10088E004304F0A3742CF0E4900030F090003EF09E
:10089E0090002FF0900015F090002CF0A3F0A3F034
:0A08AE0053807F5380FD5380FE222B
:100C98007F1EE490006CF0E59830E3FBE59820E3D4
:070CA800FBEF60031F80F069
:010CAF002222
:03000000020C7E71
:100C7E0078FFE4F6D8FD9000007F007E09E4F0A333
:0A0C8E00DFFCDEFA7581070206CED6
:1003FF00BC000BBE0029EF8DF084FFADF022E4CCE2
:10040F00F875F008EF2FFFEE33FEEC33FCEE9DECAA
:10041F00984005FCEE9DFE0FD5F0E9E4CEFD22EDF0
:10042F00F8F5F0EE8420D21CFEADF075F008EF2F3A
:10043F00FFED33FD4007985006D5F0F222C398FD2B
:05044F000FD5F0EA22C8
:10045400E88FF0A4CC8BF0A42CFCE98EF0A42CFC47
:100464008AF0EDA42CFCEA8EF0A4CDA8F08BF0A4C5
:100474002DCC3825F0FDE98FF0A42CCD35F0FCEB24
:100484008EF0A4FEA9F0EB8FF0A4CFC5F02ECD39E9
:0F049400FEE43CFCEAA42DCE35F0FDE43CFC2256
:1004A300EB9FF5F0EA9E42F0E99D42F0E89C45F0AF
:0104B3002226
:0C04B400ECF0A3EDF0A3EEF0A3EFF022BB
:00000001FF
