:100B6600438002E4FF120D5490003DEEF0A3EFF037
:100B7600A3E07002A3E06026900040E024FFF0901E
:100B8600003FE034FFF0C390003EE0946690003DE5
:100B9600E0940690005CE040094401F08007900074
:090BA6005CE054FEF05380FD22D6
:100485004380027F0F120D54900039E0FD04F0ED1A
:1004950025E0242DF582E43400F583EEF0A3EFF09A
:1004A500900039E0C394054049E4F090002FE0FE48
:1004B500A3E0FF90002EE02FFF90002DE03EFE9080
:1004C5000032E02FFF900031E03EFE900034E02F37
:1004D500FF900033E03EFE900036E02FFF900035A0
:1004E500E03EFE7C007D05120621900037EEF0A36C
:1004F500EFF0900037E0FEA3E0FFC3945EEE940AB0
:10050500400CE490002CF090003A04F08025C3EFF5
:10051500946EEE940640028009C3EF945EEE940655
:100525005011E490002CF090003AF0A37403F0A36E
:100535007484F090003BE07002A3E0600E90003CF4
:0F054500E024FFF090003BE034FFF05380FD22F4
:100B1A004380029000417406F0A37466F0D394AE49
:100B2A0074069403501CA3E004F0E0C3940A40172F
:100B3A00740AF090005BE04480F0900044740AF07C
:100B4A008005E4900043F0900044E0600414F080D3
:0C0B5A000790005BE0547FF05380FD2208
:070E5E0075C820E4F58A22AB
:100D7600EDC3940F40027D0FEFB40106ED25E0F5BB
:0C0D8600D822AF05EF25E04401F5D8228B
:100BAF0075A18BE4F5ACF591F5DEF580F5D375D233
:100BBF0020F5B1F5ADF592F588F5D575D40275B977
:100BCF00C4F5AEF593F59075D60A75C102F5AFF57C
:100BDF0098F5EE75C901F5A3F594F5A0F5EF75D16C
:080BEF001FF595F5B0F5FF229A
:100D5400759D07EF4480F59C439C4000E59CF4207E
:100D6400E4FAE59F540FFEAD9E7C00E42DFFEC3EBB
:020D7400FE225D
:100D0900AC06EC901012F0A3EFF09010107401F003
:100D1900A37464F0901010E04480F0901011E0F496
:080D290020E4F8E054EFF02291
:0A0E4200EF1F70011E144E70F7221E
:100AC400190715061F1D1B19171511080807070616
:100AD40006031F09038404B005DC0000003C007811
:100AE40000B400F0012C0168016801680005090DDB
:100AF4001115191D1F0002030405060708090666DF
:100B0400070A070A0FFF019A042905C2075C08F5C2
:060B14000A8F0C280CCC36
:1009EB00EE25E02400F582E43400F583E0FCA3E07F
:1009FB00FDEF25E02400F582E43400F58322F0A31B
:100A0B00F0A3F0A3F022900047E025E024DEF5826E
:100A1B00E4340AF583E493FF740193900027CFF03D
:100A2B00A3EFF022900023E094012290000BE094BE
:100A3B003390000AE0940322900029E0FFA3E0FE2C
:100A4B00C39F22900023E0940222EEF0A3EFF07FED
:040A5B000A7E0022ED
:1000030090004E743CF0A3F09000467402F0E4902C
:10001300005BF0A3F0900014F0900017120A09900F
:10002300001C120A09A3120A09A3F0A3F0A3743C4B
:10003300F0120A11E4A3F0A3F0900041120A099010
:10004300000AF0A3F0900011F090000EF0A3F0A3CB
:10005300F0900013F0900012F090000CF0A3F02247
:10006E0090002AE0641F60030202277B667A0690E6
:10007E00001504F0900017E0FEA3E0FFC39BEE9A7C
:10008E004014EF94D6EE940F402D90005BE0441098
:10009E00F0900020801EE4900015F0D3900018E040
:1000AE0094F6900017E09400500D90005BE0440829
:1000BE00F090001F740AF0900047E025E02408F548
:1000CE0082E4340BF583E493FA740193FB900016EB
:1000DE007401F0C390001AE09B900019E09A402042
:1000EE00E4900016F090001AE094D6900019E09477
:1000FE000F400D90005BE04440F0900022740AF037
:10010E00900026E06003120A11900047E07003028F
:10011E000218900027E07002A3E0600C90002CE023
:10012E00900AD693900029F090002CE0FF900AC41C
:10013E0093FE900029E0C39E50030201D490002448
:10014E00E0942C120A2F40069000257401F0C39003
:10015E000024E09468120A2F40069000257402F0E5
:10016E00C3900024E094A4120A2F40069000257438
:10017E0003F0C3900024E094E0120A2F4006900092
:10018E00257404F0C3900024E0941C120A4E40061D
:10019E009000257405F0C3900024E09458120A4E86
:1001AE0040069000257406F0C3900024E09494124B
:1001BE000A4E402C9000257407F09000237402F034
:1001CE00A37494F0801AE4900023F0A3F0EF900A49
:1001DE00C693FF900029E0D39F5005E4900025F0D0
:1001EE00900025E0FF603290002CE075F007A4240B
:1001FE00C7F582E4340AF583E5822FF582E4358370
:10020E00F583E493900029F0800FE4900027F0A38B
:10021E00F0900023F0A3F0A3F09000157401F0907D
:10022E00001FE0700790005BE054F7F0900020E0B4
:10023E00700790005BE054EFF0900021E0700790A3
:10024E00005BE054DFF0900022E0700790005BE06E
:10025E0054BFF090002AE004F0E0D3941F4002E473
:10026E00F0900045E064017024900015E064017088
:10027E001CA3E0B4011790000CE0B4011090001123
:10028E00E0700A90005BE070047F0180027F0090B6
:04029E000014EFF069
:0102A2002239
:100CDF00E490000DF0120A435019900014E0B40193
:100CEF0018438080E4C39E501043980290000D7407
:0A0CFF0001F02253807F5398FD227C
:100D3100120A435017900014E0640170154380803B
:100D4100EF14FFEEC39F50074398022253807F5355
:030D510098FD22E8
:1008E4004380027F0E120D5490000AEEF0A3EFF045
:1008F400A37401F0A3E0B4011AE4A3F0A3F0D312AB
:100904000A36505E90005BE04402F0900013740AD3
:10091400F0804FC3120A36401E90000FE004F070BE
:100924000690000EE004F0E490000CF0900011E05A
:100934007013743CF0800EE490000EF0A3F090006D
:100944005BE054FEF0C390000FE0946890000EE06A
:100954009410400E7410F0A37468F090005BE044AF
:1009640001F0900013E0700790005BE054FDF05339
:0309740080FD22E1
:100C3A00438002E4900068F07F0D120D5490006822
:100C4A00E01209FD120A55120D096380029000682C
:100C5A00E004F0E0C3940540DF5380FD120BF790E7
:0E0C6A000006E0FFA3E0900017CFF0A3EFF02C
:010C78002259
:10097700438002E4900068F07F0B120D54900068EA
:10098700E01209FD120A55120D09638002900068F2
:10099700E004F0E0C3940540DF900002E0FEA3E02E
:1009A700FF900001E02FFF900000E03EFE90000561
:1009B700E02FFF900004E03EFE900007E02FFF903D
:1009C7000006E03EFE900009E02FFF900008E03EA1
:1009D700FE7C007D05120621900019EEF0A3EFF0D2
:0309E7005380FD3D
:0109EA0022EA
:100BF700E4FFAE07EEC3940550321209EBE0FAA307
:100C0700E0FBD39DEA9C4021900069EAF0A3EBF05A
:100C17001209EBECF0A3EDF0900069E0FCA3E0FD16
:100C2700EE1209FDECF0A3EDF00E80C80FEF64059E
:020C370070C08B
:010C39002298
:100CB300A3F07460901011F09010107481F022FE74
:100CC300FDFCE0F8A3E0F9A3E0FAA3E0FB22900027
:0C0CD30062E0FCA3E0FDA3E0FEA3E02231
:0A0E4C0075B42075B20C43B2812288
:0C0E2A00EFB4010443AA022253AAFD22E7
:0C0E3600EFB4010443AA012253AAFE22DB
:100DAE00AD07AC06ECF5C5AF058FC475C24075C373
:0B0DBE0081E5C2F420E4FA53C2EF22EA
:100D9200AC06EC901012F0A3EFF07440120CB79076
:0C0DA2001011E0F420E4F8E054EFF0221F
:100DC900EF25E0FFEE33901012F0EF120CB3901004
:0A0DD90011E0F420E4F8E054EFF01C
:010DE30022ED
:06079F0090005E1206D678
:1007A500E47F0290005E120CC2120676900062127F
:1007B50006D6120CD1C3940AFFEE9400020837E462
:1007C500FF900062120CC2D31206C54077E47FFF8A
:1007D5007EFFFDFC900062E0F8A3A3A3E0D3120620
:1007E500C540067EFF7FFF800A900062A3A3E0FE5E
:1007F500A3E0FF900066EEF0A3EFF0900066E0FC4A
:10080500A3E0FDEC901012F0ED120CB3901011E086
:10081500F420E4F8E054EFF0120CD1FFC006C00755
:10082500A3E0FEA3E0FBAA06D007D006C3EF9BFF1B
:10083500EE9AFEED9400FDEC9400FC900062120629
:04084500D60207C40C
:01084900228C
:03006B00020E166C
:100E1600C0E0C083C082900052E06401F0D082D06E
:040E260083D0E03263
:0300630002006632
:02006600003266
:100C7900900055E4F0A3743CF0900058227402F0FF
:100C8900900048E0FFF422C2B3C2A0C2B4C2B2C20B
:100C99008322E4F0900048E022900055E4F0A37428
:0A0CA9003CF022D2B3D2A0D2B42254
:1006E200208B44900049E004F0E0C3940C40417434
:1006F2000C120C8830E039EF4401F0900045E064C0
:1007020001F0E4900055F0A3F0A3F0900045E06002
:100712001F120003900ADCE493FF740193900050CF
:10072200CFF0A3EFF08009900049120C9B54FEF029
:1007320020862B90004CE004F0E0C3940240281283
:100742000C8630E322EF4408F0900045E0B4011734
:10075200900047E0C39408500EE004F08009900036
:100762004C120C9B54F7F020842690004DE004F0CC
:10077200E0C394024026120C8630E420EF4410F0CD
:10078200900045E0B40115900047E0600F14F0229C
:0D079200E490004DF0900048E054EFF0229C
:1005540090004EE060030205F7743CF0900011E057
:10056400600214F0900013E0600214F090001FE0A9
:10057400600214F0900020E0600214F0900021E08A
:10058400600214F0900022E0600214F0900044E055
:10059400600214F0900054E06003E014F090002630
:1005A400E0600214F0900027E07002A3E0600E9077
:1005B4000028E024FFF0900027E034FFF0900024AE
:1005C400E004F07006900023E004F0900050E07026
:1005D40002A3E0600E900051E024FFF0900050E090
:1005E40034FFF090004FE07005743CF0800B9000F5
:1005F4004F800390004EE014F0900054E0900050BF
:10060400E07002A3E06006900045E0700FE4900003
:0D0614005BF0900045F0900050F0A3F02244
:1002A300900057E0FFC3900056E09F900055E09404
:1002B300004016900045E0B40115A3E0FF60106410
:1002C30001600CEFB402088006900058740AF090A5
:1002D3000055E07002A3E0600302039790005CE026
:1002E3006013120CA290005CE030E006900058749A
:1002F3000DF002036990005BE0FF607730E00912C4
:100303000C797401F0020369EF30E109120C79747E
:1003130002F0020369EF30E208120C797403F080F3
:1003230045EF30E308120C797404F08039EF30E4C0
:1003330008120C797405F0802DEF30E508120C7962
:100343007406F08021EF30E608120C797407F08010
:1003530015EF90005530E708120C7C7408F0800606
:10036300120C7C7409F0900055E0C313A3E013A3AF
:10037300F0802F120CA2900045E0B4010A900047D0
:10038300E0900058F08006900058740FF0E490005D
:1003930057F0800E900056E024FFF0900055E034B3
:1003A300FFF0120E56900058E0FF1203B5E4FF026F
:0203B3000E65D5
:080E5600120C90C2B0C2B122DF
:1003B500EFB4100040030204849003C5F8282873A5
:1003C5000203F50203FB0203FF02040C02041502FB
:1003D5000419020423020429020431020439020427
:1003E50045020454020459020465020471020454CE
:1003F500120CAC020477C2B3802CD2B3D2A0C2B423
:10040500D2B2D283020480120CACD2B2C283806B0A
:10041500C2B38022D2B3C2A0D2B4D2B2801EC2B3BC
:10042500C2A0800CD2B3D2A0D2B4801AD2B3D2A0CB
:10043500D2B48026D2B3D2A0D2B4C2B2C2838027AE
:10044500C2B3C2A0C2B4C2B2C283C2B0C2B1221288
:100455000C908027D2B3C2A0C2B4D2B2D283800797
:10046500120CACC2B2D283D2B0D2B122D2B3C2A0E6
:10047500C2B4D2B2D283D2B0C2B122C2B0D2B122FA
:060E6500900068EFF0228E
:10084A0053A87F120E5E7D0FE4FF120D76120BAFD6
:10085A0043A880120A5F120003120DFEE59830E3E6
:10086A00FB90002AE0B41F0543800180035380FEF9
:10087A007F787E05120D097F787E05120D097FD0DB
:10088A007E07120D091204851208E47F847E031282
:10089A000D09120C3A120B1A1205541206E27FF4D1
:1008AA007E01120D09120D31E59820E3FB1202A315
:1008BA007FE87E03120D097FDC7E05120D09120BFB
:1008CA00667FE87E03120D0912097712006E7FE82F
:0A08DA007E03120D09120CDF80826C
:100A5F00E4900045F0900053F0A37414F0E490007C
:100A6F0048F0A3F0A3F0900055F0A3F0A3F090008E
:100A7F00477404F0E4900046F090005DF090005A47
:100A8F00F0900058740AF0E490005BF0A3F090002F
:100A9F003F04F0A3742CF0E490002CF090003AF097
:100AAF0090002BF0900014F05398FD53807F5380EB
:050ABF00FD5380FE2242
:100DFE007F1EE4900068F0E59830E3FBE59820E371
:070E0E00FBEF60031F80F001
:010E150022BA
:03000000020DE40A
:100DE40078FFE4F6D8FD9000007F007E09E4F0A3CC
:0A0DF400DFFCDEFA75810702084AF1
:10062100BC000BBE0029EF8DF084FFADF022E4CCBD
:10063100F875F008EF2FFFEE33FEEC33FCEE9DEC86
:10064100984005FCEE9DFE0FD5F0E9E4CEFD22EDCC
:10065100F8F5F0EE8420D21CFEADF075F008EF2F16
:10066100FFED33FD4007985006D5F0F222C398FD07
:050671000FD5F0EA22A4
:10067600E88FF0A4CC8BF0A42CFCE98EF0A42CFC23
:100686008AF0EDA42CFCEA8EF0A4CDA8F08BF0A4A1
:100696002DCC3825F0FDE98FF0A42CCD35F0FCEB00
:1006A6008EF0A4FEA9F0EB8FF0A4CFC5F02ECD39C5
:0F06B600FEE43CFCEAA42DCE35F0FDE43CFC2232
:1006C500EB9FF5F0EA9E42F0E99D42F0E89C45F08B
:0106D5002202
:0C06D600ECF0A3EDF0A3EEF0A3EFF02297
:00000001FF
