:070DFA0075C820E4F58A2210
:100CF800EDC3940F40027D0FEFB40106ED25E0F53A
:0C0D0800D822AF05EF25E04401F5D82209
:100B310075A18BE4F5ACF591F5DEF580F5D375D2B1
:100B410020F5B1F5ADF592F588F5D575D42A75B9CD
:100B5100C4F5AEF593F59075D60A75C102F5AFF5FA
:100B610098F5EE75C901F5A3F594F5A0F5EF75D1EA
:080B71001FF595F5B0F5FF2218
:100CD600759D07EF4480F59C439C4000E59CF420FD
:100CE600E4FAE59F540FFEAD9E7C00E42DFFEC3E3A
:020CF600FE22DC
:100CAE00AC06EC901012F0A3EFF09010107401F05F
:100CBE00A37464F0901010E04480F0901011E0F4F2
:080CCE0020E4F8E054EFF022ED
:0A0DDE00EF1F70011E144E70F72283
:1003AA00190715061E1C1A1816141008080707063E
:1003BA0006031F0900F001E002D00000003C0078AB
:1003CA0000B400F0012C0168016801680005090DFC
:1003DA001115191D1F000203040506070809066600
:1003EA00070A070A000000000000000100010001DE
:1003FA0000010101010101010101011101110111B4
:10040A0001111111111111111111111511151115D6
:10041A0011151515151515151515155515551555C6
:10042A0015555555555555555555555755575557AC
:10043A0055575757575757575757577757775777E4
:10044A0057777777777777777777777F777F777F3A
:10045A00777F7F7F7F7F7F7F7F7F7FFF7FFF7FFF2A
:10046A007FFFFFFFFFFFFFFF00A4066607AE0851EC
:0A047A0008F5099909EB0A8F0B330E
:100B7900EE25E02433F582E43400F583E0FCA3E0BC
:100B8900FDEF25E02433F582E43400F58322F0A358
:100B9900F0A3F0A3F02290003EE094F690003DE02F
:100BA900940022E4900042F0A3F022EEF0A3EFF0CB
:050BB9007F0A7E00220E
:10098A00900023743CF0A3F090001B7402F0E490F2
:10099A000030F0A3F0900048F090004B120B9790B3
:1009AA000050120B97A3120B97A3F0A3F0A3743C69
:1009BA00F090001CE025E024C4F582E43403F583BA
:1009CA00E493FF74019390005BCFF0A3EFF09000E3
:1009DA00607420F0E4A3F0A3F0A304F0E4900016FE
:1009EA00120B9790003DF0A3F0900045F0120BAD6A
:1009FA00A3F0900047F0900046F090003FF0A3F07B
:030A0A00A3F02234
:10006E0090001CE025E02472F582E43404F583E46C
:10007E0093FE740193FF90004A7401F0C390004EFA
:10008E00E09F90004DE09E402EE490005FF09000C7
:10009E005D04F0A3742CF0E490004AF090004EE062
:1000AE0094D690004DE0940F400D900030E0444007
:1000BE00F0900056740AF090005DE07002A3E070BC
:1000CE0013900001E090006070057414F0801674B7
:1000DE0005F08011900001E090006070057420F032
:1000EE0080037408F0900053E07007900030E054E5
:1000FE00F7F0900054E07007900030E054EFF0906D
:10010E000055E07007900030E054DFF0900056E0AC
:10011E007007900030E054BFF090001AE064017058
:10012E004C900030E0704690004AE06401703E90C2
:10013E00003FE064017036900045E0703090006141
:10014E00E0FF900060E025E025E024EEF582E43447
:10015E0003F583E5822FF582E43583F583E493FF7F
:10016E00900063E0FEEF5E60047F0180027F0090EE
:10017E000048EFF0900063E025E0F0900062E004AC
:10018E00F0E0C394084012E4F0A304F0900061E0A4
:09019E0004F0E094044002E4F0D6
:0101A7002235
:100D6600E4900040F0900048E0B4010A438080908F
:0A0D760000407401F02253807F2238
:0F005100900048E0B401044380802253807F2256
:10085E004380027F0E120CD690003DEEF0A3EFF017
:10086E00A37401F0A3E0B40118120BACD3120B9FCA
:10087E005064900030E04402F0900047740AF0801B
:10088E0055C3120B9F401E900043E004F07006907B
:10089E000042E004F0E490003FF0900045E0701359
:1008AE00743CF0800E120BAC900041F0900030E0E2
:1008BE0054FEF0C3900043E09468900042E0941020
:1008CE0040147410F0A37468F09000417401F0901D
:1008DE000030E04401F0900047E07007900030E0F7
:0708EE0054FDF05380FD22D0
:100C4300438002E4900070F07F0D120CD690007088
:100C5300E0120B8B120BB4120CAE63800290007087
:100C6300E004F0E0C3940540DF5380FD120BBE9017
:0E0C73000039E0FFA3E090004BCFF0A3EFF0BC
:010C81002250
:100A0D00438002E4900071F07F0B120CD6900071C0
:100A1D00E0120B8B120BB4120CAE638002900071BE
:100A2D00E004F0E0C3940540DF900035E0FEA3E064
:100A3D00FF900034E02FFF900033E03EFE90003831
:100A4D00E02FFF900037E03EFE90003AE02FFF9040
:100A5D000039E03EFE90003CE02FFF90003BE03E71
:100A6D00FE7C007D051206F290004DEEF0A3EFF036
:030A7D005380FDA6
:010A80002253
:100BBE00E4FFAE07EEC394055032120B79E0FAA3B0
:100BCE00E0FBD39DEA9C402190006EEAF0A3EBF08F
:100BDE00120B79ECF0A3EDF090006EE0FCA3E0FDBB
:100BEE00EE120B8BECF0A3EDF00E80C80FEF640548
:020BFE0070C0C5
:010C000022D1
:100C8200A3F07460901011F09010107481F022FEA5
:100C9200FDFCE0F8A3E0F9A3E0FAA3E0FB22900058
:0C0CA20068E0FCA3E0FDA3E0FEA3E0225C
:0A0DE80075B42075B20C43B28122ED
:0C0DC600EFB4010443AA022253AAFD224C
:0C0DD200EFB4010443AA012253AAFE2240
:100D3000AD07AC06ECF5C5AF058FC475C24075C3F1
:0B0D400081E5C2F420E4FA53C2EF2268
:100D1400AC06EC901012F0A3EFF07440120C869025
:0C0D24001011E0F420E4F8E054EFF0229D
:100D4B00EF25E0FFEE33901012F0EF120C829010B3
:0A0D5B0011E0F420E4F8E054EFF09A
:010D6500226B
:0607B3009000641207A78C
:1007B900E47F02900064120C9112074790006812BE
:1007C90007A7120CA0C3940AFFEE940002084BE499
:1007D900FF900068120C91D31207964077E47FFFCF
:1007E9007EFFFDFC900068E0F8A3A3A3E0D3120705
:1007F9009640067EFF7FFF800A900068A3A3E0FE73
:10080900A3E0FF90006CEEF0A3EFF090006CE0FC29
:10081900A3E0FDEC901012F0ED120C82901011E0A3
:10082900F420E4F8E054EFF0120CA0FFC006C00772
:10083900A3E0FEA3E0FBAA06D007D006C3EF9BFF07
:10084900EE9AFEED9400FDEC9400FC90006812070E
:04085900A70207D813
:01085D002278
:03006B00020DB2D1
:100DB200C0E0C083C082900027E06401F0D082D0FE
:040DC20083D0E032C8
:0300630002006038
:0200600000326C
:100C010090002AE4F0A3743CF090002D227402F0CD
:100C110090001DE0FFF422E004F0E0C3940222C240
:100C2100B3C2A0C2B4C2B2C28322E4F090001DE0FC
:100C31002290002AE4F0A3743CF022D2B3D2A0D2D5
:020C4100B422DB
:10062A00208B5790001E120C184058120C0E30E006
:10063A0052EF4401F090001AE06401F0E490002ABD
:10064A00F0A3F0A3F090001AE0603812098A900033
:10065A001B7402F0E025E024BEF582E43403F5833E
:10066A00E493FF740193900025CFF0A3EFF090007C
:10067A005D7401F0A3742CF0800990001E120C2BFB
:10068A0054FEF0208627900020120C184028120CE5
:10069A000E30E222EF4404F090001AE0B401179001
:1006AA00001CE0C39408500EE004F080099000207A
:1006BA00120C2B54FBF0208422900021120C1840BB
:1006CA0026120C0E30E320EF4408F090001AE0B432
:1006DA00011590001CE0600F14F022E4900021F054
:0806EA0090001DE054F7F0221E
:1002C500900023E06003020380743CF0900045E059
:1002D500600214F0900047E0600214F0900053E0D3
:1002E500600214F0900054E0600214F0900055E0B4
:1002F500600214F0900056E0600214F0900019E0DE
:10030500600214F0900029E06003E014F090005AB8
:10031500E0600214F090005BE07002A3E0600E90D4
:10032500005CE024FFF090005BE034FFF090005D9E
:10033500E07002A3E0600E90005EE024FFF0900004
:100345005DE034FFF0900058E004F070069000572F
:10035500E004F0900025E07002A3E0600E90002616
:10036500E024FFF0900025E034FFF0900024E070D9
:1003750005743CF0800B9000248003900023E0146A
:10038500F0900029E0900025E07002A3E06006905F
:10039500001AE0700FE4900030F090001AF0900021
:0503A50025F0A3F02289
:1001A80090002CE0FFC390002BE09F90002AE09481
:1001B80000402190001AE06401701FA3E0FF700462
:1001C800D2928016EFB40104D296800EEFB4020AE0
:1001D800D297800690002D740AF090002AE07002F1
:1001E800A3E060030202A7900031E06013120C3212
:1001F800900031E030E00690002D740DF002027995
:10020800900030E0FF607730E009120C017401F0D3
:10021800020279EF30E109120C017402F00202794E
:10022800EF30E208120C017403F08045EF30E30868
:10023800120C017404F08039EF30E408120C0174D8
:1002480005F0802DEF30E508120C017406F08021CE
:10025800EF30E608120C017407F08015EF90002AC1
:1002680030E708120C047408F08006120C047409B4
:10027800F090002AE0C313A3E013A3F0802F120C20
:100288003290001AE0B4010A90001CE090002DF0B2
:10029800800690002D740FF0E490002CF0800E90F2
:1002A800002BE024FFF090002AE034FFF0120DF25A
:0D02B80090002DE0FF12055AE4FF020E0138
:080DF200120C20C2B0C2B122B4
:10055A00EFB41000400302062990056AF8282873B0
:10056A0002059A0205A00205A40205B10205BA0213
:10057A0005BE0205C80205CE0205D60205DE020541
:10058A00EA0205F90205FE02060A0206160205F942
:10059A00120C3C02061CC2B3802CD2B3D2A0C2B445
:1005AA00D2B2D283020625120C3CD2B2C283806B2D
:1005BA00C2B38022D2B3C2A0D2B4D2B2801EC2B316
:1005CA00C2A0800CD2B3D2A0D2B4801AD2B3D2A025
:1005DA00D2B48026D2B3D2A0D2B4C2B2C283802708
:1005EA00C2B3C2A0C2B4C2B2C283C2B0C2B12212E2
:1005FA000C208027D2B3C2A0C2B4D2B2D283800761
:10060A00120C3CC2B2D283D2B0D2B122D2B3C2A0AF
:10061A00C2B4D2B2D283D2B0C2B122C2B0D2B12253
:060E0100900071EFF022E9
:10000300438002E4FF120CD6900012EEF0A3EFF04F
:10001300A3E07002A3E06010900015E024FFF090CD
:100023000014E034FFF08007E4900012F0A3F0C363
:10003300900013E09466900012E09406900031E083
:0E00430040054401F0800354FEF05380FD227E
:100484004380027F0F120CD690000EE0FD04F0EDC5
:1004940025E02402F582E43400F583EEF0A3EFF0C6
:1004A40090000EE0C394054049E4F0900004E0FE9F
:1004B400A3E0FF900003E02FFF900002E03EFE90D7
:1004C4000007E02FFF900006E03EFE900009E02FB9
:1004D400FF900008E03EFE90000BE02FFF90000A22
:1004E400E03EFE7C007D051206F290000CEEF0A3C7
:1004F400EFF090000CE0FEA3E0FFC3945EEE940ADC
:10050400400C9000017401F090000FF0802CC3EFB8
:10051400946EEE940640099000017401F0E4800E9C
:10052400C3EF945EEE94065011E4900001F0900045
:100534000FF0A37403F0A37484F0900010E0700231
:10054400A3E0600E900011E024FFF0900010E0346E
:06055400FFF05380FD22C0
:100AE3004380027F0C120CD6900016EEF0A3EFF0B9
:100AF300D394AEEE9403501CA3E004F0E0C3940A35
:100B03004017740AF0900030E04480F090001974AC
:100B13000AF08005E4900018F0900019E0600414D6
:0E0B2300F08007900030E0547FF05380FD22F8
:1008F50053A87F120DFA7D0FE4FF120CF8120B318D
:1009050043A880120A8112098A120D9AE59830E3EC
:10091500FB900041E0B401034398027FCC7E1012A6
:100925000CAE1204847F1E7E00120CAE12085E53BC
:1009350098FD7F547E0B120CAE7F647E00120CAEC8
:100945001202C512062A7FF47E01120CAE12005166
:10095500E59820E3FB1201A87FE87E03120CAE7F29
:10096500DC7E05120CAE1200037FE87E03120CAE8E
:10097500120A0D53903B12006E7FE87E03120CAEF7
:05098500120D668087E1
:100A8100E490001AF0900028F0A37414F0E49000B0
:100A91001DF0A3F0A3F090002AF0A3F0A3F09000C2
:100AA1001C7404F0E490001BF0900032F090002FD1
:100AB100F090002D740AF0E4900030F0A3F0900063
:100AC1001404F0A3742CF0E4900001F090000FF0F6
:100AD100900000F0900048F053807F5380FD5380D8
:020AE100FE22F3
:100D9A007F1EE4900071F0E59830E3FBE59820E3CC
:070DAA00FBEF60031F80F066
:010DB100221F
:03000000020D806E
:100D800078FFE4F6D8FD9000007F007E09E4F0A330
:0A0D9000DFFCDEFA7581070208F5AA
:1006F200BC000BBE0029EF8DF084FFADF022E4CCEC
:10070200F875F008EF2FFFEE33FEEC33FCEE9DECB4
:10071200984005FCEE9DFE0FD5F0E9E4CEFD22EDFA
:10072200F8F5F0EE8420D21CFEADF075F008EF2F44
:10073200FFED33FD4007985006D5F0F222C398FD35
:050742000FD5F0EA22D2
:10074700E88FF0A4CC8BF0A42CFCE98EF0A42CFC51
:100757008AF0EDA42CFCEA8EF0A4CDA8F08BF0A4CF
:100767002DCC3825F0FDE98FF0A42CCD35F0FCEB2E
:100777008EF0A4FEA9F0EB8FF0A4CFC5F02ECD39F3
:0F078700FEE43CFCEAA42DCE35F0FDE43CFC2260
:10079600EB9FF5F0EA9E42F0E99D42F0E89C45F0B9
:0107A6002230
:0C07A700ECF0A3EDF0A3EEF0A3EFF022C5
:00000001FF
