:1009D300438002E4FF120C14900041EEF0A3EFF009
:1009E300A3E07002A3E06010900044E024FFF090C5
:1009F3000043E034FFF08007E4900041F0A3F0C32C
:100A0300900042E09466900041E09406900060E01C
:0E0A130040054401F0800354FEF05380FD22A4
:100514004380027F0F120C1490003DE0FD04F0EDC7
:1005240025E02431F582E43400F583EEF0A3EFF006
:1005340090003DE0C394054049E4F0900033E0FEB0
:10054400A3E0FF900032E02FFF900031E03EFE90E8
:100554000036E02FFF900035E03EFE900038E02F9B
:10056400FF900037E03EFE90003AE02FFF90003904
:10057400E03EFE7C007D051205E390003BEEF0A317
:10058400EFF090003BE0FEA3E0FFC3945EEE940A1C
:10059400400CE4900030F090003E04F08025C3EF5E
:1005A400946EEE940640028009C3EF945EEE9406C6
:1005B4005011E4900030F090003EF0A37403F0A3D7
:1005C4007484F090003FE07002A3E0600E9000405D
:0F05D400E024FFF090003FE034FFF05380FD2261
:100A21004380027F0C120C14900045EEF0A3EFF00E
:100A3100D394AEEE9403501CA3E004F0E0C3940AF7
:100A41004017740AF090005FE04480F09000487411
:100A51000AF08005E4900047F0900048E06004143B
:0E0A6100F0800790005FE0547FF05380FD228C
:070D3D0075C820E4F58A22CD
:100C3600EDC3940F40027D0FEFB40106ED25E0F5FC
:0C0C4600D822AF05EF25E04401F5D822CC
:100A6F0075A18BE4F5ACF591F5DEF580F5D375D274
:100A7F0020F5B1F5ADF592F588F5D575D42A75B990
:100A8F00C4F5AEF593F59075D60A75C102F5AFF5BD
:100A9F0098F5EE75C901F5A3F594F5A0F5EF75D1AD
:080AAF001FF595F5B0F5FF22DB
:100C1400759D07EF4480F59C439C4000E59CF420BF
:100C2400E4FAE59F540FFEAD9E7C00E42DFFEC3EFC
:020C3400FE229E
:100BEC00AC06EC901012F0A3EFF09010107401F022
:100BFC00A37464F0901010E04480F0901011E0F4B5
:080C0C0020E4F8E054EFF022AF
:0A005900EF1F70011E144E70F72215
:10000300190715061F1D1B191715110808070706E1
:1000130006031F0938407080A8C0000000F0021CCE
:100023000348047405A006CC06CC06CC0005090DD4
:100033001115191D1F0002030405060708090666AA
:10004300070A070A00A4066607AE085108F50999CE
:0600530009EB0A8F0B33DC
:100AB700EE25E02400F582E43400F583E0FCA3E0B2
:100AC700FDEF25E02400F582E43400F58322F0A34E
:100AD700F0A3F0A3F02290000BE0943390000AE01B
:100AE700940322E490000FF0A3F022EEF0A3EFF0BE
:050AF7007F0A7E0022D1
:10087B00900052743CF0A3F090004A7402F0E490A4
:10088B00005FF0A3F0900015F0900018120AD590BD
:10089B00001D120AD5A3120AD5A3F0A3F0A3743C32
:1008AB00F090004BE025E0241DF582E43400F58345
:1008BB00E493FF740193900028CFF0A3EFF0E49042
:1008CB00002DF0A3F0900045120AD590000AF0A37A
:1008DB00F0900012F0120AEBA3F0900014F09000CD
:0B08EB0013F090000CF0A3F0A3F0222B
:10006E0090002AE07002A3E0704B90002CE0FFB4E9
:10007E000223C390001BE0949990001AE09409901B
:10008E00002C500280257401F090002A7404F0A315
:10009E0074B0F08020EFB4011CC390001BE09433C9
:1000AE0090001AE0940B500890002C7403F0800519
:1000BE00E490002CF090004BE025E02447F582E41C
:1000CE003400F583E493FE740193FF9000177401DE
:1000DE00F0C390001BE09F90001AE09E4024E49035
:1000EE00002CF0900017F090001BE094D690001AB0
:1000FE00E0940F400D90005FE04440F090002374B8
:10010E000AF090002CE0C394034006A37415F0800F
:10011E000690002D741FF0900020E0700790005F95
:10012E00E054F7F0900021E0700790005FE054EF8C
:10013E00F0900022E0700790005FE054DFF0900036
:10014E0023E0700790005FE054BFF0900049E06438
:10015E0001701E900017E0B4011790000CE0B4017E
:10016E0010900012E0700A90005FE070047F018032
:08017E00027F00900015EFF074
:010186002256
:100CA400E490000DF0900015E0B4010A43808090B8
:0A0CB400000D7401F02253807F222E
:0F0D0400900015E0B401044380802253807F22C9
:10074F004380027F0E120C1490000AEEF0A3EFF01C
:10075F00A37401F0A3E0B40118120AEAD3120ADD60
:10076F00506490005FE04402F0900014740AF0802F
:10077F0055C3120ADD401E900010E004F070069081
:10078F00000FE004F0E490000CF0900012E0701302
:10079F00743CF0800E120AEA90000EF090005FE0B9
:1007AF0054FEF0C3900010E0946890000FE0941096
:1007BF0040147410F0A37468F090000E7401F09060
:1007CF00005FE04401F0900014E0700790005FE0DC
:0707DF0054FDF05380FD22E0
:100B8100438002E4900070F07F0D120C149000700D
:100B9100E0120AC9120AF2120BEC63800290007093
:100BA100E004F0E0C3940540DF5380FD120AFC909D
:0E0BB1000006E0FFA3E0900018CFF0A3EFF0E5
:010BBF002213
:1008F600438002E490006EF07F0B120C1490006EA1
:10090600E0120AC9120AF2120BEC63800290006E22
:10091600E004F0E0C3940540DF900002E0FEA3E0AF
:10092600FF900001E02FFF900000E03EFE900005E2
:10093600E02FFF900004E03EFE900007E02FFF90BE
:100946000006E03EFE900009E02FFF900008E03E22
:10095600FE7C007D051205E390001AEEF0A3EFF091
:030966005380FDBE
:01096900226B
:100AFC00E4FFAE07EEC394055032120AB7E0FAA336
:100B0C00E0FBD39DEA9C402190006CEAF0A3EBF053
:100B1C00120AB7ECF0A3EDF090006CE0FCA3E0FD42
:100B2C00EE120AC9ECF0A3EDF00E80C80FEF6405CD
:020B3C0070C087
:010B3E002294
:100BC000A3F07460901011F09010107481F022FE68
:100BD000FDFCE0F8A3E0F9A3E0FAA3E0FB2290001B
:0C0BE00066E0FCA3E0FDA3E0FEA3E02221
:0A0D2B0075B42075B20C43B28122AA
:0C0D1300EFB4010443AA022253AAFD22FF
:0C0D1F00EFB4010443AA012253AAFE22F3
:100C6E00AD07AC06ECF5C5AF058FC475C24075C3B4
:0B0C7E0081E5C2F420E4FA53C2EF222B
:100C5200AC06EC901012F0A3EFF07440120BC490AB
:0C0C62001011E0F420E4F8E054EFF02260
:100C8900EF25E0FFEE33901012F0EF120BC0901039
:0A0C990011E0F420E4F8E054EFF05D
:010CA300222E
:0606A400900062120698AE
:1006AA00E47F02900062120BCF12063890006612A5
:1006BA000698120BDEC3940AFFEE940002073CE48C
:1006CA00FF900066120BCFD31206874077E47FFFB4
:1006DA007EFFFDFC900066E0F8A3A3A3E0D3120618
:1006EA008740067EFF7FFF800A900066A3A3E0FE94
:1006FA00A3E0FF90006AEEF0A3EFF090006AE0FC3E
:10070A00A3E0FDEC901012F0ED120BC0901011E076
:10071A00F420E4F8E054EFF0120BDEFFC006C00745
:10072A00A3E0FEA3E0FBAA06D007D006C3EF9BFF17
:10073A00EE9AFEED9400FDEC9400FC900066120621
:04074A00980206C942
:01074E002288
:03006B00020CF094
:100CF000C0E0C083C082900056E06401F0D082D092
:040D000083D0E0328A
:0300630002006632
:02006600003266
:100B3F00900059E4F0A3743CF090005C227402F032
:100B4F0090004CE0FFF422E004F0E0C3940222C2D4
:100B5F00B3C2A0C2B4C2B2C28322E4F090004CE090
:100B6F0022900059E4F0A3743CF022D2B3D2A0D269
:020B7F00B4229E
:10037100E490006EF0A3F0208B5B90004D120B56C1
:10038100405C120B4C30E056EF4401F0900049E024
:100391006401F0E4900059F0A3F0A3F0900049E06B
:1003A100603C12087B90004A7402F0E025E02417BB
:1003B100F582E43400F583E493FF740193900054D3
:1003C100CFF0A3EFF090002A7404F0A374B0F0A36F
:1003D1007402F0800990004D120B6954FEF02086E2
:1003E1002790004F120B564028120B4C30E222EF9F
:1003F1004404F0900049E0B4011790004BE0C3942D
:1004010008500EE004F0800990004F120B6954FB74
:10041100F0208422900050120B564026120B4C30D3
:10042100E320EF4408F0900049E0B4011590004B3F
:10043100E0600F14F022E4900050F090004CE05482
:02044100F7F0D2
:010443002296
:10028C00900052E06003020347743CF0900012E0CF
:10029C00600214F0900014E0600214F0900020E072
:1002AC00600214F0900021E0600214F0900022E053
:1002BC00600214F0900023E0600214F0900048E01B
:1002CC00600214F0900058E06003E014F0900027F6
:1002DC00E0600214F0900028E07002A3E0600E9041
:1002EC000029E024FFF0900028E034FFF090002A71
:1002FC00E07002A3E0600E90002BE024FFF0900071
:10030C002AE034FFF0900025E004F0700690002401
:10031C00E004F0900054E07002A3E0600E900055F1
:10032C00E024FFF0900054E034FFF0900053E070B4
:10033C0005743CF0800B9000538003900052E01445
:10034C00F0900058E0900054E07002A3E06006903A
:10035C000049E0700FE490005FF0900049F09000CD
:05036C0054F0A3F02293
:1001870090005BE0FFC390005AE09F900059E09415
:10019700004009900049E0B40108800690005C74B3
:1001A7000AF0900059E07002A3E0600302026E902B
:1001B7000060E06013120B70900060E030E0069082
:1001C700005C740DF002024090005FE0FF60773042
:1001D700E009120B3F7401F0020240EF30E109120F
:1001E7000B3F7402F0020240EF30E208120B3F743B
:1001F70003F08045EF30E308120B3F7404F08039B9
:10020700EF30E408120B3F7405F0802DEF30E5085E
:10021700120B3F7406F08021EF30E608120B3F7493
:1002270007F08015EF90005930E708120B42740869
:10023700F08006120B427409F0900059E0C313A333
:10024700E013A3F0802F120B70900049E0B4010A6D
:1002570090004BE090005CF0800690005C740FF01B
:10026700E490005BF0800E90005AE024FFF09000CD
:1002770059E034FFF0120D3590005CE0FF120444A2
:05028700E4FF020D443C
:080D3500120B5EC2B0C2B12234
:10044400EFB410004003020513900454F8282873F5
:1004540002048402048A02048E02049B0204A4029D
:1004640004A80204B20204B80204C00204C80204CC
:10047400D40204E30204E80204F40205000204E3E3
:10048400120B7A020506C2B3802CD2B3D2A0C2B436
:10049400D2B2D28302050F120B7AD2B2C283806B1E
:1004A400C2B38022D2B3C2A0D2B4D2B2801EC2B32D
:1004B400C2A0800CD2B3D2A0D2B4801AD2B3D2A03C
:1004C400D2B48026D2B3D2A0D2B4C2B2C28380271F
:1004D400C2B3C2A0C2B4C2B2C283C2B0C2B12212F9
:1004E4000B5E8027D2B3C2A0C2B4D2B2D28380073B
:1004F400120B7AC2B2D283D2B0D2B122D2B3C2A08A
:10050400C2B4D2B2D283D2B0C2B122C2B0D2B1226A
:060D440090006EEFF022AA
:1007E60053A87F120D3D7D0FE4FF120C36120A6FDF
:1007F60043A88012096A12087B120CD8E59830E3E8
:10080600FB90000EE0B401034398027FCC7E1012E9
:100816000BEC1205147F1E7E00120BEC12074F53D1
:1008260098FD7F547E0B120BEC7F647E00120BEC5E
:1008360012028C1203717FF47E01120BEC120D046E
:10084600E59820E3FB1201877FE87E03120BEC7F1D
:10085600DC7E05120BEC1209D37FE87E03120BEC4B
:100866001208F653903B12006E7FE87E03120BECE3
:05087600120CA48087B4
:10096A00E4900049F0900057F0A37414F0E490006A
:10097A004CF0A3F0A3F0900059F0A3F0A3F090007C
:10098A004B7404F0E490004AF0900061F090005E2D
:10099A00F090005C740AF0E490005FF0A3F090001D
:1009AA004304F0A3742CF0E4900030F090003EF081
:1009BA0090002FF0900015F053807F5380FD5380F4
:0909CA00FE90000EF05398FD228E
:100CD8007F1EE490006EF0E59830E3FBE59820E392
:070CE800FBEF60031F80F029
:010CEF0022E2
:03000000020CBE31
:100CBE0078FFE4F6D8FD9000007F007E09E4F0A3F3
:0A0CCE00DFFCDEFA7581070207E67D
:1005E300BC000BBE0029EF8DF084FFADF022E4CCFC
:1005F300F875F008EF2FFFEE33FEEC33FCEE9DECC5
:10060300984005FCEE9DFE0FD5F0E9E4CEFD22ED0A
:10061300F8F5F0EE8420D21CFEADF075F008EF2F54
:10062300FFED33FD4007985006D5F0F222C398FD45
:050633000FD5F0EA22E2
:10063800E88FF0A4CC8BF0A42CFCE98EF0A42CFC61
:100648008AF0EDA42CFCEA8EF0A4CDA8F08BF0A4DF
:100658002DCC3825F0FDE98FF0A42CCD35F0FCEB3E
:100668008EF0A4FEA9F0EB8FF0A4CFC5F02ECD3903
:0F067800FEE43CFCEAA42DCE35F0FDE43CFC2270
:10068700EB9FF5F0EA9E42F0E99D42F0E89C45F0C9
:010697002240
:0C069800ECF0A3EDF0A3EEF0A3EFF022D5
:00000001FF
